:0400000051EF00F0CC
:0C000800FACF36F0FBCF37F088EF04F0A1
:10001800D8CF01F0E8CF02F0E0CF03F0FACF04F038
:10002800FBCF05F0E9CF06F0EACF07F0E1CF08F003
:10003800E2CF09F0D9CF0AF0DACF0BF0F3CF0CF00A
:10004800F4CF0DF0F6CF0EF0F7CF0FF0F8CF10F099
:10005800F5CF11F011C0F5FF10C0F8FF0FC0F7FF82
:100068000EC0F6FF0DC0F4FF0CC0F3FF0BC0DAFFA3
:100078000AC0D9FF09C0E2FF08C0E1FF07C0EAFFD4
:1000880006C0E9FF05C0FBFF04C0FAFF03C0E0FF9C
:1000980002C0E8FF01C0D8FF1000E0EF05F02C6EA9
:1000A800000E356E2C502C6E000E306E2C502C6EBF
:1000B800000E346E2C502C6E000E336E2C502C6EAD
:1000C800000E316E2C50C6AC25D0C69C000120EE27
:1000D8000CF00001D351D9260001D451DA22050EC3
:1000E800DF6E2C6E010E316E2C50000120EE0EF0EA
:1000F8000001D351D9260001D451DA22DF2A0001A8
:1001080020EE0DF00001D351D9260001D451DA2296
:10011800040EDF6EC7A006D0C9CF32F02C6E010ED8
:10012800356E2C5031669CD185D1C7A699D13550F2
:10013800CFEC03F0000120EE0CF00001D351D926DA
:100148000001D451DA22080EDF628AD12C6E000E2B
:10015800356E2C502C6E010E336E5FD1C7A82AD095
:10016800000120EE0BF00001D351D9260001D45133
:10017800DA22DF2A3550D8B452D1C7BA05D02C6E4E
:10018800010E346E2C504BD1000120EE0EF0000110
:10019800D351D9260001D451DA22DF2A000120EEFA
:1001A8000DF00001D351D9260001D451DA22060EF0
:1001B800DF6E35D13550D8B453D1000120EE0BF0A5
:1001C8000001D351D9260001D451DA22DF2AC7BA57
:1001D80019D0C7B40BD0000120EE0CF00001D351A8
:1001E800D9260001D451DA22070E6FD0000120EE83
:1001F8000CF00001D351D9260001D451DA22080E9F
:10020800DF6E04D1000120EE0EF00001D351D92693
:100218000001D451DA22DF2A000120EE0CF000019F
:10022800D351D9260001D451DA22050EDF6E000120
:1002380020EE0DF00001D351D9260001D451DA2265
:10024800060E43D0000120EE77F00001D351D926E5
:100258000001D451DA22DF502C6E000120EE76F036
:100268000001D351D9260001D451DA22DF502C5C89
:10027800D8B0D5D0000120EE77F00001D351D926AF
:100288000001D451DA22DF502C6E2C50010D0F0ED4
:10029800F326000EF422F35000010001D325D96E95
:1002A800F45000010001D421DA6EDF50C96E00015C
:1002B80020EE77F00001D351D9260001D451DA227B
:1002C800DF2A2C6E010E306EA8D0DF6EC9D0C7A809
:1002D80059D0000120EE0BF00001D351D9260001BE
:1002E800D451DA22DF2A3550D8B447D0C7AA24D04F
:1002F800000120EE0AF00001D351D9260001D451A3
:10030800DA22DF502C6E2C50010DF3500001000151
:10031800D325D96EF45000010001D421DA6E32C021
:10032800DFFF000120EE0AF00001D351D9260001B9
:10033800D451DA22DF2A21D0000120EE0EF000018C
:10034800D351D9260001D451DA22DF2A000120EE48
:100358000DF00001D351D9260001D451DA22060E3E
:10036800DF6E000120EE0CF00001D351D926000108
:10037800D451DA22050EDF6E52D02C6E010E346E87
:100388002C504DD03550D8B46BD0000120EE0BF076
:100398000001D351D9260001D451DA22DF2AC7AA95
:1003A80024D0000120EE0AF00001D351D926000123
:1003B800D451DA22DF502C6E2C50010DF35000017D
:1003C8000001D325D96EF45000010001D421DA6E62
:1003D80032C0DFFF000120EE0AF00001D351D92618
:1003E8000001D451DA22DF2A3BD0C7A4CDD60001C0
:1003F80020EE0CF00001D351D9260001D451DA22A5
:10040800080EDF6E2C6E010E346E2C502C6E010E11
:10041800336E2C502C6E000E356E2C5021D00001FE
:1004280020EE0CF00001D351D9260001D451DA2274
:10043800050E4BD7000120EE0CF00001D351D92650
:100448000001D451DA22DF50050AD8B46ED6030A67
:10045800D8B484D6010AD8B43AD70F0AD8B4F2D699
:10046800356603D03050D8B402D0C6A8C68800017B
:1004780020EE0AF00001D351D9260001D451DA2226
:10048800080EDF6422D0346620D0000120EE0CF084
:100498000001D351D9260001D451DA22050EDF6EAE
:1004A800000120EE0EF00001D351D9260001D451ED
:1004B800DA22DF2A000120EE0DF00001D351D926FF
:1004C8000001D451DA22070EDF6E3450D8B404D0BC
:1004D800000120EE0AF03BD0000120EE0EF00001F2
:1004E800D351D9260001D451DA22DF50D8B437D0FD
:1004F800000120EE0EF00001D351D9260001D4519D
:10050800DA22DF502D6E000120EE0DF00001D351EC
:10051800D9260001D451DA22DF502E6E000120EED8
:100528000BF00001D351D9260001D451DA22DF5053
:100538002F6E2C6E290E286E2C50000E2A6E2D0E52
:10054800296E030E22EC07F0000120EE0EF00001E8
:10055800D351D9260001D451DA22000EDF6E335070
:10056800D8B412002C6E000E336E2C50120000010D
:1005780020EE35F00001C051D9260001C151DA2220
:10058800DF5000010001C96F00010001C9510D0DC4
:10059800F35000010001C02500010001CC6FF450A8
:1005A80000010001C1210001CD6F010ECCC0D9FFAF
:1005B800CDC0DAFFDF6274D0000120EE01F0000147
:1005C800CC51D9260001CD51DA22DF5000010001BB
:1005D800C25DD8B002D0FD0E1200000120EE01F07D
:1005E8000001CC51D9260001CD51DA22DF5000019B
:1005F800C76F0001C75100010001CA6F0001CB6B32
:1006080000010001C6C0B7F000010001C5C0B6F086
:10061800030E00010001CC250001C76F000E000188
:100628000001CD210001C86FC7C0B8F0C8C0B9F03B
:10063800CAC0BAF0CBC0BBF0B1EC05F0000120EEA7
:1006480035F00001C051D9260001C151DA2200015C
:1006580010EE35F00001C051E1260001C151E2223F
:10066800E7500001C76F0001C729030BDF6E0001C7
:1006780020EE02F00001CC51D9260001CD51DA223A
:10068800C3C0E1FFC4C0E2FFDFCFE7FFCCC0D9FFA2
:10069800CDC0DAFF000EDF6E00010001CA51120062
:1006A800FC0E1200000E010101010C6F000E010189
:1006B8000B6F820ED36E9B9C0101010E000100019D
:1006C800B76F0101100E00010001B66F7CEC05F058
:1006D80045EC05F0000E936E000E8A6E910E0DEC3F
:1006E80007F09F869D8661EC07F0C9EC04F00101D4
:1006F800010E00010001CF6F01010F0E0001000182
:10070800CE6F0101010E00010001D16F0101000E41
:1007180000010001D06F0A0E9AEC06F001010101F8
:100728000E6F010101010EBF13D003D000C10DF1FE
:100738000FD0010101010F510A0AD8B409D0220AC9
:10074800D8B4F4D7010AD8B4F1D7030AD8A4180A40
:100758000101010E00010001CF6F01010F0E000120
:100768000001CE6F0101010E00010001D16F0101EE
:10077800000E00010001D06F0A0E79EC06F00101AD
:1007880001010E6F010101010EBFAFD70101010187
:100798000F51320AAAD7E8CF12F0000120EE0BF071
:1007A8000001D351D9260001D451DA22010EDF6E9F
:1007B800000120EE0AF00001D351D9260001D451DE
:1007C800DA22000EDF6E1250D8B43DD0C7AA21D06D
:1007D800000120EE0CF00001D351D9260001D451BC
:1007E800DA22050EDF6E000120EE0EF00001D35173
:1007F800D9260001D451DA22DF2A000120EE0DF0BB
:100808000001D351D9260001D451DA22050EDF6E3A
:100818001200C7A40CD0000120EE0CF00001D35147
:10082800D9260001D451DA22080EDF6E1200000129
:1008380020EE0CF00001D351D9260001D451DA2260
:10084800070EDF6E1200000120EE0CF00001D351FC
:10085800D9260001D451DA22060EDF6E12001EC01E
:1008680023F0246A20EE34F01C50D9261D50DA22D9
:10087800DF50256E25500D0DF3501C24266EF450C4
:100888001D20276E26C0D9FF27C0DAFFDF50D8B455
:1008980002D0FF0E120020EE01F02650D926275074
:1008A800DA221EC0DFFF20EE02F02650D92627509C
:1008B800DA221FC0DFFF030E2624126E000E272047
:1008C800136E21C015F020C014F023C016F024C008
:1008D80017F0BBEC06F020EE34F01C50D9261D5062
:1008E800DA2210EE34F01C50E1261D50E222E750C7
:1008F800226E2228030BDF6E26C0D9FF27C0DAFF3D
:10090800010EDF6E010E1200E9CF38F0EACF39F0A0
:10091800E1CF3AF0E2CF3BF0D9CF3CF0DACF3DF06F
:10092800F3CF3EF0F4CF3FF0F6CF40F0F7CF41F0F1
:10093800F8CF42F0F5CF43F09EA603D09E9653EC35
:1009480000F0F2A403D0F2946BEC07F00DEC06F083
:1009580043C0F5FF42C0F8FF41C0F7FF40C0F6FFB3
:100968003FC0F4FF3EC0F3FF3DC0DAFF3CC0D9FFF3
:100978003BC0E2FF3AC0E1FF39C0EAFF38C0E9FFF7
:1009880037C0FBFF36C0FAFF110057EC06F0000134
:100998000001BB510001BA11D8B412000001BC6FAC
:1009A800010E466E0001BC510101010E000100015B
:1009B800B76F0101BF0E00010001B66FDBEC06F056
:1009C8000009D8B407D00001BC6F000E466E0001C4
:1009D800BC5112000001000E00010001B76F0001B8
:1009E800800E00010001B66FDBEC06F00009D8B4F8
:1009F80007D00001BC6F000E466E0001BC5112000A
:100A08000A0E47EC07F0D0D7000120EE34F00001C1
:100A1800B651D9260001B751DA22000EDF6E000167
:100A280020EE35F00001B651D9260001B751DA227F
:100A3800000EDF6E0001B86F000E00010001B96FF3
:100A48000001B851030E00010001B96501D0120080
:100A580000010001B9510D0DF35000010001B62548
:100A6800D96EF45000010001B721DA6E000EDF6E76
:100A780000010001B92B030E00010001B965E8D798
:100A880012000001BA6F000E466E0001BA51000153
:100A9800000E00010001B76F0001800E0001000187
:100AA800B66F08EC05F00101010E00010001B76FF7
:100AB8000101BF0E00010001B66F08EC05F001014D
:100AC800010E00010001B76F0101890E000100014C
:100AD800B66F08EC05F00201020E00010001B76FC5
:100AE8000201000E00010001B66F08EC05F01200CB
:100AF80000010001B7C0D4F000010001B6C0D3F076
:100B0800000120EE0AF00001D351D9260001D4518A
:100B1800DA22000EDF6E000120EE0BF00001D35147
:100B2800D9260001D451DA22000EDF6E000120EE32
:100B38000CF00001D351D9260001D451DA22050E58
:100B4800DF6E000120EE0EF00001D351D92600011E
:100B5800D451DA22000EDF6E120000010001B9C084
:100B6800BFF000010001B8C0BEF000010001B7C02D
:100B7800BDF000010001B6C0BCF012D0BEC0D9FF64
:100B8800BFC0DAFFBCC0E1FFBDC0E2FFDFCFE7FFB7
:100B980000010001BE4BBF2B00010001BC4BBD2B67
:100BA80000010001BA07D8A0BB070001BA29D8B4D0
:100BB800BB29D8B41200E2D702EE00F0360EEE6A76
:100BC800E806FDE101EE89F06C0EEE6AE806FDE14B
:100BD80000EE80F0360EEE6AE806FDE100EE44F025
:100BE8000B0EEE6AE806FDE1D00EF66E0E0EF76EFD
:100BF800000EF86E00EE4FF010EE05F00900F5CF8C
:100C0800EEFFE550E150FAE1000EF86E000156EFF4
:100C180003F0466601D01200F6EC06F015501410E9
:100C2800D8A412005BEC07F013501210D8B41200CD
:100C38000101010E136E0101BF0E126E35EC07F0B3
:100C48000009D8A412000001000E136E0001800EE6
:100C5800126E35EC07F00009D8B465EC07F0120005
:100C6800F2AC08D0000E00010001B96F000E0001BF
:100C7800B86F120052EC07F000010001B7510001F3
:100C8800B611D8B408D0000E00010001B96F000EEB
:100C98000001B86F1200000E00010001B96F010ECB
:100CA8000001B86F120034EC06F000010001B951E0
:100CB8000001B811D8A411D052EC07F000010001CE
:100CC800B7510001B611D8A408D0000E00010001E8
:100CD800BB6F010E0001BA6F1200000E0001000187
:100CE800BB6F000E0001BA6F1200E8CFD2F000010E
:100CF800000E00010001C16F0001800E000100011B
:100D0800C06FD2C0C2F000010001CFC0C4F0000122
:100D18000001CEC0C3F000010001D1C0C6F000013F
:100D28000001D0C0C5F0BBEC02F01200E8CFD2F051
:100D38000101010E00010001C16F0101BF0E000198
:100D48000001C06FD2C0C2F000010001CFC0C4F0E2
:100D580000010001CEC0C3F000010001D1C0C6F0FF
:100D680000010001D0C0C5F0BBEC02F0120015C0B4
:100D78001BF014C01AF013C019F012C018F00ED0EE
:100D88001AC0D9FF1BC0DAFF18C0E1FF19C0E2FF83
:100D9800DFCFE7FF1A4A1B2A184A192A1606D8A0D5
:100DA80017061628D8B41728D8B41200E9D70001B6
:100DB80020EE35F00001B651D9260001B751DA22EC
:100DC800DF500001B86F0001B8510D0DF35000015C
:100DD8000001B625D96EF45000010001B721DA6E82
:100DE800DF501200F2AC05D0000E156E000E146E26
:100DF80012005BEC07F013501210D8B405D0000EA7
:100E0800156E000E146E1200000E156E010E146E93
:100E18001200E8CFB6F000010001B6517F0BD56E85
:100E2800000ED76E000ED66EF29400010001B6AF28
:100E380002D0F28A01D0F29AD58E1200E8CF2BF0B8
:100E48000101010E1D6E0101BF0E1C6E2BC01EF0AC
:100E580028C01FF02AC021F029C020F033EC04F08C
:100E6800120020EE35F01250D9261350DA22DF5046
:100E7800146E14500D0DF3501224D96EF450132033
:100E8800DA6EDF501200E8CFB6F0FA0E00F0E82E66
:100E9800FDD700010001B62FF8D71200000EF2AE00
:100EA800010E00010001B66F0001B76B1200000EC1
:100EB800F2AE010E126E136A1200D08EF28EF28C10
:100EC8001200D38E03001200010510D8FE00120094
:067FF80080F4C5FFFFF15B
:00000001FF
