:0400000051EF00F0CC
:0C000800FACF16F0FBCF17F0A8EF01F0C4
:10001800D8CF01F0E8CF02F0E0CF03F0FACF04F038
:10002800FBCF05F0E9CF06F0EACF07F0E1CF08F003
:10003800E2CF09F0D9CF0AF0DACF0BF0F3CF0CF00A
:10004800F4CF0DF0F6CF0EF0F7CF0FF0F8CF10F099
:10005800F5CF11F011C0F5FF10C0F8FF0FC0F7FF82
:100068000EC0F6FF0DC0F4FF0CC0F3FF0BC0DAFFA3
:100078000AC0D9FF09C0E2FF08C0E1FF07C0EAFFD4
:1000880006C0E9FF05C0FBFF04C0FAFF03C0E0FF9C
:1000980002C0E8FF01C0D8FF100017EF02F02C6E75
:1000A800000E2E6E2C502B50800A800F08E1000E97
:1000B8002A5C05E1000E295C02E1000E285CD8B03C
:1000C8000CD02B1E2A1E291E286C000E29222A223B
:1000D8002B222C6E010E2E6E2C502750800A800F7A
:1000E80008E1000E265C05E1000E255C02E1000E29
:1000F800245CD8B00AD0271E261E251E246C000EAC
:10010800252226222722010E2E1A000E2F6E000EFF
:10011800306E000E316E000E326E2B5028102910F2
:100128002A10D8B42CD02C6E010E2D6E2C5006D06F
:10013800D890283629362A362B362D2A2BAEF8D7D2
:10014800D8902F363036313632362850245C295034
:1001580025582A5026582B502758D8A009D028505F
:10016800245E2950255A2A50265A2B50275A2F8068
:10017800D8902B322A32293228322D2EE1D72E5010
:10018800D8B408D0321E311E301E2F6C000E30221B
:10019800312232222FC024F030C025F031C026F0A1
:1001A80032C027F0120020EE35F02E50D9262F50FD
:1001B800DA22DF50376E37500D0DF3502E243A6E89
:1001C800F4502F203B6E010E3AC0D9FF3BC0DAFF36
:1001D800DF6250D020EE01F03A50D9263B50DA22A7
:1001E800DF50305CD8B002D0FD0E120020EE01F0D6
:1001F8003A50D9263B50DA22DF50356E3550386EEA
:10020800396A34C025F033C024F0030E3A24356E21
:10021800000E3B20366E35C026F036C027F038C0B9
:1002280028F039C029F0FDEC02F020EE35F02E5010
:10023800D9262F50DA2210EE35F02E50E1262F5015
:10024800E222E750356E3528030BDF6E20EE02F010
:100258003A50D9263B50DA2231C0E1FF32C0E2FFE2
:10026800DFCFE7FF3AC0D9FF3BC0DAFF000EDF6EF1
:1002780038501200FC0E1200000E010101010C6F33
:10028800000E01010B6F820ED36E9B9C0101010EC3
:10029800256E01010E0E246ED8EC02F0B3EC02F0CC
:1002A800000E936E000E8A6E910EAFEC03F09F86DF
:1002B800000E65EC02F09D86D5EC03F0E9EC01F048
:1002C8000101010E3D6E0101880E3C6E0101010E17
:1002D8003F6E0101000E3E6E0A0E76EC03F001013E
:1002E8000101876F0101010187BF13D003D000C14D
:1002F8000DF10FD00101010188510A0AD8B409D0C3
:10030800220AD8B4F4D7010AD8B4F1D7030AD8A47A
:10031800180A0101010E3D6E0101880E3C6E0101B3
:10032800010E3F6E0101000E3E6E0A0E61EC03F0F5
:1003380001010101876F0101010187BFBFD70101D9
:1003480001018851320ABAD7E9CF18F0EACF19F07B
:10035800E1CF1AF0E2CF1BF0D9CF1CF0DACF1DF0B5
:10036800F3CF1EF0F4CF1FF0F6CF20F0F7CF21F037
:10037800F8CF22F0F5CF23F09EA603D09E96E0ECAE
:1003880003F0F2A403D0F294DFEC03F08CEC02F05B
:1003980023C0F5FF22C0F8FF21C0F7FF20C0F6FFF9
:1003A8001FC0F4FF1EC0F3FF1DC0DAFF1CC0D9FF39
:1003B8001BC0E2FF1AC0E1FF19C0EAFF18C0E9FF3D
:1003C80017C0FBFF16C0FAFF11004BEC03F02950D1
:1003D8002810D8B412002A6E010E436E2A5000016C
:1003E800000E256E0001800E246E8BEC03F00009D0
:1003F800D8B405D02A6E000E436E2A5012000001B0
:10040800000E256E0001B60E246E8BEC03F0000979
:10041800D8B405D02A6E000E436E2A5012000A0E78
:10042800C0EC03F0DCD701EE89F06C0EEE6AE8064A
:10043800FDE100EE80F06C0EEE6AE806FDE100EEEC
:1004480041F00B0EEE6AE806FDE1B80EF66E070EF7
:10045800F76E000EF86E00EE4CF010EE05F0090095
:10046800F5CFEEFFE550E150FAE1000EF86E00011D
:1004780040EF01F020EE34F02450D9262550DA223E
:10048800000EDF6E20EE35F02450D9262550DA22F2
:10049800000EDF6E266E000E276E2650030E2764B0
:1004A80001D0120027500D0DF3502424D96EF450BA
:1004B8002520DA6E000EDF6E272A030E2764F2D796
:1004C8001200E8CF37F0C650F00B0809C66EC68A8E
:1004D80020EE78F05150D9265250DA223750246E47
:1004E800256A266A276A800E286E1A0E296E060E5D
:1004F8002A6E000E2B6E53EC00F024C033F025C09A
:1005080034F026C035F027C036F03304DF6E120011
:10051800436601D0120034EC03F015501410D8A42F
:100528001200CFEC03F013501210D8B412000001DF
:10053800000E136E0001800E126E9DEC03F0000990
:10054800D8A412000001000E136E0001B60E126E40
:100558009DEC03F00009D8B4D9EC03F01200286E22
:10056800000E436E28500001000E256E0001B60EE5
:10057800246E3EEC02F00001000E256E0001800E94
:10058800246E3EEC02F00101010E256E0101BF0E42
:10059800246E3EEC02F00101010E256E0101890E68
:1005A800246E3EEC02F0120025C052F024C051F037
:1005B80020EE0AF05150D9265250DA22000EDF6E92
:1005C80020EE0BF05150D9265250DA22000EDF6E81
:1005D80020EE0CF05150D9265250DA22050EDF6E6B
:1005E80020EE0EF05150D9265250DA22000EDF6E5E
:1005F800120027C02DF026C02CF025C02BF024C0F7
:100608002AF00ED02CC0D9FF2DC0DAFF2AC0E1FF96
:100618002BC0E2FFDFCFE7FF2C4A2D2A2A4A2B2ADC
:100628002806D8A029062828D8B42928D8B4120022
:10063800E9D7F2AC05D0000E276E000E266E120028
:10064800C9EC03F025502410D8B405D0000E276E4D
:10065800000E266E1200000E276E010E266E120086
:10066800F2AC05D0000E156E000E146E1200CFEC21
:1006780003F013501210D8B405D0000E156E000EFA
:10068800146E1200000E156E010E146E12001DEC91
:1006980003F027502610D8A40BD0C9EC03F025503E
:1006A8002410D8A405D0000E296E010E286E120061
:1006B800000E296E000E286E1200E8CF40F00001EF
:1006C800000E2F6E0001B60E2E6E40C030F03DC0F9
:1006D80032F03CC031F03FC034F03EC033F0D7ECCC
:1006E80000F01200E8CF40F00001000E2F6E00016C
:1006F800800E2E6E40C030F03DC032F03CC031F06C
:100708003FC034F03EC033F0D7EC00F0120020EECA
:1007180035F02450D9262550DA22DF50266E26508F
:100728000D0DF3502424D96EF4502520DA6EDF50D5
:10073800120020EE35F01250D9261350DA22DF507D
:10074800146E14500D0DF3501224D96EF45013206A
:10075800DA6EDF501200E8CF24F024507F0BD56EFC
:10076800000ED76E000ED66EF29424AE02D0F28A36
:1007780001D0F29AD58E1200E8CF24F0FA0E00F0DC
:10078800E82EFDD7242EFAD71200000EF2AE010E85
:10079800246E256A1200000EF2AE010E126E136A64
:1007A8001200D08EF28EF28C1200D38E030012004B
:0A07B800010510D8FE001200120027
:067FF80080F4C5FFFFF15B
:00000001FF
