:040000007CEF00F0A1
:0C000800FACF00F1FBCF01F1ACEF0BF0E0
:10001800D8CF1FF0E8CF20F0E0CF21F0FACF22F0C0
:10002800FBCF23F0E9CF24F0EACF25F0E1CF26F08B
:10003800E2CF27F0D9CF28F0DACF29F0F3CF2AF092
:10004800F4CF2BF0F6CF2CF0F7CF2DF0F8CF2EF021
:10005800F5CF2FF09EA033EF00F035EF00F03AEF28
:1000680000F09E9050EC10F03AEF00F09EAA3FEF9F
:1000780000F041EF00F046EF00F09E9A4BEC06F0DE
:1000880046EF00F09EA84BEF00F04DEF00F059EF5F
:1000980000F09DA852EF00F054EF00F059EF00F087
:1000A8009E989BEC0DF059EF00F02FC0F5FF2EC085
:1000B800F8FF2DC0F7FF2CC0F6FF2BC0F4FF2AC0B5
:1000C800F3FF29C0DAFF28C0D9FF27C0E2FF26C006
:1000D800E1FF25C0EAFF24C0E9FF23C0FBFF22C0DF
:1000E800FAFF21C0E0FF20C0E8FF1FC0D8FF1000C2
:1000F80047EF0CF0000E02010201066F000E02012C
:10010800056F820ED36E9B9C0201020E0101010154
:100118000F6F0201150E010101010E6FA3EC10F023
:100128000201020E010101010F6F02012D0E0101F2
:1001380001010E6F31EC0DF0FAEC0CF0000E936E2D
:10014800000E8A6E910ED2EC0FF0F50E63EC0EF0F5
:100158009F909F9A9F989F869D86D9EC10F0000EDD
:10016800010101010F6F260E01010E6F7C0E31ECAB
:1001780005F002EC11F0C1EF00F0A0EC09F002016B
:10018800020E01010101276F0201140E0101010194
:10019800266F0201020E01010101296F0201080EFA
:1001A80001010101286F0A0E52EC0FF00201020151
:1001B8002C6F020102012CAFE4EF00F0E6EF00F033
:1001C8006DEF01F090EF01F090EF01F090EF01F08A
:1001D8006DEF01F090EF01F0000E01010101106FC9
:1001E800010E01010F6FB1EC0AF002010201085182
:1001F800D2EC06F000EF01F0000E01010101106FD2
:10020800020E01010F6FB1EC0AF0020102012C0588
:1002180001010101286F0201020E010101012A6F8B
:100228000201090E01010101296F020102010851B1
:10023800FCEC01F020EF01F001019C6F000E0201BF
:100248000201136F01019C512FEF01F0020102011D
:10025800132B2FEF01F0FF0E01019C6FFF0E9D6F16
:1002680002012CC29EF101019F6B9EBF9F070101F5
:100278009C5101019E2701019D5101019F2302010B
:10028800020113510101A06FA16B0101A151800A64
:100298000101A26F9E510101A05D01019F51800AD9
:1002A8000101A259D8A05BEF01F05DEF01F02AEF40
:1002B80001F090EF01F090EF01F008C207F290EF23
:1002C80001F090EF01F090EF01F090EF01F090EF66
:1002D80001F0020102011451090AD8B4F0EF00F04C
:1002E800030AD8B490EF01F01A0AD8B400EF01F06D
:1002F800380AD8B420EF01F0010AD8B461EF01F050
:10030800030AD8B490EF01F0180AD8B490EF01F0BE
:1003180090EF01F090EF01F00201020E01010101DE
:10032800276F0201140E01010101266F0201020E5E
:1003380001010101296F0201080E01010101286F65
:100348000A0E2FEC0FF0020102012C6F02010201CC
:100358002CAFB1EF01F0B3EF01F0E3EF01F0C1EF23
:1003680000F0C1EF00F0C1EF00F0E3EF01F0C1EFE2
:1003780000F0C1EF00F022EEDEF012EE00F0050E04
:10038800DECFE6FFE82EC4EF01F00201020E010104
:100398000101106F0201000E010101010F6F01013F
:1003A8009C6F050E01010101116F01019C5158EC70
:1003B8000AF0C1EF00F0C1EF00F0C1EF00F0020158
:1003C800020114510B0AD8B4C1EF00F0140AD8B4D2
:1003D800BFEF01F02D0AD8B4C1EF00F0C1EF00F073
:1003E800C1EF00F0C1EF00F0C1EF00F07CEF00F0CA
:1003F800E8CF97F1010120EE0DF00101D951D9267E
:100408000101DA51DA22DF50050AD8B40EEF02F002
:1004180010EF02F08CEF02F097C131F1000E0101EC
:100428000101996F010E0101986F4EEF02F0FF0E66
:1004380001012B6FFF0E2C6F010198C12DF10101F5
:1004480099C12EF101012B5101012D2701012C51D8
:1004580001012E2301012D51010101012925D96E28
:1004680001012E51010101012A21DA6E0101310E2B
:10047800010101019825E16E0101010E010101014F
:100488009921E26EDFCFE7FF01010101984B992B1B
:100498004EEF02F001010101285101012B6F2C6B75
:1004A800010E01012B27000E2C2301010101995196
:1004B800800A01012D6F2B5101010101985D010195
:1004C8002C51800A01012D59D8A06DEF02F06FEF71
:1004D80002F01BEF02F071EF02F001012B6F090E21
:1004E80001010101246F01012B510101010E0101DC
:1004F8000101266F0101310E01010101256F010182
:100508000101282998EC0FF03DEF03F03DEF03F0CF
:10051800010120EE7AF00101D951D9260101DA5101
:10052800DA22010EDF6E01010101975101019725C1
:10053800FE0B01010101966F010120EE10F001018F
:10054800D951D9260101DA51DA22010196C1DFFF1A
:10055800000E010101019B6F010E01019A6FF4EF7A
:1005680002F0FF0E01012B6FFF0E2C6F01019AC1E3
:100578002DF101019BC12EF101012B5101012D2704
:1005880001012C5101012E2301012D51010101010D
:100598002925D96E01012E51010101012A21DA6EA6
:1005A800100E010101019A2501012F6F000E0101B2
:1005B80001019B210101306F01012F51010101014E
:1005C800D925E16E0101305101010101DA21E26E04
:1005D800DFCFE7FF010101019A4B9B2BF4EF02F0FB
:1005E80001010101285101012B6F2C6B010E010142
:1005F8002B27000E2C23010101019B51800A0101C8
:100608002D6F2B51010101019A5D01012C51800AC6
:1006180001012D59D8A013EF03F015EF03F0B5EF42
:1006280002F017EF03F0010120EE77F00101D95134
:10063800D9260101DA51DA22010101012829DF6EE8
:10064800010120EE78F00101D951D9260101DA51D2
:10065800DA22000EDF6EC580010120EE0DF00101E7
:10066800D951D9260101DA51DA22060EDF6E3DEFA3
:1006780003F01200E8CFF8F0010120EE0DF00101BF
:10068800D951D9260101DA51DA22DF50050AD8B446
:1006980050EF03F052EF03F0CEEF03F0F8C092F002
:1006A800000E00010001FA6F010E0001F96F90EFD2
:1006B80003F0FF0E00018C6FFF0E8D6F0001F9C073
:1006C8008EF00001FAC08FF000018C5100018E27D6
:1006D80000018D5100018F2300018E51000100019E
:1006E8008A25D96E00018F51000100018B21DA6E35
:1006F8000001920E00010001F925E16E0001000ED3
:1007080000010001FA21E26EDFCFE7FF00010001DE
:10071800F94BFA2B90EF03F0000100018951000119
:100728008C6F8D6B010E00018C27000E8D2300014C
:100738000001FA51800A00018E6F8C5100010001FE
:10074800F95D00018D51800A00018E59D8A0AFEFE4
:1007580003F0B1EF03F05DEF03F0B3EF03F0000136
:100768008C6F090E00010001856F00018C5100019A
:10077800000E00010001876F0001920E00010001C8
:10078800866F00010001892939EC10F07FEF04F031
:100798007FEF04F0010120EE7AF00101D951D9264A
:1007A8000101DA51DA22010EDF6E00010001F85171
:1007B8000001F825FE0B00010001F76F010120EE92
:1007C80010F00101D951D9260101DA51DA220001CC
:1007D800F7C0DFFF000E00010001FC6F010E0001F1
:1007E800FB6F36EF04F0FF0E00018C6FFF0E8D6F6C
:1007F8000001FBC08EF00001FCC08FF000018C519D
:1008080000018E2700018D5100018F2300018E51B8
:10081800000100018A25D96E00018F5100010001F5
:100828008B21DA6E100E00010001FB250001906F8C
:10083800000E00010001FC210001916F00019051A0
:1008480001010101D925E16E000191510101010168
:10085800DA21E26EDFCFE7FF00010001FB4BFC2B42
:1008680036EF04F000010001895100018C6F8D6B97
:10087800010E00018C27000E8D2300010001FC51A0
:10088800800A00018E6F8C5100010001FB5D0001A0
:100898008D51800A00018E59D8A055EF04F057EF0A
:1008A80004F0F7EF03F059EF04F0010120EE77F0C0
:1008B8000101D951D9260101DA51DA2200010001DA
:1008C8008929DF6E010120EE78F00101D951D9267E
:1008D8000101DA51DA22000EDF6EC580010120EE37
:1008E8000DF00101D951D9260101DA51DA22060E9B
:1008F800DF6E7FEF04F01200010120EE35F00101F8
:100908001851D92601011951DA22DF5001010101DC
:10091800216F0101010121510D0DF3500101010168
:10092800182501010101246FF45001010101192169
:100938000101256F010E24C1D9FF25C1DAFFDF624D
:10094800A8EF04F0AAEF04F02BEF05F0010120EE68
:1009580001F001012451D92601012551DA22DF5085
:10096800010101011A5DD8B0BCEF04F0BEEF04F03C
:10097800C3EF04F0FD0E30EF05F030EF05F0010194
:1009880020EE01F001012451D92601012551DA2276
:10099800DF5001011F6F01011F5101010101226F89
:1009A8000101236B010101011EC10FF101010101C8
:1009B8001DC10EF1030E01010101242501011F6F64
:1009C800000E0101010125210101206F1FC110F155
:1009D80020C111F122C112F123C113F1C1EC0CF0B5
:1009E800010120EE35F001011851D92601011951F4
:1009F800DA22010110EE35F001011851E12601015A
:100A08001951E222E75001011F6F01011F29030B51
:100A1800DF6E010120EE02F001012451D926010107
:100A28002551DA221BC1E1FF1CC1E2FFDFCFE7FF3E
:100A380024C1D9FF25C1DAFF000EDF6E01010101D3
:100A4800225130EF05F030EF05F030EF05F0FC0EE5
:100A580030EF05F030EF05F01200E8CF13F1000E8B
:100A6800AC6E000EAB6E0101010113A13EEF05F063
:100A780040EF05F043EF05F0AC8843EF05F00101C6
:100A8800010113A34AEF05F04CEF05F050EF05F014
:100A9800AC8CAB8C50EF05F00101010113A557EFA9
:100AA80005F059EF05F05CEF05F0AC8E5CEF05F052
:100AB8000101010113A763EF05F065EF05F068EF89
:100AC80005F0AB886BEF05F0AB8A6BEF05F0010121
:100AD800010113A972EF05F074EF05F075EF05F049
:100AE800AC849E980101010113AB7DEF05F07FEF07
:100AF80005F082EF05F0AB8682EF05F001010101F8
:100B080013AD89EF05F08BEF05F08EEF05F09D8AA8
:100B18008FEF05F09D9A9E9A0101010113AF97EF9F
:100B280005F099EF05F09CEF05F09D889DEF05F025
:100B38009D980EC1AFFF01010FC110F110C111F155
:100B48000101126B01011151B06EAC8AAB8E949CFD
:100B5800948EACA8B2EF05F0B4EF05F0BEEF05F047
:100B6800ACBEB9EF05F0BBEF05F0BEEF05F0948C15
:100B7800BEEF05F01200010101011AC11FF10101C8
:100B88000101206B010120EE34F001011851D92632
:100B980001011951DA22DF5001010101216F010120
:100BA800010121510D0DF350010101011825010129
:100BB8000101226FF4500101010119210101236F84
:100BC80022C1D9FF23C1DAFFDF50D8B4EEEF05F018
:100BD800F0EF05F0F5EF05F0FF0E4AEF06F04AEFEB
:100BE80006F0010120EE01F001012251D926010190
:100BF8002351DA2201011AC1DFFF010120EE02F0C0
:100C080001012251D92601012351DA2201011BC118
:100C1800DFFF030E010101012225010101010E6F11
:100C2800000E01010101232101010F6F01010101E2
:100C38001DC111F1010101011CC110F11FC112F107
:100C480020C113F1C1EC0CF0010120EE34F00101D8
:100C58001851D92601011951DA22010110EE34F098
:100C680001011851E12601011951E222E750010161
:100C78001E6F01011E29030BDF6E22C1D9FF23C19C
:100C8800DAFF010EDF6E010E4AEF06F012009EAA8F
:100C980050EF06F052EF06F0BBEF06F020EE0AF038
:100CA8004F50D9265050DA22DF501B6E1B50010DD1
:100CB800F3504F24D96EF4505020DA6E8DEC0EF0BC
:100CC800DF6E20EE0AF04F50D9265050DA22DF2A84
:100CD800FF0E1B6EFF0E1C6E20EE0AF04F50D92639
:100CE8005050DA22DF501D6E1E6A1B501D261C5004
:100CF8001E221D504F24D96E1E505020DA6EDF5030
:100D08000D0AD8B48AEF06F08CEF06F09CEF06F0D7
:100D180020EE0AF04F50D9265050DA220A0EDF6230
:100D280098EF06F09AEF06F0BBEF06F09CEF06F09E
:100D38001B6E1F0E176E1B5050C019F04FC018F0D5
:100D480020EE0AF04F50D9265050DA22DF507AECC4
:100D580010F020EE0AF04F50D9265050DA22000E3B
:100D6800DF6E8DEC0EF0BBEF06F0BBEF06F042A68F
:100D7800C0EF06F0C2EF06F0D1EF06F0AB98AB88F3
:100D88001B6E1E0E176E1B50000E196E000E186E8D
:100D9800000E7AEC10F0D1EF06F01200E8CF2AF13D
:100DA800010120EE0DF00101D951D9260101DA51D6
:100DB800DA22DF50050AD8B4E4EF06F0E6EF06F0D1
:100DC800FFEF06F00101286F090E01010101246FF0
:100DD800010128510101010E01010101266F0101E4
:100DE8002A0E01010101256F010E98EC0FF057EF53
:100DF80007F057EF07F0010120EE7AF00101D95111
:100E0800D9260101DA51DA22000EDF6ED8800101FD
:100E180001012A3501010101296F010120EE10F0BD
:100E28000101D951D9260101DA51DA22010129C17A
:100E3800DFFF010120EE77F00101D951D926010128
:100E4800DA51DA22010EDF6E010120EE78F001019D
:100E5800D951D9260101DA51DA22000EDF6E0101DB
:100E680020EE0AF00101D951D9260101DA51DA221E
:100E7800030EDF6E010120EE0BF00101D951D926D6
:100E88000101DA51DA22000EDF6EC580010120EE81
:100E98000DF00101D951D9260101DA51DA22060EE5
:100EA800DF6E57EF07F01200B6EF07F05BEC0BF0C0
:100EB800DAEF07F0C5AC63EF07F065EF07F069EF0D
:100EC80007F0C1EC10F0DAEF07F0010120EE0DF0A9
:100ED8000101D951D9260101DA51DA22070EDF6E54
:100EE800C586DAEF07F0DAEF07F0DBEC07F0326ED1
:100EF8003204D8A482EF07F084EF07F0DAEF07F0A6
:100F0800010120EE0DF00101D951D9260101DA5174
:100F1800DA220B0EDF6EDAEF07F0DAEF07F00101E5
:100F280020EE0DF00101D951D9260101DA51DA225A
:100F3800070EDF6EC586DAEF07F0C1EC10F0DAEFC6
:100F480007F0010120EE0DF00101D951D926010168
:100F5800DA51DA22050EDF6EDAEF07F0DAEF07F082
:100F6800DAEF07F0010120EE0DF00101D951D92681
:100F78000101DA51DA22DF50060AD8B45AEF07F035
:100F8800010AD8B479EF07F00F0AD8B45EEF07F07A
:100F9800010AD8B4A5EF07F0030AD8B493EF07F015
:100FA800010AD8B4A1EF07F0DAEF07F01200C7B0D2
:100FB800E0EF07F0E2EF07F0E9EF07F0C58AC58830
:100FC800010E56EF08F056EF08F0C9CF31F00101D5
:100FD80020EE0BF00101D951D9260101DA51DA22AC
:100FE800DF50306E3050010DF35001010101D92559
:100FF800D96EF45001010101DA21DA6E31C0DFFF48
:10100800010120EE0BF00101D951D9260101DA5175
:10101800DA22DF2A030EDF6214EF08F016EF08F079
:1010280022EF08F0010120EE0AF00101D951D9267A
:101038000101DA51DA223150030FDF6E010120EE8F
:101048000BF00101D951D9260101DA51DA22DF501A
:10105800306E010120EE0AF00101D951D9260101B3
:10106800DA51DA22DF50305CD8A03DEF08F03FEFCC
:1010780008F046EF08F0C58AC588010E56EF08F05B
:1010880056EF08F0C59AC588010120EE0DF0010160
:10109800D951D9260101DA51DA220A0EDF6E000E83
:1010A80056EF08F01200E8CF1DF0010120EE0DF018
:1010B8000101D951D9260101DA51DA22DF50050A96
:1010C800D8B469EF08F06BEF08F07AEF08F01B6E00
:1010D800090E176E1B50000E196E1D0E186E010EAC
:1010E80065EC10F0CDEF08F0CDEF08F0010120EE2F
:1010F8007AF00101D951D9260101DA51DA22000E1C
:10110800DF6ED8801D341C6E010120EE10F0010145
:10111800D951D9260101DA51DA221CC0DFFF0101B9
:1011280020EE77F00101D951D9260101DA51DA22EE
:10113800010EDF6E010120EE78F00101D951D926A8
:101148000101DA51DA22000EDF6E010120EE0AF009
:101158000101D951D9260101DA51DA22030EDF6ED5
:10116800010120EE0BF00101D951D9260101DA5114
:10117800DA22000EDF6EC580010120EE0DF00101BC
:10118800D951D9260101DA51DA22060EDF6ECDEFE8
:1011980008F0120000013CC080F000010001816BE2
:1011A80020EE34F03A50D9263B50DA22DF500001C5
:1011B8000001826F0001000182510D0DF3503A24A5
:1011C80000010001836FF4503B200001846F83C04D
:1011D800D9FF84C0DAFFDF50D8B4F5EF08F0F7EF95
:1011E80008F0FCEF08F0FF0E40EF09F040EF09F0BF
:1011F800000120EE01F000018351D926000184513D
:10120800DA223CC0DFFF000120EE02F0000183512A
:10121800D92600018451DA223DC0DFFF030E000108
:1012280000018325306E000E000100018421316E1B
:101238003FC033F03EC032F080C034F081C035F09A
:10124800E1EC0EF020EE34F03A50D9263B50DA2289
:1012580010EE34F03A50E1263B50E222E750406E5F
:101268004028030BDF6E83C0D9FF84C0DAFF010E6C
:10127800DF6E010E40EF09F012000DC012F0136A84
:1012880020EE34F00B50D9260C50DA22DF50146EC1
:1012980014500D0DF3500B24156EF4500C20166EDF
:1012A80015C0D9FF16C0DAFFDF50D8B45EEF09F0D9
:1012B80060EF09F065EF09F0FF0E9FEF09F09FEF6F
:1012C80009F020EE01F01550D9261650DA220DC08B
:1012D800DFFF20EE02F01550D9261650DA220EC094
:1012E800DFFF030E1524016E000E1620026E10C0DB
:1012F80004F00FC003F012C005F013C006F0B7ECFD
:101308000EF020EE34F00B50D9260C50DA2210EEF5
:1013180034F00B50E1260C50E222E750116E1128F0
:10132800030BDF6E15C0D9FF16C0DAFF010EDF6EA2
:10133800010E9FEF09F0120066EC0DF001010101AA
:10134800135101011211D8A4ACEF09F0AEEF09F066
:10135800B2EF09F0FDEF09F0FDEF09F00101146F9C
:10136800010E416E01011451BAEF09F00101010E9D
:10137800010101010F6F0101A30E010101010E6FAF
:10138800B5EC0FF00009D8B4CCEF09F0CEEF09F0B6
:10139800D8EF09F00101146F000E416E01011451DC
:1013A800FDEF09F0FDEF09F00201020E0101010154
:1013B8000F6F0201A80E010101010E6FB5EC0FF0CD
:1013C8000009D8B4EAEF09F0ECEF09F0F6EF09F0FC
:1013D8000101146F000E416E01011451FDEF09F077
:1013E800FDEF09F00A0EB2EC10F0BAEF09F0BAEF0F
:1013F80009F012003FEF0AF05BEC0BF057EF0AF030
:10140800C5BC09EF0AF00BEF0AF017EF0AF075EC0C
:101418000FF00009D8B413EF0AF015EF0AF01BEF2C
:101428000AF017EF0AF0C1EC10F057EF0AF05BEC86
:101438000BF0316E3104D8A424EF0AF026EF0AF03D
:1014480057EF0AF0C1EC10F057EF0AF057EF0AF027
:1014580057EF0AF0010120EE0DF00101D951D9260C
:101468000101DA51DA22050EDF6E57EF0AF057EF65
:101478000AF057EF0AF0010120EE0DF00101D951F1
:10148800D9260101DA51DA22DF50060AD8B400EF72
:101498000AF00E0AD8B404EF0AF0010AD8B42EEF05
:1014A8000AF057EF0AF012000101126F000E010155
:1014B8000101136F0101125185EF0AF001010101C9
:1014C8001351010DF350010101010F25D96EF4509C
:1014D800010101011021DA6E010101011351010D11
:1014E8000B0EF326000EF422F3504F24E16EF45055
:1014F8005020E26EDFCFE7FF01010101132B85EFDA
:101508000AF001010101115101010101135DD8A087
:1015180090EF0AF092EF0AF062EF0AF094EF0AF007
:1015280020EE15F04F50D9265050DA22010111C192
:10153800DFFF20EE16F04F50D9265050DA22010E68
:10154800DF6E20EE0BF04F50D9265050DA22DF50D4
:1015580007EC10F09E989D881200010101010FA16F
:10156800B8EF0AF0BAEF0AF0C2EF0AF0000ED0ECBA
:101578000DF0000E01EC0EF0C2EF0AF001010101BE
:101588000FA3C9EF0AF0CBEF0AF0D3EF0AF0010E70
:10159800D0EC0DF0010E01EC0EF0D3EF0AF00101D2
:1015A80001010FA5DAEF0AF0DCEF0AF0E4EF0AF028
:1015B800020ED0EC0DF0020E01EC0EF0E4EF0AF092
:1015C800010101010FA7EBEF0AF0EDEF0AF0F5EFCB
:1015D8000AF0030ED0EC0DF0030E01EC0EF0F5EF5F
:1015E8000AF0010101010FA9FCEF0AF0FEEF0AF071
:1015F80006EF0BF0040ED0EC0DF0040E01EC0EF02B
:1016080006EF0BF0120041660CEF0BF00EEF0BF03B
:1016180012EF0BF05AEF0BF05AEF0BF032EC0EF022
:1016280033503210D8B41BEF0BF01DEF0BF021EF45
:101638000BF05AEF0BF05AEF0BF0F4EC10F03150BE
:101648003010D8A42AEF0BF02CEF0BF030EF0BF092
:101658005AEF0BF05AEF0BF00101010E316E010148
:10166800A30E306E8FEC10F00009D8B43EEF0BF0EB
:1016780040EF0BF044EF0BF05AEF0BF05AEF0BF082
:101688000201020E316E0201A80E306E8FEC10F0CE
:101698000009D8B452EF0BF054EF0BF058EF0BF0F1
:1016A8005AEF0BF05AEF0BF006EC11F012000101A3
:1016B80020EE0DF00101D951D9260101DA51DA22C3
:1016C800060EDF626AEF0BF06CEF0BF079EF0BF0B0
:1016D800010120EE0DF00101D951D9260101DA519D
:1016E800DA22080EDF6E79EF0BF0010120EE78F0B8
:1016F8000101D951D9260101DA51DA22DF50306EC1
:101708003050010D100EF326000EF422F3500101A3
:101718000101D925D96EF45001010101DA21DA6EEF
:10172800DF50C96E010120EE78F00101D951D926A8
:101738000101DA51DA22DF2AC6BEA5EF0BF0A8EFC5
:101748000BF0010EA9EF0BF0000EABEF0BF012003F
:10175800E9CF02F1EACF03F1E1CF04F1E2CF05F1DD
:10176800D9CF06F1DACF07F1F3CF08F1F4CF09F1B9
:10177800F6CF0AF1F7CF0BF1F8CF0CF1F5CF0DF159
:101788009EA6C9EF0BF0CBEF0BF0D0EF0BF09E96B7
:10179800EDEC0FF0D0EF0BF0F2A4D5EF0BF0D7EF94
:1017A8000BF0DCEF0BF0F2940BEC0FF0DCEF0BF02E
:1017B80007EC0BF00DC1F5FF0CC1F8FF0BC1F7FFEB
:1017C8000AC1F6FF09C1F4FF08C1F3FF07C1DAFF38
:1017D80006C1D9FF05C1E2FF04C1E1FF03C1EAFF69
:1017E80002C1E9FF01C1FBFF00C1FAFF11000101BD
:1017F80020EE34F001010E51D92601010F51DA22F1
:10180800000EDF6E010120EE35F001010E51D926E0
:1018180001010F51DA22000EDF6E0101106F000E78
:1018280001010101116F01011051030E01010101B4
:10183800116521EF0CF023EF0CF027EF0CF046EFC9
:101848000CF046EF0CF00101010111510D0DF350A0
:10185800010101010E25D96EF450010101010F218A
:10186800DA6E000EDF6E01010101112B030E01017A
:101878000101116542EF0CF044EF0CF027EF0CF07A
:1018880046EF0CF0120003EE00F06C0EEE6AE8066C
:10189800FDE102EEA8F0360EEE6AE806FDE101EE83
:1018A800A3F0360EEE6AE806FDE100EE41F0090EFF
:1018B800EE6AE806FDE1170EF66E220EF76E000ED0
:1018C800F86E02EEDEF010EE05F00900F5CFEEFF3F
:1018D800E550E150FAE1120EF66E220EF76E000E98
:1018E800F86E00EE4AF010EE05F00900F5CFEEFFB5
:1018F800E550E150FAE1000EF86E00017EEF00F0CD
:10190800F2AC89EF0CF08BEF0CF098EF0CF0000EB6
:1019180001010101116F000E0101106FC0EF0CF001
:10192800C0EF0CF0C0EF0CF0CEEC10F0010101019B
:101938000F5101010E11D8B4A4EF0CF0A6EF0CF072
:10194800B3EF0CF0000E01010101116F000E01014F
:10195800106FC0EF0CF0C0EF0CF0C0EF0CF0000EF1
:1019680001010101116F010E0101106FC0EF0CF0B0
:10197800C0EF0CF0C0EF0CF012000101010111C121
:1019880017F10101010110C116F1010101010FC197
:1019980015F1010101010EC114F1E7EF0CF016C1B8
:1019A800D9FF17C1DAFF14C1E1FF15C1E2FFDFCF8C
:1019B800E7FF01010101164B172B01010101144B2F
:1019C800152BE7EF0CF0010101011207D8A013074E
:1019D80001011229D8B41329D8A4F5EF0CF0F7EFB8
:1019E8000CF0D3EF0CF0F9EF0CF012000101126FBC
:1019F800000E416E010112510201020E01010101A6
:101A08000F6F0201A80E010101010E6FFBEC0BF034
:101A18000101010E010101010F6F0101A30E010176
:101A280001010E6FFBEC0BF00301030E0101010134
:101A38000F6F0301360E010101010E6FFBEC0BF075
:101A48000301030E010101010F6F0301000E0101E3
:101A580001010E6FFBEC0BF01200010101010FC137
:101A6800DAF1010101010EC1D9F1010120EE0AF0FC
:101A78000101D951D9260101DA51DA22000EDF6EAF
:101A8800010120EE0CF00101D951D9260101DA51EA
:101A9800DA22000EDF6E010120EE0DF00101D951AE
:101AA800D9260101DA51DA22050EDF6E010120EE96
:101AB8000FF00101D951D9260101DA51DA22000EBD
:101AC800DF6E120084EC0CF00101010111510101DB
:101AD8001011D8A472EF0DF074EF0DF08FEF0DF028
:101AE800CEEC10F0010101010F5101010E11D8A433
:101AF80080EF0DF082EF0DF08FEF0DF0000E010179
:101B08000101136F010E0101126F9AEF0DF09AEFA8
:101B18000DF09AEF0DF0000E01010101136F000E98
:101B28000101126F9AEF0DF09AEF0DF0120020EEFE
:101B380016F04F50D9265050DA22DFCF03F0010EAD
:101B4800DF260350010D0B0EF326000EF422F3508E
:101B58004F24D96EF4505020DA6EDF50FCEC10F0B0
:101B680020EE16F04F50D9265050DA22DF50036E7F
:101B780020EE15F04F50D9265050DA22DF50035C82
:101B8800D8A0C9EF0DF0CBEF0DF0CFEF0DF09D9879
:101B98009E98CFEF0DF01200E8CF0EF1E7EF0DF0B1
:101BA8008A8000EF0EF08A8200EF0EF08A8400EF40
:101BB8000EF08A8600EF0EF08A8800EF0EF000EF34
:101BC8000EF000EF0EF0010101010E51000AD8B429
:101BD800D4EF0DF0010AD8B4D7EF0DF0030AD8B44A
:101BE800DAEF0DF0010AD8B4DDEF0DF0070AD8B42A
:101BF800E0EF0DF000EF0EF01200E8CF0EF118EF55
:101C08000EF08A9031EF0EF08A9231EF0EF08A943E
:101C180031EF0EF08A9631EF0EF08A9831EF0EF020
:101C280031EF0EF031EF0EF0010101010E51000A03
:101C3800D8B405EF0EF0010AD8B408EF0EF0030A85
:101C4800D8B40BEF0EF0010AD8B40EEF0EF0070A65
:101C5800D8B411EF0EF031EF0EF01200F2AC37EFFE
:101C68000EF039EF0EF043EF0EF0000E336E000E5B
:101C7800326E62EF0EF062EF0EF062EF0EF0F4ECEF
:101C880010F031503010D8B44CEF0EF04EEF0EF08B
:101C980058EF0EF0000E336E000E326E62EF0EF04B
:101CA80062EF0EF062EF0EF0000E336E010E326E30
:101CB80062EF0EF062EF0EF062EF0EF01200E8CF66
:101CC8000EF1010101010E517E0BCD6E01010101E2
:101CD8000EAD71EF0EF073EF0EF076EF0EF0CD8EC5
:101CE80079EF0EF0CD9E79EF0EF0000ECF6E000E5C
:101CF800CE6E9E90010101010EAF85EF0EF087EFC9
:101D08000EF08AEF0EF09D808BEF0EF09D90CD8047
:101D18001200F20E4216ABAC94EF0EF096EF0EF0F6
:101D2800A1EF0EF04290ABA09CEF0EF09EEF0EF0EC
:101D3800A1EF0EF04280A1EF0EF0ABA4A6EF0EF0DB
:101D4800A8EF0EF0A9EF0EF04284ABA2AEEF0EF0B2
:101D5800B0EF0EF0B1EF0EF04286AECF01F00150B9
:101D6800B6EF0EF0120004C00AF003C009F002C07A
:101D780008F001C007F0D1EF0EF009C0D9FF0AC082
:101D8800DAFF07C0E1FF08C0E2FFDFCFE7FF094A3B
:101D98000A2A074A082AD1EF0EF00506D8A0060637
:101DA8000528D8B40628D8A4DCEF0EF0DEEF0EF034
:101DB800C1EF0EF0E0EF0EF0120033C039F032C080
:101DC80038F031C037F030C036F0FBEF0EF038C0D5
:101DD800D9FF39C0DAFF36C0E1FF37C0E2FFDFCFF5
:101DE800E7FF384A392A364A372AFBEF0EF034061D
:101DF800D8A035063428D8B43528D8A406EF0FF073
:101E080008EF0FF0EBEF0EF00AEF0FF01200400EA4
:101E1800316E000E306EEBEC10F00001FD6F010E1C
:101E280000010001FE6F0001FD510001FD6F010E70
:101E380000010001896F0001FD510001000E000141
:101E480000018B6F0001FE0E000100018A6F100E69
:101E58003EEC03F01200E8CF2AF10201020E010164
:101E68000101196F0201A80E01010101186F2AC1B1
:101E78001AF10101010127C11CF10101010126C16B
:101E88001BF10101010129C11EF10101010128C154
:101E98001DF180EC04F051EF0FF01200E8CF2AF1A9
:101EA8000101010E01010101196F0101A30E0101D8
:101EB8000101186F2AC11AF10101010127C11CF1A2
:101EC8000101010126C11BF10101010129C11EF116
:101ED8000101010128C11DF180EC04F074EF0FF03D
:101EE8001200010120EE78F00101D951D926010133
:101EF800DA51DA22010110EE77F00101D951E12619
:101F08000101DA51E222E750DF628DEF0FF08FEF27
:101F18000FF094EF0FF0010E97EF0FF097EF0FF01F
:101F2800000E97EF0FF01200E8CF27F10101010E24
:101F380001010101196F0101A30E01010101186FCF
:101F480027C11AF124C11BF10101010126C11DF1AC
:101F58000101010125C11CF1BFEC05F0B4EF0FF040
:101F68001200010120EE35F001010E51D9260101C0
:101F78000F51DA22DF500101106F010110510D0DD0
:101F8800F350010101010E25D96EF4500101010140
:101F98000F21DA6EDF50D1EF0FF01200E8CF0EF10B
:101FA800010101010E517F0BD56E000ED76E000E98
:101FB800D66EF294010101010EAFE5EF0FF0E7EFE5
:101FC8000FF0EAEF0FF0F28AEBEF0FF0F29AD58EEE
:101FD8001200010120EE7AF00101D951D926010140
:101FE800DA51DA22DF50D8B4FCEF0FF0FEEF0FF031
:101FF80002EF10F0FEEC09F006EF10F058EC07F0D5
:1020080006EF10F01200E8CF0EF1ACAC0EEF10F0B6
:1020180010EF10F01DEF10F0AC9042A216EF10F088
:1020280018EF10F01DEF10F0AC801DEF10F01DEF51
:1020380010F00EC1ADFF1200E8CF01F0ACAC27EFF5
:1020480010F029EF10F036EF10F0AC9042A22FEF0D
:1020580010F031EF10F036EF10F0AC8036EF10F0E2
:1020680036EF10F001C0ADFF1200E8CF88F0010193
:10207800010E3B6E0101A30E3A6E88C03CF085C08C
:102088003DF0000187C03FF0000186C03EF0CEEC75
:1020980008F04FEF10F012001E6E1F0E176E1E5044
:1020A800000E196E000E186E000E7AEC10F0400E3D
:1020B800026E000E016EE2EC10F0100E57EC08F004
:1020C8001200E8CF1AF00101010E0C6E0101A30EF7
:1020D8000B6E1AC00DF017C00EF019C010F018C022
:1020E8000FF041EC09F079EF10F01200E8CF1AF088
:1020F8000201020E0C6E0201A80E0B6E1AC00DF042
:1021080017C00EF019C010F018C00FF041EC09F01C
:102118008EEF10F0120020EE35F03050D9263150F5
:10212800DA22DF50326E32500D0DF3503024D96E62
:10213800F4503120DA6EDF50A2EF10F012000101E6
:102148000FC150F001010EC14FF020EE0AF04F50C0
:10215800D9265050DA22000EDF6E1200E8CF0EF1B9
:10216800FA0E00F0E82EB5EF10F0010101010E2F74
:10217800B4EF10F0C0EF10F01200010120EE0DF0E6
:102188000101D951D9260101DA51DA22090EDF6E8F
:10219800C5841200000EF2AE010E010101010E6F9E
:1021A80001010F6BD8EF10F01200C650F00B0809B0
:1021B800C66EC68AC78E1D0EC86E120001C003F017
:1021C80002C004F004C0CFFF03C0CEFF120030C02D
:1021D80032F031C033F033C0D7FF32C0D6FF12001F
:1021E800000EF2AE010E306E316AFBEF10F01200F5
:1021F800E8CF02F0025020EC10F01200D08EF28EE0
:10220800F28C1200D38E03001200010510D8FE31A3
:042218003233340D1C
:067FF80080F4C5FFFFF15B
:00000001FF
