:040000005DEF00F0C0
:0C000800FACF00F1FBCF01F186EF0AF007
:10001800D8CF1EF0E8CF1FF0E0CF20F0FACF21F0C4
:10002800FBCF22F0E9CF23F0EACF24F0E1CF25F08F
:10003800E2CF26F0D9CF27F0DACF28F0F3CF29F096
:10004800F4CF2AF0F6CF2BF0F7CF2CF0F8CF2DF025
:10005800F5CF2EF09EA033EF00F035EF00F03AEF29
:1000680000F09E90E1EC0EF03AEF00F02EC0F5FFA4
:100078002DC0F8FF2CC0F7FF2BC0F6FF2AC0F4FFF5
:1000880029C0F3FF28C0DAFF27C0D9FF26C0E2FF46
:1000980025C0E1FF24C0EAFF23C0E9FF22C0FBFF1F
:1000A80021C0FAFF20C0E0FF1FC0E8FF1EC0D8FF34
:1000B8001000CBEF0CF0000E02010201016F000EE0
:1000C8000201006F820ED36E9B9C0201020E010199
:1000D80001010F6F0201110E010101010E6FCEEC3B
:1000E8000BF097EC0BF0000E936E000E8A6E910EDB
:1000F80039EC0EF0F50EF8EC0CF09F909F869D867B
:10010800EBEC0EF0000E010101010F6F9B0E0101D7
:100118000E6F7C0EEBEC04F0B886AC8AAB8EAB8825
:100128000EEC0FF098EF00F0D3EC08F00201020E8D
:1001380001010101276F02010F0E01010101266F64
:100148000201020E01010101296F0201030E0101E2
:100158000101286F0A0E99EC0DF002010201106FDF
:100168000201020110AFBBEF00F0BDEF00F051EF4C
:1001780001F074EF01F074EF01F074EF01F051EF4A
:1001880001F074EF01F0000E01010101106F010E82
:1001980001010F6F8BEC09F002010201035105EC1C
:1001A80006F0000E01010101106F020E01010F6F30
:1001B8008BEC09F002010201100501010101286F11
:1001C8000201020E010101012A6F0201040E010160
:1001D8000101296F020102010351B6EC01F0F5EFAC
:1001E80000F001019C6F000E020102010E6F010177
:1001F8009C5113EF01F0020102010E51010D0201A1
:10020800030EF324D96E0201020EF420DA6EDF50D9
:10021800CAEC0EF0020102010E2B13EF01F0FF0EE3
:1002280001019C6FFF0E9D6F020110C29EF101013A
:100238009F6B9EBF9F0701019C5101019E270101F1
:100248009D5101019F23020102010E510101A06F7E
:10025800A16B0101A151800A0101A26F9E51010108
:10026800A05D01019F51800A0101A259D8A03FEF6A
:1002780001F041EF01F0FFEF00F074EF01F074EFCF
:1002880001F003C202F274EF01F074EF01F074EFB1
:1002980001F074EF01F074EF01F0020102010F5157
:1002A800090AD8B4C7EF00F0030AD8B474EF01F014
:1002B8001A0AD8B4D5EF00F0380AD8B4F5EF00F030
:1002C800010AD8B445EF01F0030AD8B474EF01F07D
:1002D800180AD8B474EF01F074EF01F074EF01F06C
:1002E8000201020E01010101276F02010F0E010137
:1002F8000101266F0201020E01010101296F0201AD
:10030800030E01010101286F0A0E76EC0DF00201BF
:100318000201106F0201020110AF95EF01F097EF93
:1003280001F0A5EF01F098EF00F098EF00F098EFDA
:1003380000F0A5EF01F098EF00F098EF00F098EFCB
:1003480000F0020102010F51320AD8B498EF00F010
:1003580098EF00F098EF00F098EF00F098EF00F0B9
:100368005DEF00F0E8CF97F1010120EE0DF00101FB
:10037800D951D9260101DA51DA22DF50050AD8B459
:10038800C8EF01F0CAEF01F046EF02F097C131F172
:10039800000E01010101996F010E0101986F08EF2C
:1003A80002F0FF0E01012B6FFF0E2C6F010198C1A7
:1003B8002DF1010199C12EF101012B5101012D27C8
:1003C80001012C5101012E2301012D5101010101CF
:1003D8002925D96E01012E51010101012A21DA6E68
:1003E8000101310E010101019825E16E0101010EA3
:1003F800010101019921E26EDFCFE7FF010101014F
:10040800984B992B08EF02F00101010128510101D5
:100418002B6F2C6B010E01012B27000E2C230101E1
:1004280001019951800A01012D6F2B510101010130
:10043800985D01012C51800A01012D59D8A027EFA0
:1004480002F029EF02F0D5EF01F02BEF02F00101E5
:100458002B6F090E01010101246F01012B510101CC
:10046800010E01010101266F0101310E0101010197
:10047800256F010101012829FFEC0DF0F7EF02F0CB
:10048800F7EF02F0010120EE7AF00101D951D926E7
:100498000101DA51DA22010EDF6E010101019751E3
:1004A80001019725FE0B01010101966F010120EE64
:1004B80010F00101D951D9260101DA51DA220101DE
:1004C80096C1DFFF000E010101019B6F010E0101C2
:1004D8009A6FAEEF02F0FF0E01012B6FFF0E2C6F2B
:1004E80001019AC12DF101019BC12EF101012B518E
:1004F80001012D2701012C5101012E2301012D514C
:10050800010101012925D96E01012E5101010101C5
:100518002A21DA6E100E010101019A2501012F6FBF
:10052800000E010101019B210101306F01012F51D2
:1005380001010101D925E16E0101305101010101DB
:10054800DA21E26EDFCFE7FF010101019A4B9B2B15
:10055800AEEF02F001010101285101012B6F2C6B54
:10056800010E01012B27000E2C23010101019B51D3
:10057800800A01012D6F2B51010101019A5D0101D2
:100588002C51800A01012D59D8A0CDEF02F0CFEFF0
:1005980002F06FEF02F0D1EF02F0010120EE77F0E8
:1005A8000101D951D9260101DA51DA2201010101EB
:1005B8002829DF6E010120EE78F00101D951D926F2
:1005C8000101DA51DA22000EDF6EC580010120EE4A
:1005D8000DF00101D951D9260101DA51DA22060EAE
:1005E800DF6EF7EF02F01200E8CFF7F0010120EE1E
:1005F8000DF00101D951D9260101DA51DA22DF5073
:10060800050AD8B40AEF03F00CEF03F088EF03F003
:10061800F7C091F0000E00010001F96F010E000112
:10062800F86F4AEF03F0FF0E00018B6FFF0E8C6F1F
:100638000001F8C08DF00001F9C08EF000018B5167
:1006480000018D2700018C5100018E2300018D517E
:10065800000100018925D96E00018E5100010001B9
:100668008A21DA6E0001910E00010001F825E16E81
:100678000001000E00010001F921E26EDFCFE7FF63
:1006880000010001F84BF92B4AEF03F000010001CB
:10069800885100018B6F8C6B010E00018B27000EB7
:1006A8008C2300010001F951800A00018D6F8B51E4
:1006B80000010001F85D00018C51800A00018D598C
:1006C800D8A069EF03F06BEF03F017EF03F06DEFBD
:1006D80003F000018B6F090E00010001856F000116
:1006E8008B510001000E00010001876F0001910E7F
:1006F80000010001866F0001000188296EEC0EF0F0
:1007080039EF04F039EF04F0010120EE7AF001012D
:10071800D951D9260101DA51DA22010EDF6E000122
:100728000001F7510001F725FE0B00010001F66FEB
:10073800010120EE10F00101D951D9260101DA5149
:10074800DA220001F6C0DFFF000E00010001FB6F96
:10075800010E0001FA6FF0EF03F0FF0E00018B6F3E
:10076800FF0E8C6F0001FAC08DF00001FBC08EF007
:1007780000018B5100018D2700018C5100018E234F
:1007880000018D51000100018925D96E00018E51AB
:10079800000100018A21DA6E100E00010001FA251D
:1007A80000018F6F000E00010001FB210001906F16
:1007B80000018F5101010101D925E16E000190511D
:1007C80001010101DA21E26EDFCFE7FF000100013C
:1007D800FA4BFB2BF0EF03F00001000188510001F8
:1007E8008B6F8C6B010E00018B27000E8C23000190
:1007F8000001FB51800A00018D6F8B51000100013F
:10080800FA5D00018C51800A00018D59D8A00FEFC4
:1008180004F011EF04F0B1EF03F013EF04F001015D
:1008280020EE77F00101D951D9260101DA51DA22F7
:10083800000100018829DF6E010120EE78F0010136
:10084800D951D9260101DA51DA22000EDF6EC580AE
:10085800010120EE0DF00101D951D9260101DA512B
:10086800DA22060EDF6E39EF04F01200010120EEE5
:1008780035F001011851D92601011951DA22DF504A
:1008880001010101216F0101010121510D0DF350F9
:1008980001010101182501010101246FF450010132
:1008A800010119210101256F010E24C1D9FF25C1BC
:1008B800DAFFDF6262EF04F064EF04F0E5EF04F0C2
:1008C800010120EE01F001012451D9260101255131
:1008D800DA22DF50010101011A5DD8B076EF04F089
:1008E80078EF04F07DEF04F0FD0EEAEF04F0EAEF94
:1008F80004F0010120EE01F001012451D926010183
:100908002551DA22DF5001011F6F01011F5101013A
:100918000101226F0101236B010101011EC10FF1C9
:10092800010101011DC10EF1030E01010101242580
:1009380001011F6F000E0101010125210101206F36
:100948001FC110F120C111F122C112F123C113F10D
:100958005EEC0BF0010120EE35F001011851D926AB
:1009680001011951DA22010110EE35F00101185187
:10097800E12601011951E222E75001011F6F01012F
:100988001F29030BDF6E010120EE02F00101245143
:10099800D92601012551DA221BC1E1FF1CC1E2FF62
:1009A800DFCFE7FF24C1D9FF25C1DAFF000EDF6ED4
:1009B800010101012251EAEF04F0EAEF04F0EAEF45
:1009C80004F0FC0EEAEF04F0EAEF04F01200E8CFBE
:1009D80013F1000EAC6E000EAB6E0101010113A104
:1009E800F8EF04F0FAEF04F0FDEF04F0AC88FDEF47
:1009F80004F00101010113A304EF05F006EF05F06F
:100A08000AEF05F0AC8CAB8C0AEF05F0010101018F
:100A180013A511EF05F013EF05F016EF05F0AC8EF6
:100A280016EF05F00101010113A71DEF05F01FEFF7
:100A380005F022EF05F0AB8825EF05F0AB8A25EF2E
:100A480005F00101010113A92CEF05F02EEF05F0C7
:100A58002FEF05F0AC849E980101010113AB37EF2D
:100A680005F039EF05F03CEF05F0AB863CEF05F0FB
:100A78000101010113AD43EF05F045EF05F048EF23
:100A880005F09D8A49EF05F09D9A9E9A01010101A2
:100A980013AF51EF05F053EF05F056EF05F09D88C1
:100AA80057EF05F09D980EC1AFFF01010FC110F17E
:100AB80010C111F10101126B01011151B06EAC8A24
:100AC800AB8E949C948EACA86CEF05F06EEF05F09D
:100AD80078EF05F0ACBE73EF05F075EF05F078EF31
:100AE80005F0948C78EF05F01200010101011AC19C
:100AF8001FF101010101206B010120EE34F0010119
:100B08001851D92601011951DA22DF5001010101DA
:100B1800216F0101010121510D0DF3500101010166
:100B2800182501010101226FF45001010101192169
:100B38000101236F22C1D9FF23C1DAFFDF50D8B4E6
:100B4800A8EF05F0AAEF05F0AFEF05F0FF0E04EFF0
:100B580006F004EF06F0010120EE01F00101225138
:100B6800D92601012351DA2201011AC1DFFF01014F
:100B780020EE02F001012251D92601012351DA2287
:100B880001011BC1DFFF030E010101012225010143
:100B980001010E6F000E01010101232101010F6FF8
:100BA800010101011DC111F1010101011CC110F177
:100BB8001FC112F120C113F15EEC0BF0010120EE10
:100BC80034F001011851D92601011951DA22010125
:100BD80010EE34F001011851E12601011951E22209
:100BE800E75001011E6F01011E29030BDF6E22C1B0
:100BF800D9FF23C1DAFF010EDF6E010E04EF06F004
:100C08001200E8CF2AF1010120EE0DF00101D951BF
:100C1800D9260101DA51DA22DF50050AD8B417EFD4
:100C280006F019EF06F032EF06F00101286F090E01
:100C380001010101246F010128510101010E010187
:100C48000101266F01012A0E01010101256F010E24
:100C5800FFEC0DF08AEF06F08AEF06F0010120EEB6
:100C68007AF00101D951D9260101DA51DA22000EB0
:100C7800DF6ED880010101012A3501010101296FC8
:100C8800010120EE10F00101D951D9260101DA51F4
:100C9800DA22010129C1DFFF010120EE77F001010D
:100CA800D951D9260101DA51DA22010EDF6E01018C
:100CB80020EE78F00101D951D9260101DA51DA2262
:100CC800000EDF6E010120EE0AF00101D951D9268C
:100CD8000101DA51DA22030EDF6E010120EE0BF07A
:100CE8000101D951D9260101DA51DA22000EDF6E4D
:100CF800C580010120EE0DF00101D951D92601016D
:100D0800DA51DA22060EDF6E8AEF06F01200E9EFFA
:100D180006F035EC0AF00DEF07F0C5AC96EF06F0DB
:100D280098EF06F09CEF06F0BDEC0EF00DEF07F023
:100D3800010120EE0DF00101D951D9260101DA5146
:100D4800DA22070EDF6EC5860DEF07F00DEF07F00C
:100D58000EEC07F0316E3104D8A4B5EF06F0B7EF0A
:100D680006F00DEF07F0010120EE0DF00101D95159
:100D7800D9260101DA51DA220B0EDF6E0DEF07F0EA
:100D88000DEF07F0010120EE0DF00101D951D92630
:100D98000101DA51DA22070EDF6EC5860DEF07F082
:100DA800BDEC0EF00DEF07F0010120EE0DF0010192
:100DB800D951D9260101DA51DA22050EDF6E0DEF7D
:100DC80007F00DEF07F00DEF07F0010120EE0DF031
:100DD8000101D951D9260101DA51DA22DF50060A78
:100DE800D8B48DEF06F0010AD8B4ACEF06F00F0ABC
:100DF800D8B491EF06F0010AD8B4D8EF06F0030A88
:100E0800D8B4C6EF06F0010AD8B4D4EF06F00DEF57
:100E180007F01200C7B013EF07F015EF07F01CEF4B
:100E280007F0C58AC588010E89EF07F089EF07F03A
:100E3800C9CF30F0010120EE0BF00101D951D926BC
:100E48000101DA51DA22DF502F6E2F50010DF350D5
:100E580001010101D925D96EF45001010101DA21FE
:100E6800DA6E30C0DFFF010120EE0BF00101D9512D
:100E7800D9260101DA51DA22DF2A030EDF6247EFB1
:100E880007F049EF07F055EF07F0010120EE0AF0EF
:100E98000101D951D9260101DA51DA223050030F64
:100EA800DF6E010120EE0BF00101D951D9260101B5
:100EB800DA51DA22DF502F6E010120EE0AF001012B
:100EC800D951D9260101DA51DA22DF502F5CD8A096
:100ED80070EF07F072EF07F079EF07F0C58AC58861
:100EE800010E89EF07F089EF07F0C59AC58801015F
:100EF80020EE0DF00101D951D9260101DA51DA228B
:100F08000A0EDF6E000E89EF07F01200E8CF1DF021
:100F1800010120EE0DF00101D951D9260101DA5164
:100F2800DA22DF50050AD8B49CEF07F09EEF07F0ED
:100F3800ADEF07F01B6E090E176E1B50000E196EF1
:100F48001D0E186E010E85EC0EF000EF08F000EF94
:100F580008F0010120EE7AF00101D951D9260101EA
:100F6800DA51DA22000EDF6ED8801D341C6E0101C2
:100F780020EE10F00101D951D9260101DA51DA2207
:100F88001CC0DFFF010120EE77F00101D951D926FD
:100F98000101DA51DA22010EDF6E010120EE78F04C
:100FA8000101D951D9260101DA51DA22000EDF6E8A
:100FB800010120EE0AF00101D951D9260101DA51C7
:100FC800DA22030EDF6E010120EE0BF00101D95188
:100FD800D9260101DA51DA22000EDF6EC58001013F
:100FE80020EE0DF00101D951D9260101DA51DA229A
:100FF800060EDF6E00EF08F0120000013BC080F023
:1010080000010001816B20EE34F03950D9263A50A6
:10101800DA22DF5000010001826F000100018251D5
:101028000D0DF350392400010001836FF4503A206C
:101038000001846F83C0D9FF84C0DAFFDF50D8B4C1
:1010480028EF08F02AEF08F02FEF08F0FF0E73EFF3
:1010580008F073EF08F0000120EE01F00001835161
:10106800D92600018451DA223BC0DFFF000120EEBF
:1010780002F000018351D92600018451DA223CC0D4
:10108800DFFF030E0001000183252F6E000E000113
:1010980000018421306E3EC032F03DC031F080C086
:1010A80033F081C034F04CEC0DF020EE34F03950C0
:1010B800D9263A50DA2210EE34F03950E1263A5067
:1010C800E222E7503F6E3F28030BDF6E83C0D9FF53
:1010D80084C0DAFF010EDF6E010E73EF08F0120014
:1010E8000DC012F0136A20EE34F00B50D9260C50C4
:1010F800DA22DF50146E14500D0DF3500B24156EC8
:10110800F4500C20166E15C0D9FF16C0DAFFDF5058
:10111800D8B491EF08F093EF08F098EF08F0FF0EBD
:10112800D2EF08F0D2EF08F020EE01F01550D926E2
:101138001650DA220DC0DFFF20EE02F01550D92636
:101148001650DA220EC0DFFF030E1524016E000EC2
:101158001620026E10C004F00FC003F012C005F094
:1011680013C006F022EC0DF020EE34F00B50D92617
:101178000C50DA2210EE34F00B50E1260C50E2222B
:10118800E750116E1128030BDF6E15C0D9FF16C08A
:10119800DAFF010EDF6E010ED2EF08F0120003EC49
:1011A8000CF001010101135101011211D8A4DFEF64
:1011B80008F0E1EF08F0E5EF08F030EF09F030EF64
:1011C80009F00101146F010E446E01011451EDEF95
:1011D80008F00101010E010101010F6F0101A30EC9
:1011E800010101010E6F1CEC0EF00009D8B4FFEFED
:1011F80008F001EF09F00BEF09F00101146F000E80
:10120800446E0101145130EF09F030EF09F002018A
:10121800020E010101010F6F0201C20E010101015D
:101228000E6F1CEC0EF00009D8B41DEF09F01FEF8B
:1012380009F029EF09F00101146F000E446E010155
:10124800145130EF09F030EF09F00A0EAEEC0EF051
:10125800EDEF08F0EDEF08F0120072EF09F035EC51
:101268000AF08AEF09F0C5BC3CEF09F03EEF09F03F
:101278004AEF09F0BCEC0DF00009D8B446EF09F0CC
:1012880048EF09F04EEF09F04AEF09F0BDEC0EF017
:101298008AEF09F035EC0AF0306E3004D8A457EF25
:1012A80009F059EF09F08AEF09F0BDEC0EF08AEF6A
:1012B80009F08AEF09F08AEF09F0010120EE0DF03C
:1012C8000101D951D9260101DA51DA22050EDF6E62
:1012D8008AEF09F08AEF09F08AEF09F0010120EEA0
:1012E8000DF00101D951D9260101DA51DA22DF5076
:1012F800060AD8B433EF09F00E0AD8B437EF09F06C
:10130800010AD8B461EF09F08AEF09F0120001016F
:1013180001010FA192EF09F094EF09F09CEF09F099
:10132800000E38EC0CF0000E69EC0CF09CEF09F0A4
:10133800010101010FA3A3EF09F0A5EF09F0ADEF3B
:1013480009F0010E38EC0CF0010E69EC0CF0ADEF71
:1013580009F0010101010FA5B4EF09F0B6EF09F09A
:10136800BEEF09F0020E38EC0CF0020E69EC0CF03E
:10137800BEEF09F0010101010FA7C5EF09F0C7EFA2
:1013880009F0CFEF09F0030E38EC0CF0030E69EC0E
:101398000CF0CFEF09F0010101010FA9D6EF09F018
:1013A800D8EF09F0E0EF09F0040E38EC0CF0040E69
:1013B80069EC0CF0E0EF09F012004466E6EF09F082
:1013C800E8EF09F0ECEF09F034EF0AF034EF0AF037
:1013D8009AEC0CF032503110D8B4F5EF09F0F7EF71
:1013E80009F0FBEF09F034EF0AF034EF0AF006ECED
:1013F8000FF030502F10D8A404EF0AF006EF0AF0CF
:101408000AEF0AF034EF0AF034EF0AF00101010E96
:10141800306E0101A30E2F6E9AEC0EF00009D8B4BD
:1014280018EF0AF01AEF0AF01EEF0AF034EF0AF08C
:1014380034EF0AF00201020E306E0201C20E2F6E66
:101448009AEC0EF00009D8B42CEF0AF02EEF0AF04F
:1014580032EF0AF034EF0AF034EF0AF012EC0FF032
:101468001200010120EE0DF00101D951D926010128
:10147800DA51DA22060EDF6244EF0AF046EF0AF08C
:1014880053EF0AF0010120EE0DF00101D951D926E0
:101498000101DA51DA22080EDF6E53EF0AF001017A
:1014A80020EE78F00101D951D9260101DA51DA226A
:1014B800DF502F6E2F50010D100EF326000EF42270
:1014C800F35001010101D925D96EF4500101010140
:1014D800DA21DA6EDF50C96E010120EE78F00101E1
:1014E800D951D9260101DA51DA22DF2AC6BE7FEFA7
:1014F8000AF082EF0AF0010E83EF0AF0000E85EF82
:101508000AF01200E9CF02F1EACF03F1E1CF04F1CA
:10151800E2CF05F1D9CF06F1DACF07F1F3CF08F121
:10152800F4CF09F1F6CF0AF1F7CF0BF1F8CF0CF1B0
:10153800F5CF0DF19EA6A3EF0AF0A5EF0AF0AAEFEA
:101548000AF09E9654EC0EF0AAEF0AF0F2A4AFEF60
:101558000AF0B1EF0AF0B6EF0AF0F294DFEC0DF002
:10156800B6EF0AF0E1EC09F00DC1F5FF0CC1F8FF88
:101578000BC1F7FF0AC1F6FF09C1F4FF08C1F3FF69
:1015880007C1DAFF06C1D9FF05C1E2FF04C1E1FFC7
:1015980003C1EAFF02C1E9FF01C1FBFF00C1FAFF75
:1015A8001100010120EE34F001010E51D92601018C
:1015B8000F51DA22000EDF6E010120EE35F0010135
:1015C8000E51D92601010F51DA22000EDF6E0101FA
:1015D800106F000E01010101116F01011051030E7E
:1015E800010101011165FBEF0AF0FDEF0AF001EFBF
:1015F8000BF020EF0BF020EF0BF00101010111516E
:101608000D0DF350010101010E25D96EF4500101B1
:1016180001010F21DA6E000EDF6E01010101112BAD
:10162800030E0101010111651CEF0BF01EEF0BF019
:1016380001EF0BF020EF0BF01200F2AC26EF0BF0ED
:1016480028EF0BF035EF0BF0000E01010101116FCF
:10165800000E0101106F5DEF0BF05DEF0BF05DEF19
:101668000BF0D6EC0EF0010101010F5101010E1132
:10167800D8B441EF0BF043EF0BF050EF0BF0000E36
:1016880001010101116F000E0101106F5DEF0BF0F8
:101698005DEF0BF05DEF0BF0000E01010101116F22
:1016A800010E0101106F5DEF0BF05DEF0BF05DEFC8
:1016B8000BF012000101010111C117F10101010133
:1016C80010C116F1010101010FC115F1010101015C
:1016D8000EC114F184EF0BF016C1D9FF17C1DAFF60
:1016E80014C1E1FF15C1E2FFDFCFE7FF01010101EE
:1016F800164B172B01010101144B152B84EF0BF02E
:10170800010101011207D8A0130701011229D8B459
:101718001329D8A492EF0BF094EF0BF070EF0BF0B5
:1017280096EF0BF012000101126F000E446E0101DA
:1017380012510201020E010101010F6F0201C20ED6
:10174800010101010E6FD5EC0AF00101010E010142
:1017580001010F6F0101A30E010101010E6FD5EC0C
:101768000AF00201020E010101010F6F02018C0E45
:10177800010101010E6FD5EC0AF00301030E01010E
:1017880001010F6F0301000E010101010E6FD5EC7D
:101798000AF01200010101010FC1DAF10101010192
:1017A8000EC1D9F1010120EE0AF00101D951D92663
:1017B8000101DA51DA22000EDF6E010120EE0CF091
:1017C8000101D951D9260101DA51DA22000EDF6E62
:1017D800010120EE0DF00101D951D9260101DA519C
:1017E800DA22050EDF6E010120EE0FF00101D9515A
:1017F800D9260101DA51DA22000EDF6E120021EC3F
:101808000BF001010101115101011011D8A40FEFD2
:101818000CF011EF0CF02CEF0CF0D6EC0EF00101EF
:1018280001010F5101010E11D8A41DEF0CF01FEF9B
:101838000CF02CEF0CF0000E01010101136F010EEA
:101848000101126F37EF0CF037EF0CF037EF0CF0A7
:10185800000E01010101136F000E0101126F37EF35
:101868000CF037EF0CF01200E8CF0EF14FEF0CF050
:101878008A8068EF0CF08A8268EF0CF08A8468EF3F
:101888000CF08A8668EF0CF08A8868EF0CF068EF35
:101898000CF068EF0CF0010101010E51000AD8B4F8
:1018A8003CEF0CF0010AD8B43FEF0CF0030AD8B4AF
:1018B80042EF0CF0010AD8B445EF0CF0070AD8B48F
:1018C80048EF0CF068EF0CF01200E8CF0EF180EF53
:1018D8000CF08A9099EF0CF08A9299EF0CF08A94A8
:1018E80099EF0CF08A9699EF0CF08A9899EF0CF022
:1018F80099EF0CF099EF0CF0010101010E51000A6B
:10190800D8B46DEF0CF0010AD8B470EF0CF0030AEC
:10191800D8B473EF0CF0010AD8B476EF0CF0070ACC
:10192800D8B479EF0CF099EF0CF01200F2AC9FEFFD
:101938000CF0A1EF0CF0ABEF0CF0000E326E000EC5
:10194800316ECAEF0CF0CAEF0CF0CAEF0CF006ECDF
:101958000FF030502F10D8B4B4EF0CF0B6EF0CF0F5
:10196800C0EF0CF0000E326E000E316ECAEF0CF0B4
:10197800CAEF0CF0CAEF0CF0000E326E010E316E99
:10198800CAEF0CF0CAEF0CF0CAEF0CF0120003EE2D
:1019980000F0360EEE6AE806FDE102EE8CF06C0E01
:1019A800EE6AE806FDE101EEA3F0360EEE6AE806FF
:1019B800FDE100EE42F00B0EEE6AE806FDE12A0EAC
:1019C800F66E1E0EF76E000EF86E00EE4DF010EE7D
:1019D80005F00900F5CFEEFFE550E150FAE1000E01
:1019E800F86E00015FEF00F0E8CF0EF10101010190
:1019F8000E517E0BCD6E010101010EAD06EF0DF00B
:101A080008EF0DF00BEF0DF0CD8E0EEF0DF0CD9E23
:101A18000EEF0DF0000ECF6E000ECE6E9E900101FF
:101A280001010EAF1AEF0DF01CEF0DF01FEF0DF0D6
:101A38009D8020EF0DF09D90CD80120004C00AF02B
:101A480003C009F002C008F001C007F03CEF0DF038
:101A580009C0D9FF0AC0DAFF07C0E1FF08C0E2FFEA
:101A6800DFCFE7FF094A0A2A074A082A3CEF0DF0A8
:101A78000506D8A006060528D8B40628D8A447EF36
:101A88000DF049EF0DF02CEF0DF04BEF0DF01200BB
:101A980032C038F031C037F030C036F02FC035F0E2
:101AA80066EF0DF037C0D9FF38C0DAFF35C0E1FF67
:101AB80036C0E2FFDFCFE7FF374A382A354A362AF1
:101AC80066EF0DF03306D8A034063328D8B434288E
:101AD800D8A471EF0DF073EF0DF056EF0DF075EF20
:101AE8000DF01200E8CF2AF10201020E01010101F6
:101AF800196F0201C20E01010101186F2AC11AF102
:101B08000101010127C11CF10101010126C11BF1DD
:101B18000101010129C11EF10101010128C11DF1C5
:101B28003AEC04F098EF0DF01200E8CF2AF1010129
:101B3800010E01010101196F0101A30E010101014B
:101B4800186F2AC11AF10101010127C11CF1010115
:101B5800010126C11BF10101010129C11EF1010189
:101B6800010128C11DF13AEC04F0BBEF0DF01200A1
:101B7800010120EE78F00101D951D9260101DA518D
:101B8800DA22010110EE77F00101D951E1260101B5
:101B9800DA51E222E750DF62D4EF0DF0D6EF0DF014
:101BA800DBEF0DF0010EDEEF0DF0DEEF0DF0000EB5
:101BB800DEEF0DF01200400E306E000E2F6EFDECC1
:101BC8000EF0416E010E00010001FC6F4150416EA4
:101BD800010E00010001886F41500001000E000154
:101BE80000018A6F0001FC0E00010001896F100ED0
:101BF800F8EC02F01200E8CF27F10101010E010113
:101C08000101196F0101A30E01010101186F27C11C
:101C18001AF124C11BF10101010126C11DF10101C5
:101C2800010125C11CF179EC05F01BEF0EF0120043
:101C3800010120EE35F001010E51D92601010F51A5
:101C4800DA22DF500101106F010110510D0DF35020
:101C5800010101010E25D96EF450010101010F2186
:101C6800DA6EDF5038EF0EF01200E8CF0EF1010106
:101C780001010E517F0BD56E000ED76E000ED66E89
:101C8800F294010101010EAF4CEF0EF04EEF0EF091
:101C980051EF0EF0F28A52EF0EF0F29AD58E120042
:101CA800010120EE7AF00101D951D9260101DA515A
:101CB800DA22DF50D8B463EF0EF065EF0EF069EF6B
:101CC8000EF031EC09F06DEF0EF08BEC06F06DEFD5
:101CD8000EF01200E8CF40F00101010E3A6E01014A
:101CE800A30E396E40C03BF085C03CF0000187C0B0
:101CF8003EF0000186C03DF001EC08F084EF0EF0E4
:101D08001200E8CF1AF00101010E0C6E0101A30EBA
:101D18000B6E1AC00DF017C00EF019C010F018C0E5
:101D28000FF074EC08F099EF0EF0120020EE35F089
:101D38002F50D9263050DA22DF50316E31500D0D38
:101D4800F3502F24D96EF4503020DA6EDF50ADEF07
:101D58000EF01200E8CF0EF1FA0E00F0E82EB1EF07
:101D68000EF0010101010E2FB0EF0EF0BCEF0EF0E6
:101D78001200010120EE0DF00101D951D92601010F
:101D8800DA51DA22090EDF6EC5841200E8CF11F1AC
:101D98000101010111C10FF101010101106B8BEC6F
:101DA80009F01200000EF2AE010E010101010E6FE2
:101DB80001010F6BE0EF0EF01200400E026E000EF4
:101DC800016EF4EC0EF0100E8AEC07F01200C6500B
:101DD800F00B0809C66EC68AC78E1D0EC86E1200A3
:101DE80001C003F002C004F004C0CFFF03C0CEFF5F
:101DF80012002FC031F030C032F032C0D7FF31C0EE
:101E0800D6FF1200000EF2AE010E2F6E306A0DEFF3
:101E18000FF01200D08EF28EF28C1200D38E0300D7
:081E28001200010510D8FE00B4
:067FF80080F4C5FFFFF15B
:00000001FF
