:040000007CEF00F0A1
:0C000800FACFDBF0FBCFDCF0D2EF0BF006
:10001800D8CF29F0E8CF2AF0E0CF2BF0FACF2CF098
:10002800FBCF2DF0E9CF2EF0EACF2FF0E1CF30F063
:10003800E2CF31F0D9CF32F0DACF33F0F3CF34F06A
:10004800F4CF35F0F6CF36F0F7CF37F0F8CF38F0F9
:10005800F5CF39F09EA033EF00F035EF00F03AEF1E
:1000680000F09E90B3EC0CF03AEF00F09EAA3FEF40
:1000780000F041EF00F046EF00F09E9A22EC07F006
:1000880046EF00F09EA84BEF00F04DEF00F059EF5F
:1000980000F09DA852EF00F054EF00F059EF00F087
:1000A8009E98C0EC0EF059EF00F039C0F5FF38C04B
:1000B800F8FF37C0F7FF36C0F6FF35C0F4FF34C08D
:1000C800F3FF33C0DAFF32C0D9FF31C0E2FF30C0DE
:1000D800E1FF2FC0EAFF2EC0E9FF2DC0FBFF2CC0B7
:1000E800FAFF2BC0E0FF2AC0E8FF29C0D8FF1000A4
:1000F800F6EF0CF0000E03010301066F000E03017A
:10010800056F820ED36E9B9C0301030E0201020150
:10011800016F0301180E02010201006F51EC11F08A
:100128000301030E02010201016F03012F0E0201F8
:100138000201006F56EC0EF01FEC0EF0000E936EED
:10014800000E8A6E910ED9EC10F0F50E57EC0FF0F8
:100158009F909F9A9F989F869D8692EC11F0000E23
:1001680002010201016F260E0201006F7C0E7CEC79
:1001780005F0BBEC11F08A9EC2EF00F06FEC0AF0BC
:100188000301030E02010201196F0301160E020199
:100198000201186F0301030E020102011B6F030124
:1001A800080E020102011A6F0A0E1FEC10F003017B
:1001B8000301176F0301030117AFE5EF00F0E7EF45
:1001C80000F06EEF01F091EF01F091EF01F091EF87
:1001D80001F06EEF01F091EF01F0000E0201020153
:1001E800026F010E0201016F29EC0BF003010301FC
:1001F8000851A9EC07F001EF01F0000E020102011D
:10020800026F020E0201016F29EC0BF003010301DA
:100218001705020102011A6F0301030E0201020110
:100228001C6F0301090E020102011B6F0301030188
:10023800085147EC02F021EF01F002018E6F000E29
:1002480003010301136F02018E5130EF01F0030126
:100258000301132B30EF01F0FF0E02018E6FFF0E2A
:100268008F6F030117C390F20201916B90BF910742
:1002780002018E510201902702018F510201912340
:100288000301030113510201926F936B0201935111
:10029800800A0201946F90510201925D020191510E
:1002A800800A02019459D8A05CEF01F05EEF01F0DA
:1002B8002BEF01F091EF01F091EF01F008C307F384
:1002C80091EF01F091EF01F091EF01F091EF01F062
:1002D80091EF01F0030103011651090AD8B4F1EFB7
:1002E80000F0030AD8B491EF01F01A0AD8B401EF6C
:1002F80001F0380AD8B421EF01F0010AD8B462EF4E
:1003080001F0030AD8B491EF01F0180AD8B491EFBC
:1003180001F091EF01F091EF01F00301030E0201EA
:100328000201196F0301160E02010201186F030181
:10033800030E020102011B6F0301080E02010201F4
:100348001A6F0A0EFCEC0FF003010301176F03018B
:10035800030117AFB2EF01F0B4EF01F02EEF02F096
:10036800C2EF00F0C2EF00F0C2EF00F02EEF02F093
:10037800C2EF00F0C2EF00F023EEAAF013EE00F097
:10038800050EDECFE6FFE82EC5EF01F002018E6F05
:10039800000E03010301146F02018E5102018E6FDA
:1003A800000E03010301156F02018E5104EF02F0E4
:1003B800030103011551010D0301080EF324D96E41
:1003C8000301030EF420DA6E030103011551010D38
:1003D8000301000EF324E16E0301030EF420E26E24
:1003E800E750DF62FAEF01F0FCEF01F0FFEF01F0F8
:1003F80003010301142B03010301152B04EF02F081
:100408000301030115510301030117BF16EF02F0A1
:10041800FF0A03011725D8B014EF02F016EF02F017
:10042800DCEF01F018EF02F0040E0301030114657C
:1004380020EF02F022EF02F025EF02F0818EC2EFEA
:1004480000F0819EC2EF00F0C2EF00F0C2EF00F0B2
:10045800C2EF00F00301030116510B0AD8B4C2EF32
:1004680000F0140AD8B4C0EF01F02D0AD8B4C2EFD6
:1004780000F0C2EF00F0C2EF00F0C2EF00F0C2EFF0
:1004880000F07CEF00F0E8CF89F2010120EE0DF0DA
:100498000101D751D9260101D851DA22DF50050AC6
:1004A800D8B459EF02F05BEF02F0D7EF02F089C23F
:1004B80023F2000E020102018B6F010E02018A6F06
:1004C80099EF02F0FF0E02011D6FFF0E1E6F020171
:1004D8008AC21FF202018BC220F202011D510201E1
:1004E8001F2702011E510201202302011F51020190
:1004F80002011B25D96E02012051020102011C21B3
:10050800DA6E0201230E020102018A25E16E020160
:10051800020E020102018B21E26EDFCFE7FF02012A
:1005280002018A4B8B2B99EF02F0020102011A514A
:1005380002011D6F1E6B010E02011D27000E1E23F6
:10054800020102018B51800A02011F6F1D51020135
:1005580002018A5D02011E51800A02011F59D8A0BA
:10056800B8EF02F0BAEF02F066EF02F0BCEF02F06B
:1005780002011D6F090E02010201166F02011D51D1
:100588000201020E02010201186F0201230E02018C
:100598000201176F020102011A2965EC10F088EFB9
:1005A80003F088EF03F0010120EE7AF00101D75142
:1005B800D9260101D851DA22010EDF6E02010201AB
:1005C800895102018925FE0B02010201886F010190
:1005D80020EE10F00101D751D9260101D851DA22B5
:1005E800020188C2DFFF000E020102018D6F010EB9
:1005F80002018C6F3FEF03F0FF0E02011D6FFF0E2B
:100608001E6F02018CC21FF202018DC220F202018C
:100618001D5102011F2702011E5102012023020160
:100628001F51020102011B25D96E0201205102014E
:1006380002011C21DA6E100E020102018C25020152
:10064800216F000E020102018D210201226F0201B9
:10065800215101010101D725E16E02012251010159
:100668000101D821E26EDFCFE7FF020102018C4BC6
:100678008D2B3FEF03F0020102011A5102011D6F99
:100688001E6B010E02011D27000E1E23020102012E
:100698008D51800A02011F6F1D51020102018C5DFC
:1006A80002011E51800A02011F59D8A05EEF03F013
:1006B80060EF03F000EF03F062EF03F0010120EEBA
:1006C80077F00101D751D9260101D851DA22020168
:1006D80002011A29DF6E010120EE78F00101D751DD
:1006E800D9260101D851DA22000EDF6EC58001013A
:1006F80020EE0DF00101D751D9260101D851DA2297
:10070800060EDF6E88EF03F01200E8CFD2F1010188
:1007180020EE0DF00101D751D9260101D851DA2276
:10072800DF50050AD8B49BEF03F09DEF03F019EFF3
:1007380004F0D2C16CF1000E01010101D46F010E69
:100748000101D36FDBEF03F0FF0E0001D36FFF0E43
:10075800D46F0101D3C1D5F00101D4C1D6F0000195
:10076800D3510001D5270001D4510001D62300013F
:10077800D55100010001D125D96E0001D6510001E3
:100788000001D221DA6E01016C0E01010101D325AD
:10079800E16E0101010E01010101D421E26EDFCFFA
:1007A800E7FF01010101D34BD42BDBEF03F000017C
:1007B8000001D0510001D36FD46B010E0001D32783
:1007C800000ED42301010101D451800A0001D56F24
:1007D800D35101010101D35D0001D451800A000108
:1007E800D559D8A0FAEF03F0FCEF03F0A8EF03F017
:1007F800FEEF03F00001D36F090E00010001CC6F7A
:100808000001D3510101010E00010001CE6F010169
:100818006C0E00010001CD6F00010001D0299FEC92
:1008280010F0CAEF04F0CAEF04F0010120EE7AF0EC
:100838000101D751D9260101D851DA22010EDF6E04
:1008480001010101D2510101D225FE0B0101010173
:10085800D16F010120EE10F00101D751D926010115
:10086800D851DA220101D1C1DFFF000E01010101D7
:10087800D66F010E0101D56F81EF04F0FF0E000164
:10088800D36FFF0ED46F0101D5C1D5F00101D6C1D8
:10089800D6F00001D3510001D5270001D451000141
:1008A800D6230001D55100010001D125D96E0001E0
:1008B800D65100010001D221DA6E100E01010101AA
:1008C800D5250001D76F000E01010101D6210001D5
:1008D800D86F0001D75101010101D725E16E000150
:1008E800D85101010101D821E26EDFCFE7FF0101F4
:1008F8000101D54BD62B81EF04F000010001D05146
:100908000001D36FD46B010E0001D327000ED4234E
:1009180001010101D651800A0001D56FD3510101AF
:100928000101D55D0001D451800A0001D559D8A034
:10093800A0EF04F0A2EF04F042EF04F0A4EF04F0FB
:10094800010120EE77F00101D751D9260101D851D4
:10095800DA2200010001D029DF6E010120EE78F0D3
:100968000101D751D9260101D851DA22000EDF6ED4
:10097800C580010120EE0DF00101D751D9260101F2
:10098800D851DA22060EDF6ECAEF04F01200020117
:1009980020EE35F002010A51D92602010B51DA2264
:1009A800DF5002010201136F0201020113510D0D04
:1009B800F350020102010A2502010201166FF450E8
:1009C800020102010B210201176F010E16C2D9FFA5
:1009D80017C2DAFFDF62F3EF04F0F5EF04F076EF09
:1009E80005F0020120EE01F002011651D92602019C
:1009F8001751DA22DF50020102010C5DD8B007EF6F
:100A080005F009EF05F00EEF05F0FD0E7BEF05F0A0
:100A18007BEF05F0020120EE01F002011651D92604
:100A280002011751DA22DF500201116F0201115140
:100A380002010201146F0201156B0201020110C2CA
:100A480001F2020102010FC200F2030E02010201CB
:100A580016250201116F000E020102011721020181
:100A6800126F11C202F212C203F214C204F215C2CA
:100A780005F2ADEC0DF0020120EE35F002010A514D
:100A8800D92602010B51DA22020110EE35F00201DB
:100A98000A51E12602010B51E222E7500201116FCF
:100AA80002011129030BDF6E020120EE02F00201A0
:100AB8001651D92602011751DA220DC2E1FF0EC2E2
:100AC800E2FFDFCFE7FF16C2D9FF17C2DAFF000E39
:100AD800DF6E0201020114517BEF05F07BEF05F098
:100AE8007BEF05F0FC0E7BEF05F07BEF05F01200C5
:100AF800E8CF05F2000EAC6E000EAB6E02010201EB
:100B080005A189EF05F08BEF05F08EEF05F0AC88B5
:100B18008EEF05F00201020105A395EF05F097EFAE
:100B280005F09BEF05F0AC8CAB8C9BEF05F0020158
:100B3800020105A5A2EF05F0A4EF05F0A7EF05F067
:100B4800AC8EA7EF05F00201020105A7AEEF05F094
:100B5800B0EF05F0B3EF05F0AB88B6EF05F0AB8A60
:100B6800B6EF05F00201020105A9BDEF05F0BFEFE0
:100B780005F0C0EF05F0AC849E980201020105ABB8
:100B8800C8EF05F0CAEF05F0CDEF05F0AB86CDEF65
:100B980005F00201020105ADD4EF05F0D6EF05F02E
:100BA800D9EF05F09D8ADAEF05F09D9A9E9A020129
:100BB800020105AFE2EF05F0E4EF05F0E7EF05F01D
:100BC8009D88E8EF05F09D9800C2AFFF020101C2C1
:100BD80002F202C203F20201046B02010351B06E79
:100BE800AC8AAB8E949C948EACA8FDEF05F0FFEF19
:100BF80005F009EF06F0ACBE04EF06F006EF06F0CC
:100C080009EF06F0948C09EF06F0120002010201C8
:100C18000CC211F202010201126B020120EE34F043
:100C280002010A51D92602010B51DA22DF500201D2
:100C38000201136F0201020113510D0DF35002015D
:100C480002010A2502010201146FF4500201020197
:100C58000B210201156F14C2D9FF15C2DAFFDF504C
:100C6800D8B439EF06F03BEF06F040EF06F0FF0E80
:100C780095EF06F095EF06F0020120EE01F0020173
:100C88001451D92602011551DA2202010CC2DFFFE4
:100C9800020120EE02F002011451D9260201155179
:100CA800DA2202010DC2DFFF030E02010201142540
:100CB80002010201006F000E02010201152102016A
:100CC800016F020102010FC203F2020102010EC20A
:100CD80002F211C204F212C205F2ADEC0DF00201EB
:100CE80020EE34F002010A51D92602010B51DA2212
:100CF800020110EE34F002010A51E12602010B5103
:100D0800E222E7500201106F02011029030BDF6E87
:100D180014C2D9FF15C2DAFF010EDF6E010E95EF7E
:100D280006F0120000010001C2C0C7F00001000176
:100D3800C86B000120EE34F00001C051D926000133
:100D4800C151DA22DF5000010001C96F0001000122
:100D5800C9510D0DF35000010001C025000100012B
:100D6800CA6FF45000010001C1210001CB6FCAC055
:100D7800D9FFCBC0DAFFDF50D8B4C5EF06F0C7EF14
:100D880006F0CCEF06F0FF0E21EF07F021EF07F099
:100D9800000120EE01F00001CA51D9260001CB5113
:100DA800DA220001C2C0DFFF000120EE02F00001DC
:100DB800CA51D9260001CB51DA220001C3C0DFFF96
:100DC800030E00010001CA2500010001B66F000EE4
:100DD80000010001CB210001B76F00010001C5C06F
:100DE800B9F000010001C4C0B8F0C7C0BAF0C8C06B
:100DF800BBF0E6EC0DF0000120EE34F00001C0512C
:100E0800D9260001C151DA22000110EE34F00001A8
:100E1800C051E1260001C151E222E7500001C66F2E
:100E28000001C629030BDF6ECAC0D9FFCBC0DAFFA9
:100E3800010EDF6E010E21EF07F012009EAA27EFC8
:100E480007F029EF07F092EF07F020EE0AF0535071
:100E5800D9265450DA22DF501B6E1B50010DF35077
:100E68005324D96EF4505420DA6E81EC0FF0DF6E03
:100E780020EE0AF05350D9265450DA22DF2AFF0E0A
:100E88001B6EFF0E1C6E20EE0AF05350D9265450EC
:100E9800DA22DF501D6E1E6A1B501D261C501E22B2
:100EA8001D505324D96E1E505420DA6EDF500D0A9F
:100EB800D8B461EF07F063EF07F073EF07F020EEA7
:100EC8000AF05350D9265450DA220A0EDF626FEF27
:100ED80007F071EF07F092EF07F073EF07F01B6E62
:100EE8001F0E176E1B5054C019F053C018F020EE97
:100EF8000AF05350D9265450DA22DF5027EC11F06B
:100F080020EE0AF05350D9265450DA22000EDF6E34
:100F180081EC0FF092EF07F092EF07F04AA697EFF7
:100F280007F099EF07F0A8EF07F0AB98AB881B6EB6
:100F38001E0E176E1B50000E196E000E186E000E56
:100F480027EC11F0A8EF07F01200E8CF1CF201011E
:100F580020EE0DF00101D751D9260101D851DA222E
:100F6800DF50050AD8B4BBEF07F0BDEF07F0D6EFA6
:100F780007F002011A6F090E02010201166F020141
:100F88001A510201020E02010201186F02011C0E21
:100F980002010201176F010E65EC10F02EEF08F048
:100FA8002EEF08F0010120EE7AF00101D751D92681
:100FB8000101D851DA22000EDF6ED8800201020149
:100FC8001C35020102011B6F010120EE10F0010126
:100FD800D751D9260101D851DA2202011BC2DFFFFD
:100FE800010120EE77F00101D751D9260101D8512E
:100FF800DA22010EDF6E010120EE78F00101D751EF
:10100800D9260101D851DA22000EDF6E010120EE47
:101018000AF00101D751D9260101D851DA22030E6D
:10102800DF6E010120EE0BF00101D751D926010135
:10103800D851DA22000EDF6EC580010120EE0DF0D6
:101048000101D751D9260101D851DA22060EDF6EE7
:101058002EEF08F012008FEF08F07FEC0BF0B3EFE3
:1010680008F0C5AC3AEF08F03CEF08F040EF08F0A4
:101078006FEC11F0B3EF08F0010120EE0DF0010163
:10108800D751D9260101D851DA22070EDF6EC5865D
:10109800B3EF08F0B3EF08F0B4EC08F00001B86F54
:1010A8000001B805D8A45BEF08F05DEF08F0B3EFD6
:1010B80008F0010120EE0DF00101D751D9260101F8
:1010C800D851DA220B0EDF6EB3EF08F0B3EF08F059
:1010D800010120EE0DF00101D751D9260101D851A7
:1010E800DA22070EDF6EC586B3EF08F06FEC11F059
:1010F800B3EF08F0010120EE0DF00101D751D92618
:101108000101D851DA22050EDF6EB3EF08F0B3EF14
:1011180008F0B3EF08F0010120EE0DF00101D751FE
:10112800D9260101D851DA22DF50060AD8B431EFA6
:1011380008F0010AD8B450EF08F00F0AD8B435EF18
:1011480008F0010AD8B47EEF08F0030AD8B46CEFAF
:1011580008F0010AD8B47AEF08F0B3EF08F01200EB
:10116800C7B0B9EF08F0BBEF08F0C2EF08F0C58AC6
:10117800C588010E36EF09F036EF09F0C9CFB7F090
:10118800010120EE0BF00101D751D9260101D851F8
:10119800DA22DF500001B66F0001B651010DF3509D
:1011A80001010101D725D96EF45001010101D821AF
:1011B800DA6E0001B7C0DFFF010120EE0BF001017C
:1011C800D751D9260101D851DA22DF2A030EDF626E
:1011D800F0EF08F0F2EF08F000EF09F0010120EE5F
:1011E8000AF00101D751D9260101D851DA220001AC
:1011F8000001B751030FDF6E010120EE0BF0010172
:10120800D751D9260101D851DA22DF500001B66F33
:10121800010120EE0AF00101D751D9260101D85168
:10122800DA22DF500001B65DD8A01DEF09F01FEFEC
:1012380009F026EF09F0C58AC588010E36EF09F0D6
:1012480036EF09F0C59AC588010120EE0DF00101BD
:10125800D751D9260101D851DA220A0EDF6E000EC5
:1012680036EF09F01200E8CF1DF0010120EE0DF075
:101278000101D751D9260101D851DA22DF50050AD8
:10128800D8B449EF09F04BEF09F05AEF09F01B6E9B
:10129800090E176E1B50000E196E1D0E186E010EEA
:1012A8003CEC11F0ADEF09F0ADEF09F0010120EED3
:1012B8007AF00101D751D9260101D851DA22000E5E
:1012C800DF6ED8801D341C6E010120EE10F0010184
:1012D800D751D9260101D851DA221CC0DFFF0101FC
:1012E80020EE77F00101D751D9260101D851DA2231
:1012F800010EDF6E010120EE78F00101D751D926E9
:101308000101D851DA22000EDF6E010120EE0AF049
:101318000101D751D9260101D851DA22030EDF6E17
:10132800010120EE0BF00101D751D9260101D85156
:10133800DA22000EDF6EC580010120EE0DF00101FA
:10134800D751D9260101D851DA22060EDF6EADEF4A
:1013580009F012004966B3EF09F0B5EF09F0B9EFEB
:1013680009F00FEF0AF00FEF0AF070EC0DF0000132
:101378000001B9510001B811D8B4C5EF09F0C7EFA1
:1013880009F0CBEF09F00FEF0AF00FEF0AF087EC46
:1013980011F000010001B7510001B611D8A4D7EF30
:1013A80009F0D9EF09F0DDEF09F00FEF0AF00FEFC0
:1013B8000AF00101010E00010001B76F0101000EE2
:1013C80000010001B66FBCEC10F00009D8B4EFEFD3
:1013D80009F0F1EF09F0F5EF09F00FEF0AF00FEF60
:1013E8000AF00101010E00010001B76F0101360E7C
:1013F80000010001B66FBCEC10F00009D8B407EF8B
:101408000AF009EF0AF00DEF0AF00FEF0AF00FEFFC
:101418000AF0BFEC11F012000DC012F0136A20EEB2
:1014280034F00B50D9260C50DA22DF50146E1450C9
:101438000D0DF3500B24156EF4500C20166E15C0CC
:10144800D9FF16C0DAFFDF50D8B42DEF0AF02FEF1E
:101458000AF034EF0AF0FF0E6EEF0AF06EEF0AF0B2
:1014680020EE01F01550D9261650DA220DC0DFFF04
:1014780020EE02F01550D9261650DA220EC0DFFFF2
:10148800030E1524016E000E1620026E10C004F023
:101498000FC003F012C005F013C006F0ABEC0FF05C
:1014A80020EE34F00B50D9260C50DA2210EE34F02E
:1014B8000B50E1260C50E222E750116E1128030B65
:1014C800DF6E15C0D9FF16C0DAFF010EDF6E010E00
:1014D8006EEF0AF012008BEC0EF0020102010551CA
:1014E80002010411D8A47BEF0AF07DEF0AF081EF26
:1014F8000AF0CCEF0AF0CCEF0AF00201066F010EF9
:10150800496E0201065189EF0AF00101010E02013C
:101518000201016F0101000E02010201006F82EC5D
:1015280010F00009D8B49BEF0AF09DEF0AF0A7EF7E
:101538000AF00201066F000E496E02010651CCEF57
:101548000AF0CCEF0AF00101010E02010201016F5D
:101558000101360E02010201006F82EC10F0000951
:10156800D8B4B9EF0AF0BBEF0AF0C5EF0AF00201F0
:10157800066F000E496E02010651CCEF0AF0CCEF5F
:101588000AF00A0E60EC11F089EF0AF089EF0AF010
:10159800120010EF0BF07FEC0BF028EF0BF0C5BC3E
:1015A800D8EF0AF0DAEF0AF0E6EF0AF042EC10F0B2
:1015B8000009D8B4E2EF0AF0E4EF0AF0EAEF0AF023
:1015C800E6EF0AF06FEC11F028EF0BF07FEC0BF070
:1015D8000001B76F0001B705D8A4F5EF0AF0F7EFDF
:1015E8000AF028EF0BF06FEC11F028EF0BF028EF62
:1015F8000BF028EF0BF0010120EE0DF00101D7519F
:10160800D9260101D851DA22050EDF6E28EF0BF03A
:1016180028EF0BF028EF0BF0010120EE0DF001018F
:10162800D751D9260101D851DA22DF50060AD8B499
:10163800CFEF0AF00E0AD8B4D3EF0AF0010AD8B4F3
:10164800FFEF0AF028EF0BF012000201020101A1DE
:1016580030EF0BF032EF0BF03AEF0BF0000EF5EC39
:101668000EF0000E26EC0FF03AEF0BF0020102012B
:1016780001A341EF0BF043EF0BF04BEF0BF0010E22
:10168800F5EC0EF0010E26EC0FF04BEF0BF002011B
:10169800020101A552EF0BF054EF0BF05CEF0BF0D9
:1016A800020EF5EC0EF0020E26EC0FF05CEF0BF0DC
:1016B8000201020101A763EF0BF065EF0BF06DEF7C
:1016C8000BF0030EF5EC0EF0030E26EC0FF06DEFA9
:1016D8000BF00201020101A974EF0BF076EF0BF099
:1016E8007EEF0BF0040EF5EC0EF0040E26EC0FF076
:1016F8007EEF0BF01200010120EE0DF00101D75131
:10170800D9260101D851DA22060EDF628EEF0BF0DE
:1017180090EF0BF09DEF0BF0010120EE0DF00101B1
:10172800D751D9260101D851DA22080EDF6E9DEF74
:101738000BF0010120EE78F00101D751D926010103
:10174800D851DA22DF500001B66F0001B651010D01
:10175800100EF326000EF422F35001010101D725E3
:10176800D96EF45001010101D821DA6EDF50C96E3B
:10177800010120EE78F00101D751D9260101D85195
:10178800DA22DF2AC6BECBEF0BF0CEEF0BF0010E4C
:10179800CFEF0BF0000ED1EF0BF01200E9CFDDF028
:1017A800EACFDEF0E1CFDFF0E2CFE0F0D9CFE1F031
:1017B800DACFE2F0F3CFE3F0F4CFE4F0F6CFE5F0E0
:1017C800F7CFE6F0F8CFE7F0F5CFE8F09EA6EFEF19
:1017D8000BF0F1EF0BF0F6EF0BF09E96F4EC10F037
:1017E800F6EF0BF0F2A4FBEF0BF0FDEF0BF002EFBE
:1017F8000CF0F294D5EC0FF002EF0CF0AEEC09F01F
:10180800E8C0F5FFE7C0F8FFE6C0F7FFE5C0F6FF60
:10181800E4C0F4FFE3C0F3FFE2C0DAFFE1C0D9FFA0
:10182800E0C0E2FFDFC0E1FFDEC0EAFFDDC0E9FFA4
:10183800DCC0FBFFDBC0FAFF1100020120EE34F030
:1018480002010051D92602010151DA22000EDF6E91
:10185800020120EE35F002010051D92602010151A2
:10186800DA22000EDF6E0201026F000E0201020191
:10187800036F02010251030E02010201036547EFE3
:101888000CF049EF0CF04DEF0CF06CEF0CF06CEF36
:101898000CF00201020103510D0DF3500201020187
:1018A8000025D96EF450020102010121DA6E000E02
:1018B800DF6E02010201032B030E02010201036520
:1018C80068EF0CF06AEF0CF04DEF0CF06CEF0CF0D9
:1018D8001200056E000E066E05508CEF0CF00650D7
:1018E800010DF3500224D96EF4500320DA6E06502D
:1018F800010D0B0EF326000EF422F3505324E16E73
:10190800F4505420E26EDFCFE7FF062A8CEF0CF08C
:101918000450065CD8A093EF0CF095EF0CF073EF31
:101928000CF097EF0CF020EE15F05350D9265450D8
:10193800DA2204C0DFFF20EE16F05350D9265450A7
:10194800DA22010EDF6E20EE0BF05350D9265450E8
:10195800DA22DF500EEC11F09E989D8812004D2A75
:101968004D04D8A4BAEF0CF0BCEF0CF0D2EF0CF099
:1019780020EE3AF010EE1FF0050EDECFE6FFE82E5F
:10198800C1EF0CF0000E036E1F0E026E1E6E050EE8
:10199800046E1E506DEC0CF0ECEF0CF020EE3FF0F6
:1019A80010EE24F0050EDECFE6FFE82ED7EF0CF0A0
:1019B800000E036E240E026E1E6E050E046E1E507F
:1019C8006DEC0CF01E6E000E4D6E1E50ECEF0CF020
:1019D800400E026E000E016E9BEC11F0100E37ECFB
:1019E80009F0120002EE95F0360EEE6AE806FDE107
:1019F80001EE00F06C0EEE6AE806FDE100EE80F004
:101A0800360EEE6AE806FDE100EE49F00A0EEE6ACF
:101A1800E806FDE1840EF66E230EF76E000EF86EF2
:101A280003EEAAF010EE05F00900F5CFEEFFE55041
:101A3800E150FAE15A0EF66E230EF76E000EF86EBC
:101A480000EE3AF010EE0FF00900F5CFEEFFE5508A
:101A5800E150FAE1000EF86E00017EEF00F0F2AC02
:101A680038EF0DF03AEF0DF047EF0DF0000E0201E0
:101A78000201036F000E0201026F6FEF0DF06FEFAE
:101A88000DF06FEF0DF07CEC11F002010201015135
:101A980002010011D8B453EF0DF055EF0DF062EFCD
:101AA8000DF0000E02010201036F000E0201026F29
:101AB8006FEF0DF06FEF0DF06FEF0DF0000E0201FC
:101AC8000201036F010E0201026F6FEF0DF06FEF5D
:101AD8000DF06FEF0DF01200F2AC75EF0DF077EF2F
:101AE8000DF084EF0DF0000E00010001B96F000E3B
:101AF8000001B86FACEF0DF0ACEF0DF0ACEF0DF0EE
:101B080087EC11F000010001B7510001B611D8B4FB
:101B180090EF0DF092EF0DF09FEF0DF0000E000129
:101B28000001B96F000E0001B86FACEF0DF0ACEF1B
:101B38000DF0ACEF0DF0000E00010001B96F010EC1
:101B48000001B86FACEF0DF0ACEF0DF0ACEF0DF09D
:101B580012000201020103C209F20201020102C2DB
:101B680008F20201020101C207F20201020100C2E9
:101B780006F2D3EF0DF008C2D9FF09C2DAFF06C298
:101B8800E1FF07C2E2FFDFCFE7FF02010201084BD6
:101B9800092B02010201064B072BD3EF0DF00201BE
:101BA80002010407D8A0050702010429D8B40529B1
:101BB800D8A4E1EF0DF0E3EF0DF0BFEF0DF0E5EF86
:101BC8000DF0120000010001B9C0BFF000010001D2
:101BD800B8C0BEF000010001B7C0BDF000010001AF
:101BE800B6C0BCF00CEF0EF0BEC0D9FFBFC0DAFF24
:101BF800BCC0E1FFBDC0E2FFDFCFE7FF000100018D
:101C0800BE4BBF2B00010001BC4BBD2B0CEF0EF0EF
:101C180000010001BA07D8A0BB070001BA29D8B44F
:101C2800BB29D8A41AEF0EF01CEF0EF0F8EF0DF058
:101C38001EEF0EF012000201046F000E496E020141
:101C480004510101010E02010201016F0101360E6A
:101C580002010201006F21EC0CF00101010E0201EA
:101C68000201016F0101000E02010201006F21EC67
:101C78000CF00001000E02010201016F0001800E4C
:101C880002010201006F21EC0CF00201020E0201B8
:101C98000201016F0201950E02010201006F21ECA1
:101CA8000CF012000201010101C2D8F10201010188
:101CB80000C2D7F1010120EE0AF00101D751D9265F
:101CC8000101D851DA22000EDF6E010120EE0CF07E
:101CD8000101D751D9260101D851DA22000EDF6E51
:101CE800010120EE0DF00101D751D9260101D8518B
:101CF800DA22050EDF6E010120EE0FF00101D75147
:101D0800D9260101D851DA22000EDF6E120033EC19
:101D18000DF002010201035102010211D8A497EF4C
:101D28000EF099EF0EF0B4EF0EF07CEC11F002011A
:101D38000201015102010011D8A4A5EF0EF0A7EF8E
:101D48000EF0B4EF0EF0000E02010201056F010E55
:101D58000201046FBFEF0EF0BFEF0EF0BFEF0EF001
:101D6800000E02010201056F000E0201046FBFEFB1
:101D78000EF0BFEF0EF0120020EE16F05350D926E9
:101D88005450DA22DFCF03F0010EDF260350010D95
:101D98000B0EF326000EF422F3505324D96EF450A0
:101DA8005420DA6EDF50B5EC11F020EE16F05350E7
:101DB800D9265450DA22DF50036E20EE15F0535026
:101DC800D9265450DA22DF50035CD8A0EEEF0EF08B
:101DD800F0EF0EF0F4EF0EF09D989E98F4EF0EF0F1
:101DE8001200E8CF00F20CEF0FF08A8025EF0FF019
:101DF8008A8225EF0FF08A8425EF0FF08A8625EF77
:101E08000FF08A8825EF0FF025EF0FF025EF0FF080
:101E1800020102010051000AD8B4F9EF0EF0010ADC
:101E2800D8B4FCEF0EF0030AD8B4FFEF0EF0010AA5
:101E3800D8B402EF0FF0070AD8B405EF0FF025EF7A
:101E48000FF01200E8CF00F23DEF0FF08A9056EF46
:101E58000FF08A9256EF0FF08A9456EF0FF08A9699
:101E680056EF0FF08A9856EF0FF056EF0FF056EF37
:101E78000FF0020102010051000AD8B42AEF0FF056
:101E8800010AD8B42DEF0FF0030AD8B430EF0FF0E1
:101E9800010AD8B433EF0FF0070AD8B436EF0FF0C1
:101EA80056EF0FF01200E8CF00F2020102010051D4
:101EB8007E0BCD6E0201020100AD65EF0FF067EFFA
:101EC8000FF06AEF0FF0CD8E6DEF0FF0CD9E6DEF36
:101ED8000FF0000ECF6E000ECE6E9E900201020132
:101EE80000AF79EF0FF07BEF0FF07EEF0FF09D80E2
:101EF8007FEF0FF09D90CD801200F20E4A16ABAC2A
:101F080088EF0FF08AEF0FF095EF0FF04A90ABA033
:101F180090EF0FF092EF0FF095EF0FF04A8095EFEA
:101F28000FF0ABA49AEF0FF09CEF0FF09DEF0FF0BE
:101F38004A84ABA2A2EF0FF0A4EF0FF0A5EF0FF0C9
:101F48004A86AECF01F00150AAEF0FF0120004C08C
:101F58000AF003C009F002C008F001C007F0C5EF9D
:101F68000FF009C0D9FF0AC0DAFF07C0E1FF08C0B7
:101F7800E2FFDFCFE7FF094A0A2A074A082AC5EF26
:101F88000FF00506D8A006060528D8B40628D8A458
:101F9800D0EF0FF0D2EF0FF0B5EF0FF0D4EF0FF056
:101FA8001200400E00010001B76F000E0001B66F6D
:101FB800A4EC11F00001D96F010E00010001DA6FE5
:101FC8000001D9510001D96F010E00010001D06F45
:101FD8000001D9510001000E00010001D26F00017B
:101FE800DA0E00010001D16F100E89EC03F0120027
:101FF800E8CF1CF20101010E020102010B6F010181
:10200800360E020102010A6F1CC20CF20201020123
:1020180019C20EF20201020118C20DF202010201F8
:102028001BC210F2020102011AC20FF2CBEC04F03B
:102038001EEF10F01200E8CF1CF20101010E0201A0
:1020480002010B6F0101000E020102010A6F1CC29E
:102058000CF20201020119C20EF20201020118C2B9
:102068000DF2020102011BC210F2020102011AC2A2
:102078000FF2CBEC04F041EF10F01200010120EE5A
:1020880078F00101D751D9260101D851DA2201018E
:1020980010EE77F00101D751E1260101D851E22273
:1020A800E750DF625AEF10F05CEF10F061EF10F0CC
:1020B800010E64EF10F064EF10F0000E64EF10F002
:1020C8001200E8CF19F20101010E020102010B6FA3
:1020D8000101000E020102010A6F19C20CF216C2B8
:1020E8000DF20201020118C20FF20201020117C229
:1020F8000EF20AEC06F081EF10F01200020120EE59
:1021080035F002010051D92602010151DA22DF50CF
:102118000201026F020102510D0DF350020102018A
:102128000025D96EF450020102010121DA6EDF5058
:102138009EEF10F01200E8CFCFF00101010E000170
:102148000001C16F0101000E00010001C06FCFC086
:10215800C2F0CCC0C3F000010001CEC0C5F0000140
:102168000001CDC0C4F096EC06F0BBEF10F01200F1
:10217800000120EE35F00001B651D9260001B75113
:10218800DA22DF500001B86F0001B8510D0DF3508D
:1021980000010001B625D96EF45000010001B721F5
:1021A800DA6EDF50D8EF10F01200E8CF00F202012B
:1021B800020100517F0BD56E000ED76E000ED66E51
:1021C800F2940201020100AFECEF10F0EEEF10F014
:1021D800F1EF10F0F28AF2EF10F0F29AD58E1200B9
:1021E800010120EE7AF00101D751D9260101D85119
:1021F800DA22DF50D8B403EF11F005EF11F009EF40
:1022080011F0CDEC0AF00DEF11F02FEC08F00DEF06
:1022180011F01200E8CF01F0ACAC15EF11F017EF98
:1022280011F024EF11F0AC904AA21DEF11F01FEF4E
:1022380011F024EF11F0AC8024EF11F024EF11F02D
:1022480001C0ADFF1200E8CF1AF00101010E0C6EBB
:102258000101360E0B6E1AC00DF017C00EF019C032
:1022680010F018C00FF010EC0AF03BEF11F012005C
:10227800E8CF1AF00101010E0C6E0101000E0B6E81
:102288001AC00DF017C00EF019C010F018C00FF0EA
:1022980010EC0AF050EF11F01200020101C254F0E4
:1022A800020100C253F020EE0AF05350D9265450D0
:1022B800DA22000EDF6E1200E8CF00F2FA0E00F00C
:1022C800E82E63EF11F002010201002F62EF11F016
:1022D8006EEF11F01200010120EE0DF00101D7514F
:1022E800D9260101D851DA22090EDF6EC584120001
:1022F800000EF2AE010E02010201006F0201016B35
:1023080086EF11F01200000EF2AE010E000100017E
:10231800B66F0001B76B91EF11F01200C650F00BC9
:102328000809C66EC68AC78E1D0EC86E120001C087
:1023380003F002C004F004C0CFFF03C0CEFF1200B8
:10234800B6C0B8F0B7C0B9F0B9C0D7FFB8C0D6FFAB
:102358001200313233340D313332340D010510D8C7
:10236800FE00E8CF02F002500EEC11F01200D08E01
:10237800F28EF28C1200D38E030012003132333405
:022388000D0046
:067FF80080F4C5FFFFF15B
:00000001FF
