:040000005DEF00F0C0
:0C000800FACF1AF0FBCF1BF028EF04F039
:10001800D8CF05F0E8CF06F0E0CF07F0FACF08F028
:10002800FBCF09F0E9CF0AF0EACF0BF0E1CF0CF0F3
:10003800E2CF0DF0D9CF0EF0DACF0FF0F3CF10F0FA
:10004800F4CF11F0F6CF12F0F7CF13F0F8CF14F089
:10005800F5CF15F09EA033EF00F035EF00F03AEF42
:1000680000F09E909AEC07F03AEF00F015C0F5FF0B
:1000780014C0F8FF13C0F7FF12C0F6FF11C0F4FF59
:1000880010C0F3FF0FC0DAFF0EC0D9FF0DC0E2FFAA
:100098000CC0E1FF0BC0EAFF0AC0E9FF09C0FBFF83
:1000A80008C0FAFF07C0E0FF06C0E8FF05C0D8FF98
:1000B80010004BEF06F0000E010101010C6F000E5D
:1000C80001010B6F820ED36E9B9C0101010E296EFC
:1000D8000101100E286E97EC06F072EC06F0000E87
:1000E800936E000E8A6E910E44EC07F0F50EBCEC90
:1000F80006F09F909F869D86CBEC07F0000E296E38
:100108009B0E286E7C0E98EC01F0B886AC8AAB8EFC
:10011800AB88FCEC07F091EF00F0DBEC03F0010199
:10012800010E416E01010F0E406E0101010E436E7A
:100138000101000E426E0A0E2DEC07F001010101CB
:100148000E6F010101010EAFACEF00F0AEEF00F051
:10015800C4EF00F0DFEF00F0DFEF00F0DFEF00F0BA
:10016800C4EF00F0DFEF00F000C10DF1DFEF00F0A9
:10017800DFEF00F0DFEF00F0DFEF00F0DFEF00F07F
:10018800010101010F510A0AD8B4DFEF00F0220A79
:10019800D8B4B8EF00F0010AD8B4B8EF00F0030AF9
:1001A800D8B4DFEF00F0180AD8B4DFEF00F0DFEFC3
:1001B80000F0DFEF00F00101010E416E01010F0EAA
:1001C800406E0101010E436E0101000E426E0A0EDF
:1001D80016EC07F0010101010E6F010101010EAFDC
:1001E800F8EF00F0FAEF00F008EF01F091EF00F0FF
:1001F80091EF00F091EF00F008EF01F091EF00F0BF
:1002080091EF00F091EF00F0010101010F51320A66
:10021800D8B491EF00F091EF00F091EF00F091EF7A
:1002280000F091EF00F05DEF00F020EE35F0325075
:10023800D9263350DA22DF503B6E3B500D0DF35078
:1002480032243E6EF45033203F6E010E3EC0D9FF7B
:100258003FC0DAFFDF6233EF01F035EF01F092EFD4
:1002680001F020EE01F03E50D9263F50DA22DF504F
:10027800345CD8B042EF01F044EF01F049EF01F0EF
:10028800FD0E97EF01F097EF01F020EE01F03E50E0
:10029800D9263F50DA22DF50396E39503C6E3D6A1C
:1002A80038C029F037C028F0030E3E24396E000EFE
:1002B8003F203A6E39C02AF03AC02BF03CC02CF0EF
:1002C8003DC02DF0F8EC05F020EE35F03250D9267F
:1002D8003350DA2210EE35F03250E1263350E22264
:1002E800E750396E3928030BDF6E20EE02F03E50DE
:1002F800D9263F50DA2235C0E1FF36C0E2FFDFCF12
:10030800E7FF3EC0D9FF3FC0DAFF000EDF6E3C506A
:1003180097EF01F097EF01F097EF01F0FC0E97EFE0
:1003280001F097EF01F01200E8CF2DF0000EAC6E4F
:10033800000EAB6E2DA0A3EF01F0A5EF01F0A8EF22
:1003480001F0AC88A8EF01F02DA2ADEF01F0AFEFFE
:1003580001F0B3EF01F0AC8CAB8CB3EF01F02DA43E
:10036800B8EF01F0BAEF01F0BDEF01F0AC8EBDEFD0
:1003780001F02DA6C2EF01F0C4EF01F0C7EF01F0C4
:10038800AB88CAEF01F0AB8ACAEF01F02DA8CFEF16
:1003980001F0D1EF01F0D2EF01F0AC849E982DAAC4
:1003A800D8EF01F0DAEF01F0DDEF01F0AB86DDEF19
:1003B80001F02DACE2EF01F0E4EF01F0E7EF01F01E
:1003C8009D8AE8EF01F09D9A9E9A2DAEEEEF01F01E
:1003D800F0EF01F0F3EF01F09D88F4EF01F09D9844
:1003E80028C0AFFF29C02AF02AC02BF02C6A2B5056
:1003F800B06EAC8AAB8E949C948EACA806EF02F0DB
:1004080008EF02F012EF02F0ACBE0DEF02F00FEFB2
:1004180002F012EF02F0948C12EF02F012005BEF80
:1004280002F0C1EC04F078EF02F0C5AC1EEF02F068
:1004380020EF02F024EF02F0C1EC07F078EF02F0B1
:1004480020EE0DF05550D9265650DA22070EDF6EF1
:10045800C58678EF02F078EF02F079EC02F0186EBA
:100468001804D8A43AEF02F03CEF02F078EF02F05B
:10047800C1EC07F078EF02F078EF02F020EE0DF013
:100488005550D9265650DA22070EDF6EC58678EF0A
:1004980002F020EE0DF05550D9265650DA22050EFE
:1004A800DF6E78EF02F078EF02F078EF02F020EEDE
:1004B8000DF05550D9265650DA22DF50060AD8B426
:1004C80015EF02F0010AD8B431EF02F00F0AD8B4E0
:1004D80019EF02F0010AD8B44DEF02F0030AD8B4BC
:1004E80042EF02F078EF02F01200C7B07EEF02F0A0
:1004F80080EF02F087EF02F0C58AC588010EDEEFB3
:1005080002F0DEEF02F0C9CF17F020EE0BF05550E5
:10051800D9265650DA22DF50166E1650010DF350C8
:100528005524D96EF4505620DA6E17C0DFFF20EE3E
:100538000BF05550D9265650DA22DF2A030EDF6217
:10054800A8EF02F0AAEF02F0B3EF02F020EE0AF0F3
:100558005550D9265650DA221750030FDF6E20EE79
:100568000BF05550D9265650DA22DF50166E20EE81
:100578000AF05550D9265650DA22DF50165CD8A01A
:10058800C8EF02F0CAEF02F0D1EF02F0C58AC588C1
:10059800010EDEEF02F0DEEF02F0C59AC58820EE0C
:1005A8000DF05550D9265650DA220A0EDF6E000E8D
:1005B800DEEF02F01200E8CF16F020EE0DF05550F5
:1005C800D9265650DA22DF50050AD8B4EEEF02F0E9
:1005D800F0EF02F0F4EF02F032EF03F032EF03F045
:1005E80020EE7AF05550D9265650DA22000EDF6EEA
:1005F800D8801634176E20EE10F05550D926565074
:10060800DA2217C0DFFF20EE77F05550D926565072
:10061800DA22010EDF6E20EE78F05550D9265650BA
:10062800DA22000EDF6E20EE0AF05550D926565019
:10063800DA22030EDF6E20EE0BF05550D926565005
:10064800DA22000EDF6EC58020EE0DF05550D92657
:100658005650DA22060EDF6E32EF03F0120071EF09
:1006680003F0C1EC04F086EF03F0C5BC3EEF03F0E5
:1006780040EF03F04CEF03F0E0EC06F00009D8B4CB
:1006880048EF03F04AEF03F050EF03F04CEF03F0AC
:10069800C1EC07F086EF03F0C1EC04F0176E170405
:1006A800D8A459EF03F05BEF03F086EF03F0C1EC39
:1006B80007F086EF03F086EF03F086EF03F020EEF5
:1006C8000DF05550D9265650DA22050EDF6E86EF0A
:1006D80003F086EF03F086EF03F020EE0DF055509F
:1006E800D9265650DA22DF50060AD8B435EF03F07F
:1006F8000E0AD8B439EF03F0010AD8B463EF03F057
:1007080086EF03F0120047668CEF03F08EEF03F0DC
:1007180092EF03F0DAEF03F0DAEF03F069EC05F09B
:1007280019501810D8B49BEF03F09DEF03F0A1EF18
:1007380003F0DAEF03F0DAEF03F0EEEC07F017500E
:100748001610D8A4AAEF03F0ACEF03F0B0EF03F053
:10075800DAEF03F0DAEF03F00001000E176E000184
:10076800800E166E86EC07F00009D8B4BEEF03F0D1
:10077800C0EF03F0C4EF03F0DAEF03F0DAEF03F0B1
:100788000001000E176E0001B60E166E86EC07F01B
:100798000009D8B4D2EF03F0D4EF03F0D8EF03F098
:1007A800DAEF03F0DAEF03F000EC08F0120022ECC5
:1007B80006F02D502C10D8A4E4EF03F0E6EF03F078
:1007C800EAEF03F027EF04F027EF04F02E6E010E96
:1007D800476E2E50F0EF03F00001000E296E000165
:1007E800800E286E72EC07F00009D8B4FEEF03F013
:1007F80000EF04F008EF04F02E6E000E476E2E5046
:1008080027EF04F027EF04F00001000E296E000125
:10081800B60E286E72EC07F00009D8B416EF04F093
:1008280018EF04F020EF04F02E6E000E476E2E50E5
:1008380027EF04F027EF04F00A0EAAEC07F0F0EF18
:1008480003F0F0EF03F01200E9CF1CF0EACF1DF03F
:10085800E1CF1EF0E2CF1FF0D9CF20F0DACF21F0A0
:10086800F3CF22F0F4CF23F0F6CF24F0F7CF25F022
:10087800F8CF26F0F5CF27F09EA645EF04F047EF16
:1008880004F04CEF04F09E965BEC07F04CEF04F09C
:10089800F2A451EF04F053EF04F056EF04F0F29491
:1008A800B7EC07F087EC03F027C0F5FF26C0F8FF88
:1008B80025C0F7FF24C0F6FF23C0F4FF22C0F3FFD2
:1008C80021C0DAFF20C0D9FF1FC0E2FF1EC0E1FF30
:1008D8001DC0EAFF1CC0E9FF1BC0FBFF1AC0FAFFDE
:1008E800110002A07AEF04F07CEF04F084EF04F02A
:1008F800000E9AEC05F0000EC9EC05F084EF04F048
:1009080002A289EF04F08BEF04F093EF04F0010EDC
:100918009AEC05F0010EC9EC05F093EF04F002A47F
:1009280098EF04F09AEF04F0A2EF04F0020E9AECAC
:1009380005F0020EC9EC05F0A2EF04F002A6A7EF3D
:1009480004F0A9EF04F0B1EF04F0030E9AEC05F0FF
:10095800030EC9EC05F0B1EF04F002A8B6EF04F0FD
:10096800B8EF04F0C0EF04F0040E9AEC05F0040EA2
:10097800C9EC05F0C0EF04F0120020EE0DF0555060
:10098800D9265650DA22060EDF62CDEF04F0CFEFFB
:1009980004F0D9EF04F020EE0DF05550D92656504A
:1009A800DA22080EDF6ED9EF04F020EE78F0555009
:1009B800D9265650DA22DF50166E1650010D100E49
:1009C800F326000EF422F3505524D96EF450562025
:1009D800DA6EDF50C96E20EE78F05550D9265650A1
:1009E800DA22DF2AC6BEFBEF04F0FEEF04F0010EA8
:1009F800FFEF04F0000E01EF05F0120020EE34F0D6
:100A08002850D9262950DA22000EDF6E20EE35F064
:100A18002850D9262950DA22000EDF6E2A6E000EE1
:100A28002B6E2A50030E2B641CEF05F01EEF05F009
:100A380022EF05F037EF05F037EF05F02B500D0DDD
:100A4800F3502824D96EF4502920DA6E000EDF6E98
:100A58002B2A030E2B6433EF05F035EF05F022EF58
:100A680005F037EF05F01200F2AC3DEF05F03FEF6F
:100A780005F049EF05F0000E2B6E000E2A6E68EFA8
:100A880005F068EF05F068EF05F0E6EC07F029508F
:100A98002810D8B452EF05F054EF05F05EEF05F0DA
:100AA800000E2B6E000E2A6E68EF05F068EF05F059
:100AB80068EF05F0000E2B6E010E2A6E68EF05F048
:100AC80068EF05F068EF05F01200F2AC6EEF05F084
:100AD80070EF05F07AEF05F0000E196E000E186E33
:100AE80099EF05F099EF05F099EF05F0EEEC07F0B6
:100AF80017501610D8B483EF05F085EF05F08FEF87
:100B080005F0000E196E000E186E99EF05F099EFBA
:100B180005F099EF05F0000E196E010E186E99EFA9
:100B280005F099EF05F099EF05F01200E8CF01F014
:100B3800B1EF05F08A80C8EF05F08A82C8EF05F0AA
:100B48008A84C8EF05F08A86C8EF05F08A88C8EF5E
:100B580005F0C8EF05F0C8EF05F00150000AD8B459
:100B68009EEF05F0010AD8B4A1EF05F0030AD8B446
:100B7800A4EF05F0010AD8B4A7EF05F0070AD8B426
:100B8800AAEF05F0C8EF05F01200E8CF01F0E0EF9A
:100B980005F08A90F7EF05F08A92F7EF05F08A944E
:100BA800F7EF05F08A96F7EF05F08A98F7EF05F06A
:100BB800F7EF05F0F7EF05F00150000AD8B4CDEFD4
:100BC80005F0010AD8B4D0EF05F0030AD8B4D3EF82
:100BD80005F0010AD8B4D6EF05F0070AD8B4D9EF62
:100BE80005F0F7EF05F012002BC031F02AC030F005
:100BF80029C02FF028C02EF012EF06F030C0D9FF20
:100C080031C0DAFF2EC0E1FF2FC0E2FFDFCFE7FFE0
:100C1800304A312A2E4A2F2A12EF06F02C06D8A085
:100C28002D062C28D8B42D28D8A41DEF06F01FEFC8
:100C380006F002EF06F021EF06F0120038EC05F09E
:100C48002B502A10D8A42BEF06F02DEF06F042EF18
:100C580006F0E6EC07F029502810D8A436EF06F085
:100C680038EF06F042EF06F0000E2D6E010E2C6EE6
:100C78004AEF06F04AEF06F04AEF06F0000E2D6E36
:100C8800000E2C6E4AEF06F04AEF06F0120001EE55
:100C98008BF06C0EEE6AE806FDE100EE80F06C0E5B
:100CA800EE6AE806FDE100EE45F00B0EEE6AE80696
:100CB800FDE1060EF66E100EF76E000EF86E00EEF1
:100CC80050F010EE05F00900F5CFEEFFE550E150C9
:100CD800FAE1000EF86E00015FEF00F02C6E000ED6
:100CE800476E2C500001000E296E0001B60E286ECA
:100CF80002EC05F00001000E296E0001800E286E3E
:100D080002EC05F00101010E296E0101C10E286EE9
:100D180002EC05F00101010E296E01018B0E286E0F
:100D280002EC05F0120029C056F028C055F020EE5C
:100D38000AF05550D9265650DA22000EDF6E20EE02
:100D48000CF05550D9265650DA22000EDF6E20EEF0
:100D58000DF05550D9265650DA22050EDF6E20EEDA
:100D68000FF05550D9265650DA22000EDF6E1200C9
:100D7800E8CF28F028507E0BCD6E28ACC6EF06F0E1
:100D8800C8EF06F0CBEF06F0CD8ECEEF06F0CD9E85
:100D9800CEEF06F0000ECF6E000ECE6E9E9028AEFF
:100DA800D8EF06F0DAEF06F0DDEF06F09D80DEEF13
:100DB80006F09D90CD80120020EE78F05550D9268F
:100DC8005650DA2210EE77F05550E1265650E222BE
:100DD800E750DF62F2EF06F0F4EF06F0F9EF06F005
:100DE800010EFCEF06F0FCEF06F0000EFCEF06F03B
:100DF8001200E8CF01F0ACAC04EF07F006EF07F003
:100E080013EF07F0AC9048A20CEF07F00EEF07F0D5
:100E180013EF07F0AC8013EF07F013EF07F001C0F2
:100E2800ADFF1200E8CF44F00001000E336E000160
:100E3800B60E326E44C034F041C036F040C035F0D2
:100E480043C038F042C037F019EC01F02CEF07F03E
:100E58001200E8CF44F00001000E336E0001800E4E
:100E6800326E44C034F041C036F040C035F043C063
:100E780038F042C037F019EC01F043EF07F01200E8
:100E8800E8CF28F028507F0BD56E000ED76E000EE5
:100E9800D66EF29428AE53EF07F055EF07F058EFEF
:100EA80007F0F28A59EF07F0F29AD58E120020EE79
:100EB8007AF05550D9265650DA22DF50D8B467EF69
:100EC80007F069EF07F06DEF07F033EC03F071EF0F
:100ED80007F013EC02F071EF07F0120020EE35F086
:100EE8002850D9262950DA22DF502A6E2A500D0DB3
:100EF800F3502824D96EF4502920DA6EDF5085EF9C
:100F080007F0120020EE35F01650D9261750DA22D5
:100F1800DF50186E18500D0DF3501624D96EF4508A
:100F28001720DA6EDF5099EF07F01200000E036EFB
:100F3800040E026E75EC04F0550EF6EC07F0F10E97
:100F4800026E590E016ED4EC07F01200E8CF28F0BB
:100F5800FA0E00F0E82EADEF07F0282EACEF07F000
:100F6800B6EF07F01200400E176E000E166EDDEC9D
:100F780007F04F0EDFEC02F0120020EE0DF0555096
:100F8800D9265650DA22090EDF6EC5841200C650E3
:100F9800F00B0809C66EC68AC78E1D0EC86E1200F1
:100FA80001C003F002C004F004C0CFFF03C0CEFFAD
:100FB800120016C018F017C019F019C0D7FF18C0D2
:100FC800D6FF1200000EF2AE010E286E296AEDEF70
:100FD80007F01200000EF2AE010E166E176AF5EF5A
:100FE80007F01200E8CF02F00250FDEC06F0120004
:100FF800D08EF28EF28C1200D38E030012000105FF
:0410080010D8FE00FE
:067FF80080F4C5FFFFF15B
:00000001FF
