:040000007CEF00F0A1
:0C000800FACFDBF0FBCFDCF0ECEF0BF0EC
:10001800D8CF29F0E8CF2AF0E0CF2BF0FACF2CF098
:10002800FBCF2DF0E9CF2EF0EACF2FF0E1CF30F063
:10003800E2CF31F0D9CF32F0DACF33F0F3CF34F06A
:10004800F4CF35F0F6CF36F0F7CF37F0F8CF38F0F9
:10005800F5CF39F09EA033EF00F035EF00F03AEF1E
:1000680000F09E90CDEC0CF03AEF00F09EAA3FEF26
:1000780000F041EF00F046EF00F09E9A7CEC05F0AE
:1000880046EF00F09EA84BEF00F04DEF00F059EF5F
:1000980000F09DA852EF00F054EF00F059EF00F087
:1000A8009E98DAEC0EF059EF00F039C0F5FF38C031
:1000B800F8FF37C0F7FF36C0F6FF35C0F4FF34C08D
:1000C800F3FF33C0DAFF32C0D9FF31C0E2FF30C0DE
:1000D800E1FF2FC0EAFF2EC0E9FF2DC0FBFF2CC0B7
:1000E800FAFF2BC0E0FF2AC0E8FF29C0D8FF1000A4
:1000F80010EF0DF0000E03010301066F000E03015F
:10010800056F820ED36E9B9C0301030E0201020150
:10011800016F0301180E02010201006F6BEC11F070
:100128000301030E02010201016F03012F0E0201F8
:100138000201006F70EC0EF039EC0EF0000E936EB9
:10014800000E8A6E910EF3EC10F0F50E71EC0FF0C4
:100158009F909F9A9F989F869D86ACEC11F0000E09
:1001680002010201016F260E0201006F7C0E1DECD8
:1001780006F0D5EC11F08A9EC2EF00F089EC0AF087
:100188000301030E02010201196F0301160E020199
:100198000201186F0301030E020102011B6F030124
:1001A800080E020102011A6F0A0E39EC10F0030161
:1001B8000301176F0301030117AFE5EF00F0E7EF45
:1001C80000F06EEF01F091EF01F091EF01F091EF87
:1001D80001F06EEF01F091EF01F0000E0201020153
:1001E800026F010E0201016F43EC0BF003010301E2
:1001F8000851C3EC07F001EF01F0000E0201020103
:10020800026F020E0201016F43EC0BF003010301C0
:100218001705020102011A6F0301030E0201020110
:100228001C6F0301090E020102011B6F0301030188
:10023800085147EC02F021EF01F002018E6F000E29
:1002480003010301136F02018E5130EF01F0030126
:100258000301132B30EF01F0FF0E02018E6FFF0E2A
:100268008F6F030117C390F20201916B90BF910742
:1002780002018E510201902702018F510201912340
:100288000301030113510201926F936B0201935111
:10029800800A0201946F90510201925D020191510E
:1002A800800A02019459D8A05CEF01F05EEF01F0DA
:1002B8002BEF01F091EF01F091EF01F008C307F384
:1002C80091EF01F091EF01F091EF01F091EF01F062
:1002D80091EF01F0030103011651090AD8B4F1EFB7
:1002E80000F0030AD8B491EF01F01A0AD8B401EF6C
:1002F80001F0380AD8B421EF01F0010AD8B462EF4E
:1003080001F0030AD8B491EF01F0180AD8B491EFBC
:1003180001F091EF01F091EF01F00301030E0201EA
:100328000201196F0301160E02010201186F030181
:10033800030E020102011B6F0301080E02010201F4
:100348001A6F0A0E16EC10F003010301176F030170
:10035800030117AFB2EF01F0B4EF01F02EEF02F096
:10036800C2EF00F0C2EF00F0C2EF00F02EEF02F093
:10037800C2EF00F0C2EF00F023EEAAF013EE00F097
:10038800050EDECFE6FFE82EC5EF01F002018E6F05
:10039800000E03010301146F02018E5102018E6FDA
:1003A800000E03010301156F02018E5104EF02F0E4
:1003B800030103011551010D0301080EF324D96E41
:1003C8000301030EF420DA6E030103011551010D38
:1003D8000301000EF324E16E0301030EF420E26E24
:1003E800E750DF62FAEF01F0FCEF01F0FFEF01F0F8
:1003F80003010301142B03010301152B04EF02F081
:100408000301030115510301030117BF16EF02F0A1
:10041800FF0A03011725D8B014EF02F016EF02F017
:10042800DCEF01F018EF02F0040E0301030114657C
:1004380020EF02F022EF02F025EF02F0818EC2EFEA
:1004480000F0819EC2EF00F0C2EF00F0C2EF00F0B2
:10045800C2EF00F00301030116510B0AD8B4C2EF32
:1004680000F0140AD8B4C0EF01F02D0AD8B4C2EFD6
:1004780000F0C2EF00F0C2EF00F0C2EF00F0C2EFF0
:1004880000F07CEF00F0E8CF89F2010120EE0DF0DA
:100498000101D751D9260101D851DA22DF50050AC6
:1004A800D8B459EF02F05BEF02F0D7EF02F089C23F
:1004B80023F2000E020102018B6F010E02018A6F06
:1004C80099EF02F0FF0E02011D6FFF0E1E6F020171
:1004D8008AC21FF202018BC220F202011D510201E1
:1004E8001F2702011E510201202302011F51020190
:1004F80002011B25D96E02012051020102011C21B3
:10050800DA6E0201230E020102018A25E16E020160
:10051800020E020102018B21E26EDFCFE7FF02012A
:1005280002018A4B8B2B99EF02F0020102011A514A
:1005380002011D6F1E6B010E02011D27000E1E23F6
:10054800020102018B51800A02011F6F1D51020135
:1005580002018A5D02011E51800A02011F59D8A0BA
:10056800B8EF02F0BAEF02F066EF02F0BCEF02F06B
:1005780002011D6F090E02010201166F02011D51D1
:100588000201020E02010201186F0201230E02018C
:100598000201176F020102011A297FEC10F088EF9F
:1005A80003F088EF03F0010120EE7AF00101D75142
:1005B800D9260101D851DA22010EDF6E02010201AB
:1005C800895102018925FE0B02010201886F010190
:1005D80020EE10F00101D751D9260101D851DA22B5
:1005E800020188C2DFFF000E020102018D6F010EB9
:1005F80002018C6F3FEF03F0FF0E02011D6FFF0E2B
:100608001E6F02018CC21FF202018DC220F202018C
:100618001D5102011F2702011E5102012023020160
:100628001F51020102011B25D96E0201205102014E
:1006380002011C21DA6E100E020102018C25020152
:10064800216F000E020102018D210201226F0201B9
:10065800215101010101D725E16E02012251010159
:100668000101D821E26EDFCFE7FF020102018C4BC6
:100678008D2B3FEF03F0020102011A5102011D6F99
:100688001E6B010E02011D27000E1E23020102012E
:100698008D51800A02011F6F1D51020102018C5DFC
:1006A80002011E51800A02011F59D8A05EEF03F013
:1006B80060EF03F000EF03F062EF03F0010120EEBA
:1006C80077F00101D751D9260101D851DA22020168
:1006D80002011A29DF6E010120EE78F00101D751DD
:1006E800D9260101D851DA22000EDF6EC58001013A
:1006F80020EE0DF00101D751D9260101D851DA2297
:10070800060EDF6E88EF03F01200E8CFD2F1010188
:1007180020EE0DF00101D751D9260101D851DA2276
:10072800DF50050AD8B49BEF03F09DEF03F019EFF3
:1007380004F0D2C16CF1000E01010101D46F010E69
:100748000101D36FDBEF03F0FF0E0001D36FFF0E43
:10075800D46F0101D3C1D5F00101D4C1D6F0000195
:10076800D3510001D5270001D4510001D62300013F
:10077800D55100010001D125D96E0001D6510001E3
:100788000001D221DA6E01016C0E01010101D325AD
:10079800E16E0101010E01010101D421E26EDFCFFA
:1007A800E7FF01010101D34BD42BDBEF03F000017C
:1007B8000001D0510001D36FD46B010E0001D32783
:1007C800000ED42301010101D451800A0001D56F24
:1007D800D35101010101D35D0001D451800A000108
:1007E800D559D8A0FAEF03F0FCEF03F0A8EF03F017
:1007F800FEEF03F00001D36F090E00010001CC6F7A
:100808000001D3510101010E00010001CE6F010169
:100818006C0E00010001CD6F00010001D029B9EC78
:1008280010F0CAEF04F0CAEF04F0010120EE7AF0EC
:100838000101D751D9260101D851DA22010EDF6E04
:1008480001010101D2510101D225FE0B0101010173
:10085800D16F010120EE10F00101D751D926010115
:10086800D851DA220101D1C1DFFF000E01010101D7
:10087800D66F010E0101D56F81EF04F0FF0E000164
:10088800D36FFF0ED46F0101D5C1D5F00101D6C1D8
:10089800D6F00001D3510001D5270001D451000141
:1008A800D6230001D55100010001D125D96E0001E0
:1008B800D65100010001D221DA6E100E01010101AA
:1008C800D5250001D76F000E01010101D6210001D5
:1008D800D86F0001D75101010101D725E16E000150
:1008E800D85101010101D821E26EDFCFE7FF0101F4
:1008F8000101D54BD62B81EF04F000010001D05146
:100908000001D36FD46B010E0001D327000ED4234E
:1009180001010101D651800A0001D56FD3510101AF
:100928000101D55D0001D451800A0001D559D8A034
:10093800A0EF04F0A2EF04F042EF04F0A4EF04F0FB
:10094800010120EE77F00101D751D9260101D851D4
:10095800DA2200010001D029DF6E010120EE78F0D3
:100968000101D751D9260101D851DA22000EDF6ED4
:10097800C580010120EE0DF00101D751D9260101F2
:10098800D851DA22060EDF6ECAEF04F01200020117
:1009980020EE35F002010A51D92602010B51DA2264
:1009A800DF5002010201136F0201020113510D0D04
:1009B800F350020102010A2502010201166FF450E8
:1009C800020102010B210201176F010E16C2D9FFA5
:1009D80017C2DAFFDF62F3EF04F0F5EF04F076EF09
:1009E80005F0020120EE01F002011651D92602019C
:1009F8001751DA22DF50020102010C5DD8B007EF6F
:100A080005F009EF05F00EEF05F0FD0E7BEF05F0A0
:100A18007BEF05F0020120EE01F002011651D92604
:100A280002011751DA22DF500201116F0201115140
:100A380002010201146F0201156B0201020110C2CA
:100A480001F2020102010FC200F2030E02010201CB
:100A580016250201116F000E020102011721020181
:100A6800126F11C202F212C203F214C204F215C2CA
:100A780005F2C7EC0DF0020120EE35F002010A5133
:100A8800D92602010B51DA22020110EE35F00201DB
:100A98000A51E12602010B51E222E7500201116FCF
:100AA80002011129030BDF6E020120EE02F00201A0
:100AB8001651D92602011751DA220DC2E1FF0EC2E2
:100AC800E2FFDFCFE7FF16C2D9FF17C2DAFF000E39
:100AD800DF6E0201020114517BEF05F07BEF05F098
:100AE8007BEF05F0FC0E7BEF05F07BEF05F01200C5
:100AF8009EAA81EF05F083EF05F006EF06F020EEE1
:100B08000AF05350D9265450DA22DF501B6E1B507E
:100B1800010DF3505324D96EF4505420DA6E9BEC37
:100B28000FF0DF6E20EE0AF05350D9265450DA2227
:100B3800DF2AFF0E1B6EFF0E1C6E20EE0AF05350CC
:100B4800D9265450DA22DF501D6E1E6A1B501D260E
:100B58001C501E221D505324D96E1E505420DA6E8C
:100B68000D0EDF62BAEF05F0BCEF05F0D9EF05F026
:100B78001B6E1F0E176E1B5054C019F053C018F08F
:100B880020EE0AF05350D9265450DA22DF5041ECB7
:100B980011F020EE0AF05350D9265450DA22000EF4
:100BA800DF6E9BEC0FF006EF06F020EE0AF05350D4
:100BB800D9265450DA22090EDF64E5EF05F0E7EF95
:100BC80005F006EF06F01B6E1E0E176E1B5054C084
:100BD80019F053C018F020EE0AF05350D92654509B
:100BE800DA22DF5041EC11F020EE0AF05350D926FA
:100BF8005450DA22000EDF6E06EF06F006EF06F01C
:100C080006EF06F04AA60BEF06F00DEF06F01CEF14
:100C180006F0AB98AB881B6E1E0E176E1B50000EAD
:100C2800196E000E186E000E41EC11F01CEF06F064
:100C38001200E8CF05F2000EAC6E000EAB6E02019A
:100C4800020105A12AEF06F02CEF06F02FEF06F0BF
:100C5800AC882FEF06F00201020105A336EF06F07B
:100C680038EF06F03CEF06F0AC8CAB8C3CEF06F0AE
:100C78000201020105A543EF06F045EF06F048EF33
:100C880006F0AC8E48EF06F00201020105A74FEF0F
:100C980006F051EF06F054EF06F0AB8857EF06F078
:100CA800AB8A57EF06F00201020105A95EEF06F0D4
:100CB80060EF06F061EF06F0AC849E980201020135
:100CC80005AB69EF06F06BEF06F06EEF06F0AB864A
:100CD8006EEF06F00201020105AD75EF06F077EF41
:100CE80006F07AEF06F09D8A7BEF06F09D9A9E9AB1
:100CF8000201020105AF83EF06F085EF06F088EFE9
:100D080006F09D8889EF06F09D9800C2AFFF0201AA
:100D180001C202F202C203F20201046B0201035192
:100D2800B06EAC8AAB8E949C948EACA89EEF06F005
:100D3800A0EF06F0AAEF06F0ACBEA5EF06F0A7EF0D
:100D480006F0AAEF06F0948CAAEF06F01200020152
:100D580002010CC211F202010201126B020120EE23
:100D680034F002010A51D92602010B51DA22DF5070
:100D780002010201136F0201020113510D0DF3501C
:100D8800020102010A2502010201146FF450020156
:100D980002010B210201156F14C2D9FF15C2DAFF37
:100DA800DF50D8B4DAEF06F0DCEF06F0E1EF06F03A
:100DB800FF0E36EF07F036EF07F0020120EE01F0E4
:100DC80002011451D92602011551DA2202010CC27E
:100DD800DFFF020120EE02F002011451D9260201C0
:100DE8001551DA2202010DC2DFFF030E02010201D2
:100DF800142502010201006F000E020102011521F3
:100E08000201016F020102010FC203F20201020195
:100E18000EC202F211C204F212C205F2C7EC0DF0C2
:100E2800020120EE34F002010A51D92602010B51C9
:100E3800DA22020110EE34F002010A51E126020121
:100E48000B51E222E7500201106F02011029030B37
:100E5800DF6E14C2D9FF15C2DAFF010EDF6E010E74
:100E680036EF07F0120000010001C2C0C7F0000110
:100E78000001C86B000120EE34F00001C051D926F2
:100E88000001C151DA22DF5000010001C96F0001E1
:100E98000001C9510D0DF35000010001C0250001EA
:100EA8000001CA6FF45000010001C1210001CB6F9D
:100EB800CAC0D9FFCBC0DAFFDF50D8B466EF07F05D
:100EC80068EF07F06DEF07F0FF0EC2EF07F0C2EF13
:100ED80007F0000120EE01F00001CA51D9260001F7
:100EE800CB51DA220001C2C0DFFF000120EE02F080
:100EF8000001CA51D9260001CB51DA220001C3C032
:100F0800DFFF030E00010001CA2500010001B66FD2
:100F1800000E00010001CB210001B76F00010001A4
:100F2800C5C0B9F000010001C4C0B8F0C7C0BAF02C
:100F3800C8C0BBF000EC0EF0000120EE34F0000158
:100F4800C051D9260001C151DA22000110EE34F057
:100F58000001C051E1260001C151E222E750000121
:100F6800C66F0001C629030BDF6ECAC0D9FFCBC00C
:100F7800DAFF010EDF6E010EC2EF07F01200E8CFB4
:100F88001CF2010120EE0DF00101D751D926010113
:100F9800D851DA22DF50050AD8B4D5EF07F0D7EFD9
:100FA80007F0F0EF07F002011A6F090E02010201C3
:100FB800166F02011A510201020E02010201186F96
:100FC80002011C0E02010201176F010E7FEC10F0E6
:100FD80048EF08F048EF08F0010120EE7AF001012F
:100FE800D751D9260101D851DA22000EDF6ED880F8
:100FF800020102011C35020102011B6F010120EEF2
:1010080010F00101D751D9260101D851DA22020185
:101018001BC2DFFF010120EE77F00101D751D9266D
:101028000101D851DA22010EDF6E010120EE78F0BD
:101038000101D751D9260101D851DA22000EDF6EFD
:10104800010120EE0AF00101D751D9260101D8513A
:10105800DA22030EDF6E010120EE0BF00101D751F9
:10106800D9260101D851DA22000EDF6EC5800101B0
:1010780020EE0DF00101D751D9260101D851DA220D
:10108800060EDF6E48EF08F01200A9EF08F099ECA1
:101098000BF0CDEF08F0C5AC54EF08F056EF08F0B0
:1010A8005AEF08F089EC11F0CDEF08F0010120EEBD
:1010B8000DF00101D751D9260101D851DA22070EC6
:1010C800DF6EC586CDEF08F0CDEF08F0CEEC08F066
:1010D8000001B86F0001B805D8A475EF08F077EFE4
:1010E80008F0CDEF08F0010120EE0DF00101D75115
:1010F800D9260101D851DA220B0EDF6ECDEF08F0A8
:10110800CDEF08F0010120EE0DF00101D751D926ED
:101118000101D851DA22070EDF6EC586CDEF08F03F
:1011280089EC11F0CDEF08F0010120EE0DF001017E
:10113800D751D9260101D851DA22050EDF6ECDEF3D
:1011480008F0CDEF08F0CDEF08F0010120EE0DF02A
:101158000101D751D9260101D851DA22DF50060AF8
:10116800D8B44BEF08F0010AD8B46AEF08F00F0AB8
:10117800D8B44FEF08F0010AD8B498EF08F0030A82
:10118800D8B486EF08F0010AD8B494EF08F0CDEF90
:1011980008F01200C7B0D3EF08F0D5EF08F0DCEF85
:1011A80008F0C58AC588010E50EF09F050EF09F024
:1011B800C9CFB7F0010120EE0BF00101D751D926B4
:1011C8000101D851DA22DF500001B66F0001B65193
:1011D800010DF35001010101D725D96EF450010129
:1011E8000101D821DA6E0001B7C0DFFF010120EE4E
:1011F8000BF00101D751D9260101D851DA22DF2A93
:10120800030EDF620AEF09F00CEF09F01AEF09F09C
:10121800010120EE0AF00101D751D9260101D85168
:10122800DA2200010001B751030FDF6E010120EE41
:101238000BF00101D751D9260101D851DA22DF502C
:101248000001B66F010120EE0AF00101D751D9263D
:101258000101D851DA22DF500001B65DD8A037EF7E
:1012680009F039EF09F040EF09F0C58AC588010E89
:1012780050EF09F050EF09F0C59AC588010120EE3A
:101288000DF00101D751D9260101D851DA220A0EF1
:10129800DF6E000E50EF09F01200E8CF1DF00101DB
:1012A80020EE0DF00101D751D9260101D851DA22DB
:1012B800DF50050AD8B463EF09F065EF09F074EF61
:1012C80009F01B6E090E176E1B50000E196E1D0ECD
:1012D800186E010E56EC11F0C7EF09F0C7EF09F0D0
:1012E800010120EE7AF00101D751D9260101D85128
:1012F800DA22000EDF6ED8801D341C6E010120EE4C
:1013080010F00101D751D9260101D851DA221CC0A9
:10131800DFFF010120EE77F00101D751D926010145
:10132800D851DA22010EDF6E010120EE78F00101BA
:10133800D751D9260101D851DA22000EDF6E0101FA
:1013480020EE0AF00101D751D9260101D851DA223D
:10135800030EDF6E010120EE0BF00101D751D926F3
:101368000101D851DA22000EDF6EC580010120EE9E
:101378000DF00101D751D9260101D851DA22060E04
:10138800DF6EC7EF09F012004966CDEF09F0CFEF25
:1013980009F0D3EF09F029EF0AF029EF0AF08AECF7
:1013A8000DF000010001B9510001B811D8B4DFEF08
:1013B80009F0E1EF09F0E5EF09F029EF0AF029EF6C
:1013C8000AF0A1EC11F000010001B7510001B611BB
:1013D800D8A4F1EF09F0F3EF09F0F7EF09F029EFDE
:1013E8000AF029EF0AF00101010E00010001B76FB0
:1013F8000101000E00010001B66FD6EC10F00009E3
:10140800D8B409EF0AF00BEF0AF00FEF0AF029EF52
:101418000AF029EF0AF00101010E00010001B76F7F
:101428000101360E00010001B66FD6EC10F000097C
:10143800D8B421EF0AF023EF0AF027EF0AF029EFDA
:101448000AF029EF0AF0D9EC11F012000DC012F0E1
:10145800136A20EE34F00B50D9260C50DA22DF50F4
:10146800146E14500D0DF3500B24156EF4500C200F
:10147800166E15C0D9FF16C0DAFFDF50D8B447EF93
:101488000AF049EF0AF04EEF0AF0FF0E88EF0AF073
:1014980088EF0AF020EE01F01550D9261650DA220E
:1014A8000DC0DFFF20EE02F01550D9261650DA22C3
:1014B8000EC0DFFF030E1524016E000E1620026E0B
:1014C80010C004F00FC003F012C005F013C006F0FE
:1014D800C5EC0FF020EE34F00B50D9260C50DA2270
:1014E80010EE34F00B50E1260C50E222E750116E5A
:1014F8001128030BDF6E15C0D9FF16C0DAFF010EE5
:10150800DF6E010E88EF0AF01200A5EC0EF0020162
:101518000201055102010411D8A495EF0AF097EFD2
:101528000AF09BEF0AF0E6EF0AF0E6EF0AF0020194
:10153800066F010E496E02010651A3EF0AF0010180
:10154800010E02010201016F0101000E02010201F8
:10155800006F9CEC10F00009D8B4B5EF0AF0B7EFB3
:101568000AF0C1EF0AF00201066F000E496E02018F
:101578000651E6EF0AF0E6EF0AF00101010E02015A
:101588000201016F0101360E02010201006F9CEC9D
:1015980010F00009D8B4D3EF0AF0D5EF0AF0DFEF66
:1015A8000AF00201066F000E496E02010651E6EFCD
:1015B8000AF0E6EF0AF00A0E7AEC11F0A3EF0AF04F
:1015C800A3EF0AF012002AEF0BF099EC0BF042EFB0
:1015D8000BF0C5BCF2EF0AF0F4EF0AF000EF0BF0E5
:1015E8005CEC10F00009D8B4FCEF0AF0FEEF0AF04A
:1015F80004EF0BF000EF0BF089EC11F042EF0BF069
:1016080099EC0BF00001B76F0001B705D8A40FEFF4
:101618000BF011EF0BF042EF0BF089EC11F042EFF9
:101628000BF042EF0BF042EF0BF0010120EE0DF052
:101638000101D751D9260101D851DA22050EDF6EF2
:1016480042EF0BF042EF0BF042EF0BF0010120EEFE
:101658000DF00101D751D9260101D851DA22DF5006
:10166800060AD8B4E9EF0AF00E0AD8B4EDEF0AF08A
:10167800010AD8B419EF0BF042EF0BF01200020187
:10168800020101A14AEF0BF04CEF0BF054EF0BF005
:10169800000E0FEC0FF0000E40EC0FF054EF0BF0C3
:1016A8000201020101A35BEF0BF05DEF0BF065EFA8
:1016B8000BF0010E0FEC0FF0010E40EC0FF065EF90
:1016C8000BF00201020101A56CEF0BF06EEF0BF0BD
:1016D80076EF0BF0020E0FEC0FF0020E40EC0FF05D
:1016E80076EF0BF00201020101A77DEF0BF07FEF0F
:1016F8000BF087EF0BF0030E0FEC0FF0030E40EC2E
:101708000FF087EF0BF00201020101A98EEF0BF039
:1017180090EF0BF098EF0BF0040E0FEC0FF0040EA7
:1017280040EC0FF098EF0BF01200010120EE0DF0E5
:101738000101D751D9260101D851DA22060EDF62FC
:10174800A8EF0BF0AAEF0BF0B7EF0BF0010120EEBA
:101758000DF00101D751D9260101D851DA22080E1E
:10176800DF6EB7EF0BF0010120EE78F00101D751E1
:10177800D9260101D851DA22DF500001B66F0001E5
:10178800B651010D100EF326000EF422F35001019C
:101798000101D725D96EF45001010101D821DA6E73
:1017A800DF50C96E010120EE78F00101D751D9262A
:1017B8000101D851DA22DF2AC6BEE5EF0BF0E8EFC7
:1017C8000BF0010EE9EF0BF0000EEBEF0BF012003F
:1017D800E9CFDDF0EACFDEF0E1CFDFF0E2CFE0F0F5
:1017E800D9CFE1F0DACFE2F0F3CFE3F0F4CFE4F0D1
:1017F800F6CFE5F0F7CFE6F0F8CFE7F0F5CFE8F071
:101808009EA609EF0CF00BEF0CF010EF0CF09E9673
:101818000EEC11F010EF0CF0F2A415EF0CF017EF2E
:101828000CF01CEF0CF0F294EFEC0FF01CEF0CF046
:10183800C8EC09F0E8C0F5FFE7C0F8FFE6C0F7FF1D
:10184800E5C0F6FFE4C0F4FFE3C0F3FFE2C0DAFF4F
:10185800E1C0D9FFE0C0E2FFDFC0E1FFDEC0EAFF80
:10186800DDC0E9FFDCC0FBFFDBC0FAFF11000201AD
:1018780020EE34F002010051D92602010151DA228A
:10188800000EDF6E020120EE35F002010051D9266C
:1018980002010151DA22000EDF6E0201026F000E12
:1018A80002010201036F02010251030E020102014B
:1018B800036561EF0CF063EF0CF067EF0CF086EF57
:1018C8000CF086EF0CF00201020103510D0DF350EC
:1018D800020102010025D96EF45002010201012122
:1018E800DA6E000EDF6E02010201032B030E020105
:1018F8000201036582EF0CF084EF0CF067EF0CF047
:1019080086EF0CF01200056E000E066E0550A6EF6D
:101918000CF00650010DF3500224D96EF450032048
:10192800DA6E0650010D0B0EF326000EF422F3506A
:101938005324E16EF4505420E26EDFCFE7FF062A0D
:10194800A6EF0CF00450065CD8A0ADEF0CF0AFEF9A
:101958000CF08DEF0CF0B1EF0CF020EE15F05350B9
:10196800D9265450DA2204C0DFFF20EE16F0535077
:10197800D9265450DA22010EDF6E20EE0BF05350B8
:10198800D9265450DA22DF5028EC11F09E989D8811
:1019980012004D2A4D04D8A4D4EF0CF0D6EF0CF069
:1019A800ECEF0CF020EE3AF010EE1FF0050EDECF53
:1019B800E6FFE82EDBEF0CF0000E036E1F0E026E42
:1019C8001E6E050E046E1E5087EC0CF006EF0DF02F
:1019D80020EE3FF010EE24F0050EDECFE6FFE82EF5
:1019E800F1EF0CF0000E036E240E026E1E6E050E53
:1019F800046E1E5087EC0CF01E6E000E4D6E1E50CD
:101A080006EF0DF0400E026E000E016EB5EC11F0FF
:101A1800100E51EC09F0120002EE95F0360EEE6A47
:101A2800E806FDE101EE00F06C0EEE6AE806FDE165
:101A380000EE80F0360EEE6AE806FDE100EE49F0B1
:101A48000A0EEE6AE806FDE1B80EF66E230EF76E92
:101A5800000EF86E03EEAAF010EE05F00900F5CFBF
:101A6800EEFFE550E150FAE18E0EF66E230EF76EAA
:101A7800000EF86E00EE3AF010EE0FF00900F5CF08
:101A8800EEFFE550E150FAE1000EF86E00017EEF3E
:101A980000F0F2AC52EF0DF054EF0DF061EF0DF0E5
:101AA800000E02010201036F000E0201026F89EFAE
:101AB8000DF089EF0DF089EF0DF096EC11F00201B1
:101AC8000201015102010011D8B46DEF0DF06FEF62
:101AD8000DF07CEF0DF0000E02010201036F000E05
:101AE8000201026F89EF0DF089EF0DF089EF0DF01B
:101AF800000E02010201036F010E0201026F89EF5D
:101B08000DF089EF0DF089EF0DF01200F2AC8FEFB8
:101B18000DF091EF0DF09EEF0DF0000E00010001A9
:101B2800B96F000E0001B86FC6EF0DF0C6EF0DF0EB
:101B3800C6EF0DF0A1EC11F000010001B751000152
:101B4800B611D8B4AAEF0DF0ACEF0DF0B9EF0DF067
:101B5800000E00010001B96F000E0001B86FC6EF5A
:101B68000DF0C6EF0DF0C6EF0DF0000E00010001FC
:101B7800B96F010E0001B86FC6EF0DF0C6EF0DF09A
:101B8800C6EF0DF012000201020103C209F20201C0
:101B9800020102C208F20201020101C207F20201B7
:101BA800020100C206F2EDEF0DF008C2D9FF09C22A
:101BB800DAFF06C2E1FF07C2E2FFDFCFE7FF02015B
:101BC8000201084B092B02010201064B072BEDEF1E
:101BD8000DF0020102010407D8A00507020104293B
:101BE800D8B40529D8A4FBEF0DF0FDEF0DF0D9EF1F
:101BF8000DF0FFEF0DF0120000010001B9C0BFF0B9
:101C080000010001B8C0BEF000010001B7C0BDF07E
:101C180000010001B6C0BCF026EF0EF0BEC0D9FF2F
:101C2800BFC0DAFFBCC0E1FFBDC0E2FFDFCFE7FF06
:101C380000010001BE4BBF2B00010001BC4BBD2BB6
:101C480026EF0EF000010001BA07D8A0BB0700017B
:101C5800BA29D8B4BB29D8A434EF0EF036EF0EF069
:101C680012EF0EF038EF0EF012000201046F000EB2
:101C7800496E020104510101010E02010201016FC6
:101C88000101360E02010201006F3BEC0CF001016C
:101C9800010E02010201016F0101000E02010201A1
:101CA800006F3BEC0CF00001000E02010201016F15
:101CB8000001800E02010201006F3BEC0CF00201F2
:101CC800020E02010201016F0201950E02010201DA
:101CD800006F3BEC0CF012000201010101C2D8F1C7
:101CE8000201010100C2D7F1010120EE0AF0010151
:101CF800D751D9260101D851DA22000EDF6E010131
:101D080020EE0CF00101D751D9260101D851DA2271
:101D1800000EDF6E010120EE0DF00101D751D9262A
:101D28000101D851DA22050EDF6E010120EE0FF015
:101D38000101D751D9260101D851DA22000EDF6EF0
:101D480012004DEC0DF002010201035102010211D3
:101D5800D8A4B1EF0EF0B3EF0EF0CEEF0EF096EC84
:101D680011F002010201015102010011D8A4BFEFD4
:101D78000EF0C1EF0EF0CEEF0EF0000E02010201E0
:101D8800056F010E0201046FD9EF0EF0D9EF0EF0C6
:101D9800D9EF0EF0000E02010201056F000E0201DC
:101DA800046FD9EF0EF0D9EF0EF0120020EE16F006
:101DB8005350D9265450DA22DFCF03F0010EDF2624
:101DC8000350010D0B0EF326000EF422F35053249A
:101DD800D96EF4505420DA6EDF50CFEC11F020EEBB
:101DE80016F05350D9265450DA22DF50036E20EEF5
:101DF80015F05350D9265450DA22DF50035CD8A08E
:101E080008EF0FF00AEF0FF00EEF0FF09D989E9875
:101E18000EEF0FF01200E8CF00F226EF0FF08A80E5
:101E28003FEF0FF08A823FEF0FF08A843FEF0FF009
:101E38008A863FEF0FF08A883FEF0FF03FEF0FF0F1
:101E48003FEF0FF0020102010051000AD8B413EF6E
:101E58000FF0010AD8B416EF0FF0030AD8B419EF3F
:101E68000FF0010AD8B41CEF0FF0070AD8B41FEF1F
:101E78000FF03FEF0FF01200E8CF00F257EF0FF02E
:101E88008A9070EF0FF08A9270EF0FF08A9470EFDB
:101E98000FF08A9670EF0FF08A9870EF0FF070EFDE
:101EA8000FF070EF0FF0020102010051000AD8B4E0
:101EB80044EF0FF0010AD8B447EF0FF0030AD8B483
:101EC8004AEF0FF0010AD8B44DEF0FF0070AD8B463
:101ED80050EF0FF070EF0FF01200E8CF00F20201A0
:101EE800020100517E0BCD6E0201020100AD7FEFB1
:101EF8000FF081EF0FF084EF0FF0CD8E87EF0FF02A
:101F0800CD9E87EF0FF0000ECF6E000ECE6E9E9026
:101F18000201020100AF93EF0FF095EF0FF098EF79
:101F28000FF09D8099EF0FF09D90CD801200F20E7A
:101F38004A16ABACA2EF0FF0A4EF0FF0AFEF0FF023
:101F48004A90ABA0AAEF0FF0ACEF0FF0AFEF0FF095
:101F58004A80AFEF0FF0ABA4B4EF0FF0B6EF0FF07D
:101F6800B7EF0FF04A84ABA2BCEF0FF0BEEF0FF053
:101F7800BFEF0FF04A86AECF01F00150C4EF0FF06B
:101F8800120004C00AF003C009F002C008F001C042
:101F980007F0DFEF0FF009C0D9FF0AC0DAFF07C06A
:101FA800E1FF08C0E2FFDFCFE7FF094A0A2A074A34
:101FB800082ADFEF0FF00506D8A006060528D8B4D2
:101FC8000628D8A4EAEF0FF0ECEF0FF0CFEF0FF0F0
:101FD800EEEF0FF01200400E00010001B76F000E87
:101FE8000001B66FBEEC11F00001D96F010E0001BF
:101FF8000001DA6F0001D9510001D96F010E00010B
:102008000001D06F0001D9510001000E000100014C
:10201800D26F0001DA0E00010001D16F100E89ECB9
:1020280003F01200E8CF1CF20101010E02010201C7
:102038000B6F0101360E020102010A6F1CC20CF27D
:102048000201020119C20EF20201020118C20DF2C8
:10205800020102011BC210F2020102011AC20FF2B0
:10206800CBEC04F038EF10F01200E8CF1CF20101BD
:10207800010E020102010B6F0101000E02010201B3
:102088000A6F1CC20CF20201020119C20EF202010F
:10209800020118C20DF2020102011BC210F2020174
:1020A80002011AC20FF2CBEC04F05BEF10F0120041
:1020B800010120EE78F00101D751D9260101D8514C
:1020C800DA22010110EE77F00101D751E126010172
:1020D800D851E222E750DF6274EF10F076EF10F08B
:1020E8007BEF10F0010E7EEF10F07EEF10F0000E87
:1020F8007EEF10F01200E8CF19F20101010E020183
:1021080002010B6F0101000E020102010A6F19C2E0
:102118000CF216C20DF20201020118C20FF20201FE
:10212800020117C20EF2ABEC06F09BEF10F01200A2
:10213800020120EE35F002010051D92602010151B9
:10214800DA22DF500201026F020102510D0DF35035
:10215800020102010025D96EF45002010201012199
:10216800DA6EDF50B8EF10F01200E8CFCFF00101BF
:10217800010E00010001C16F0101000E0001000104
:10218800C06FCFC0C2F0CCC0C3F000010001CEC008
:10219800C5F000010001CDC0C4F037EC07F0D5EF61
:1021A80010F01200000120EE35F00001B651D926DA
:1021B8000001B751DA22DF500001B86F0001B851B1
:1021C8000D0DF35000010001B625D96EF450000141
:1021D8000001B721DA6EDF50F2EF10F01200E8CFFD
:1021E80000F20201020100517F0BD56E000ED76E7E
:1021F800000ED66EF2940201020100AF06EF11F054
:1022080008EF11F00BEF11F0F28A0CEF11F0F29ACF
:10221800D58E1200010120EE7AF00101D751D9269E
:102228000101D851DA22DF50D8B41DEF11F01FEFA9
:1022380011F023EF11F0E7EC0AF027EF11F049EC69
:1022480008F027EF11F01200E8CF01F0ACAC2FEF47
:1022580011F031EF11F03EEF11F0AC904AA237EFD8
:1022680011F039EF11F03EEF11F0AC803EEF11F0B4
:102278003EEF11F001C0ADFF1200E8CF1AF00101E6
:10228800010E0C6E0101360E0B6E1AC00DF017C050
:102298000EF019C010F018C00FF02AEC0AF055EF34
:1022A80011F01200E8CF1AF00101010E0C6E0101C5
:1022B800000E0B6E1AC00DF017C00EF019C010F00A
:1022C80018C00FF02AEC0AF06AEF11F012000201B0
:1022D80001C254F0020100C253F020EE0AF053503C
:1022E800D9265450DA22000EDF6E1200E8CF00F231
:1022F800FA0E00F0E82E7DEF11F002010201002F26
:102308007CEF11F088EF11F01200010120EE0DF0C2
:102318000101D751D9260101D851DA22090EDF6E01
:10232800C5841200000EF2AE010E02010201006F18
:102338000201016BA0EF11F01200000EF2AE010EC7
:1023480000010001B66F0001B76BABEF11F012008E
:10235800C650F00B0809C66EC68AC78E1D0EC86E19
:10236800120001C003F002C004F004C0CFFF03C094
:10237800CEFF1200B6C0B8F0B7C0B9F0B9C0D7FFE9
:10238800B8C0D6FF1200313233340D313332340D38
:10239800010510D8FE00E8CF02F0025028EC11F039
:1023A8001200D08EF28EF28C1200D38E030012002F
:0623B800313233340D0048
:067FF80080F4C5FFFFF15B
:00000001FF
