:0400000051EF00F0CC
:0C000800FACF46F0FBCF47F0D8EF07F02E
:10001800D8CF01F0E8CF02F0E0CF03F0FACF04F038
:10002800FBCF05F0E9CF06F0EACF07F0E1CF08F003
:10003800E2CF09F0D9CF0AF0DACF0BF0F3CF0CF00A
:10004800F4CF0DF0F6CF0EF0F7CF0FF0F8CF10F099
:10005800F5CF11F011C0F5FF10C0F8FF0FC0F7FF82
:100068000EC0F6FF0DC0F4FF0CC0F3FF0BC0DAFFA3
:100078000AC0D9FF09C0E2FF08C0E1FF07C0EAFFD4
:1000880006C0E9FF05C0FBFF04C0FAFF03C0E0FF9C
:1000980002C0E8FF01C0D8FF1000A1EF09F03C6ED4
:1000A800000E456E3C503C6E000E406E3C503C6E5F
:1000B800000E446E3C503C6E000E436E3C503C6E4D
:1000C800000E416E3C50C6AC25D0C69C010120EE06
:1000D8000CF001010051D92601010151DA22050E67
:1000E800DF6E3C6E010E416E3C50010120EE0EF0B9
:1000F80001010051D92601010151DA22DF2A01014B
:1001080020EE0DF001010051D92601010151DA223A
:10011800040EDF6EC7A006D0C9CF42F03C6E010EB8
:10012800456E3C504166A2D18BD1C7A69FD14550A0
:100138002AEC06F0010120EE0CF001010051D9264D
:1001480001010151DA22080EDF6290D13C6E000EE7
:10015800456E3C503C6E010E436E65D1C7A82AD04F
:10016800010120EE0BF001010051D92601010151D6
:10017800DA22DF2A4550D8B458D1C7BA05D03C6E28
:10018800010E446E3C5051D1010120EE0EF00101E8
:100198000051D92601010151DA22DF2A010120EE9E
:1001A8000DF001010051D92601010151DA22060E94
:1001B800DF6E3BD14550D8B459D1010120EE0BF088
:1001C80001010051D92601010151DA22DF2AC7BAFB
:1001D80019D0C7B40BD0010120EE0CF00101005179
:1001E800D92601010151DA22070E75D0010120EE4E
:1001F8000CF001010051D92601010151DA22080E43
:10020800DF6E0AD1010120EE0EF001010051D9265E
:1002180001010151DA22DF2A010120EE0CF001016F
:100228000051D92601010151DA22050EDF6E0101C4
:1002380020EE0DF001010051D92601010151DA2209
:10024800060E49D0010120EE1AF001010051D9260D
:1002580001010151DA22DF503C6E010120EE19F054
:1002680001010051D92601010151DA22DF503C5C1D
:10027800D8B0DBD0010E3BEC0BF0010E59EC0BF0C3
:10028800010120EE1AF001010051D92601010151A6
:10029800DA22DF503C6E3C50010D0F0EF326000EA3
:1002A800F422F350010101010025D96EF450010137
:1002B80001010121DA6EDF50C96E010120EE1AF04A
:1002C80001010051D92601010151DA22DF2A3C6ED1
:1002D800010E406EA8D0DF6EC9D0C7A859D0010161
:1002E80020EE0BF001010051D92601010151DA225B
:1002F800DF2A4550D8B447D0C7AA24D0010120EE40
:100308000AF001010051D92601010151DA22DF501A
:100318003C6E3C50010DF350010101010025D96EDE
:10032800F450010101010121DA6E42C0DFFF010131
:1003380020EE0AF001010051D92601010151DA220B
:10034800DF2A21D0010120EE0EF001010051D9264B
:1003580001010151DA22DF2A010120EE0DF001012D
:100368000051D92601010151DA22060EDF6E010182
:1003780020EE0CF001010051D92601010151DA22C9
:10038800050EDF6E52D03C6E010E446E3C504DD0CF
:100398004550D8B46BD0010120EE0BF0010100519B
:1003A800D92601010151DA22DF2AC7AA24D0010186
:1003B80020EE0AF001010051D92601010151DA228B
:1003C800DF503C6E3C50010DF35001010101002546
:1003D800D96EF450010101010121DA6E42C0DFFF3C
:1003E800010120EE0AF001010051D9260101015155
:1003F800DA22DF2A3BD0C7A4C7D6010120EE0CF0D1
:1004080001010051D92601010151DA22080EDF6EDF
:100418003C6E010E446E3C503C6E010E436E3C50E7
:100428003C6E000E456E3C5021D0010120EE0CF0D0
:1004380001010051D92601010151DA22050E4BD7DD
:10044800010120EE0CF001010051D92601010151F2
:10045800DA22DF50050AD8B468D6030AD8B47ED6A3
:10046800010AD8B43AD70F0AD8B4ECD6456603D0F7
:100478004050D8B408D0040E3BEC0BF0040E59ECF5
:100488000BF0C6A8C688010120EE0AF00101005150
:10049800D92601010151DA22080EDF6422D0446610
:1004A80020D0010120EE0CF001010051D9260101F4
:1004B8000151DA22050EDF6E010120EE0EF0010176
:1004C8000051D92601010151DA22DF2A010120EE6B
:1004D8000DF001010051D92601010151DA22070E60
:1004E800DF6E4450D8B42ED0010120EE0BF001018C
:1004F8000051D92601010151DA22010110EE0AF05A
:1005080001010051E12601010151E222E7503C6E50
:100518003C50010DF350010101010025E16EF4503A
:10052800010101010121E26EDFCFE7FF010101C1F5
:1005380039F0010100C138F094EC0AF0010120EE15
:100548000AF03BD0010120EE0EF001010051D9263E
:1005580001010151DA22DF50D8B437D0010120EE71
:100568000EF001010051D92601010151DA22DF50B4
:100578003D6E010120EE0DF001010051D926010167
:100588000151DA22DF503E6E010120EE0BF001012D
:100598000051D92601010151DA22DF503F6E3C6E2D
:1005A800290E286E3C50000E2A6E3D0E296E030E51
:1005B8001EEC0CF0010120EE0EF001010051D926CD
:1005C80001010151DA22000EDF6E4350D8B4120047
:1005D80077EC0BF03C6E000E436E3C501200000EA0
:1005E80001010101DF6F000E0101DE6F820ED36E83
:1005F8009B9C76EC0CF00101010E01010101A56F35
:100608000101E10E01010101A46F3DEC09F0CFECFD
:1006180008F0000E936E000E8A6E900EF5EC0BF04B
:100628009F869E0E0AEC0CF09D86000E01010101CA
:10063800A56F190E0101A46F6C0E8FEC07F072EC18
:100648000CF019EC08F00101010E01010101BD6F68
:100658000101DD0E01010101BC6F0101010E010163
:100668000101BF6F0101CD0E01010101BE6F0A0E2C
:10067800FAEC0AF001010101E06F01010101E0BF9C
:1006880004D1F1D0CDC1D8F100D101010101DF5170
:10069800DE11D8A40CD001010101CD690101C16F9F
:1006A800010E01010101E06F0101C1519DD0000E51
:1006B80001010101DA6F000E0101D96F1ED001019D
:1006C800C20E01010101D925D96E0101010E0101F6
:1006D8000101DA21DA6E0101CD0E01010101D925EE
:1006E800E16E0101010E01010101DA21E26EDFCFA5
:1006F800E7FF01010101D94BDA2B01010101DA51B0
:10070800800A0101C16F0101DE5101010101D95DBA
:1007180001010101DF51800A0101C159D8A0CFD7D9
:1007280050D00101C16F040E01010101C26F010126
:10073800C1510101C16F0D0E01010101C36F01011A
:10074800C151000E01010101DF6F020E0101DE6FD0
:10075800000E01010101DC6F000E0101DB6F1ED0EC
:100768000101C20E01010101DB25D96E0101010E53
:1007780001010101DC21DA6E0101CD0E0101010147
:10078800DB25E16E0101010E01010101DC21E26EB0
:10079800DFCFE7FF01010101DB4BDC2B0101010188
:1007A800DC51800A0101C16F0101DE510101010123
:1007B800DB5D01010101DF51800A0101C159D8A0A7
:1007C800CFD7DEC1E0F1000E01010101DF6F000E9D
:1007D8000101DE6F09D001010101D851AA0AD8B47C
:1007E80054D7010AD8B49DD70101C16FAA0E0101DF
:1007F8000101CD6F0101C1510101C16F010E01015C
:100808000101E06F0101C1510101010E0101010166
:10081800A56F0101CD0E01010101A46F01010101C4
:10082800E05129EC05F031D0000E01010101AD6F56
:10083800000E0101AC6F0101010E01010101AF6F52
:100848000101CD0E01010101AE6F01010101E0516D
:1008580001010101B06F0101B16B0101B0BFB10726
:10086800E0EC0BF012D001010101DD510A0AD8B405
:100878000CD0220AD8B406D7010AD8B403D7030A81
:10088800D8B4A9D7180AD8B4CFD70101010E0101ED
:100898000101BD6F0101DD0E01010101BC6F010104
:1008A800010E01010101BF6F0101CD0E010101011E
:1008B800BE6F0A0ED9EC0AF001010101E06F0101D7
:1008C8000101E0BFBED61FD0000E01010101AD6FCE
:1008D800000E0101AC6F0101010E01010101AF6FB2
:1008E8000101CD0E01010101AE6F01010101E051CD
:1008F80001010101B06F0101B16B0101B0BFB10786
:10090800E0EC0BF09ED601010101DD51320AD8B4AA
:10091800DBD797D6010120EE35F00101AE51D9267B
:100928000101AF51DA22DF5001010101B76F010166
:100938000101B7510D0DF35001010101AE2501016F
:100948000101BA6FF45001010101AF210101BB6F30
:10095800010EBAC1D9FFBBC1DAFFDF6274D0010151
:1009680020EE01F00101BA51D9260101BB51DA226A
:10097800DF5001010101B05DD8B002D0FD0E1200B8
:10098800010120EE01F00101BA51D9260101BB5144
:10099800DA22DF500101B56F0101B55101010101F2
:1009A800B86F0101B96B01010101B4C1A5F10101E1
:1009B8000101B3C1A4F1030E01010101BA2501012E
:1009C800B56F000E01010101BB210101B66FB5C170
:1009D800A6F1B6C1A7F1B8C1A8F1B9C1A9F172ECE5
:1009E80009F0010120EE35F00101AE51D9260101CF
:1009F800AF51DA22010110EE35F00101AE51E126C6
:100A08000101AF51E222E7500101B56F0101B5299B
:100A1800030BDF6E010120EE02F00101BA51D92665
:100A28000101BB51DA22B1C1E1FFB2C1E2FFDFCF60
:100A3800E7FFBAC1D9FFBBC1DAFF000EDF6E0101C3
:100A48000101B8511200FC0E1200E8CFA8F1010113
:100A580020EE19F001010051D92601010151DA22D5
:100A6800000EDF6E42D0010120EE19F001010051A5
:100A7800D92601010151DA22DF500101A66F0101D7
:100A8800A651010DF35001010101A425D96EF450BE
:100A980001010101A521DA6E010110EE19F0010131
:100AA8000051E12601010151E222E7500101A76F3F
:100AB8000101A751010D0F0EF326000EF422F35089
:100AC800010101010025E16EF4500101010101213C
:100AD800E26EDFCFE7FF010120EE19F001010051BE
:100AE800D92601010151DA22DF2A010120EE19F08D
:100AF80001010051D92601010151DA22DF5001011B
:100B0800A66F01010101A8510101A65DD8A0ABD7CC
:100B1800010120EE19F001010051D926010101510E
:100B2800DA220101A8C1DFFF010120EE1AF001015C
:100B38000051D92601010151DA22010EDF6E0101AF
:100B480020EE0FF001010051D92601010151DA22EE
:100B5800DF50C96EC6881200E8CF16F0010120EEFA
:100B680019F001010051D92601010151DA22000EC4
:100B7800DF6E3AD0010120EE19F001010051D926AB
:100B880001010151DA22DF50146E1450010DF350A7
:100B98001224D96EF4501320DA6E010110EE19F008
:100BA80001010051E12601010151E222E750156ED1
:100BB8001550010D0F0EF326000EF422F35001011B
:100BC80001010025E16EF450010101010121E26EED
:100BD800DFCFE7FF010120EE19F001010051D9260E
:100BE80001010151DA22DF2A010120EE19F0010189
:100BF8000051D92601010151DA22DF50146E165036
:100C0800145CD8A0B7D7010120EE19F001010051FA
:100C1800D92601010151DA2216C0DFFF010120EEB9
:100C28001AF001010051D92601010151DA22010E01
:100C3800DF6E010120EE0FF001010051D9260101FC
:100C48000151DA22DF50C96EC6881200E8CF12F0CF
:100C5800010120EE0BF001010051D92601010151DB
:100C6800DA22010EDF6E010120EE0AF001010051C7
:100C7800D92601010151DA22000EDF6E1250D8B4D4
:100C88003DD0C7AA21D0010120EE0CF0010100518E
:100C9800D92601010151DA22050EDF6E010120EE8D
:100CA8000EF001010051D92601010151DA22DF2A93
:100CB800010120EE0DF001010051D9260101015179
:100CC800DA22050EDF6E1200C7A40CD0010120EE57
:100CD8000CF001010051D92601010151DA22080E58
:100CE800DF6E1200010120EE0CF001010051D9263F
:100CF80001010151DA22070EDF6E1200010120EE18
:100D08000CF001010051D92601010151DA22060E29
:100D1800DF6E120000010001E65101010101A62564
:100D28000101A86F000E01010101A7210101A96FAE
:100D38000101A951800AF36E800EF35C0A0ED8B443
:100D4800A85DD8B01200000E01010101AB6F000EC2
:100D58000101AA6F23D001010101AA51010101017A
:100D6800A425D96E01010101AB5101010101A521A1
:100D7800DA6E00010001E651010D0001E70EF324CF
:100D8800E16E0001000EF420E26EDFCFE7FF000104
:100D98000001E62B01010101AA4BAB2B0101010166
:100DA800AB51800A0101A86F0101A651010101019F
:100DB800AA5D01010101A751800A0101A859D8B013
:100DC8001200C9D71EC023F0246A20EE34F01C504C
:100DD800D9261D50DA22DF50256E25500D0DF3500F
:100DE8001C24266EF4501D20276E26C0D9FF27C06C
:100DF800DAFFDF50D8B402D0FF0E120020EE01F067
:100E08002650D9262750DA221EC0DFFF20EE02F036
:100E18002650D9262750DA221FC0DFFF030E2624CA
:100E2800126E000E2720136E21C015F020C014F09A
:100E380023C016F024C017F01BEC0BF020EE34F0A2
:100E48001C50D9261D50DA2210EE34F01C50E12631
:100E58001D50E222E750226E2228030BDF6E26C0C7
:100E6800D9FF27C0DAFF010EDF6E010E1200030E54
:100E780014241C6E000E15201D6E1D50800A1E6E57
:100E880018501C5C1950800A1E58D8A005D0000EB6
:100E9800136E000E126E120016C0D9FF17C0DAFFCB
:100EA800010EDF6E20EE01F01650D9261750DA2217
:100EB8001AC0DFFF20EE02F01650D9261750DA22AA
:100EC80014C0DFFF030E1624216E000E1720226EB9
:100ED800145021241F6E15502220206E0ED012C0EF
:100EE800D9FF13C0DAFF21C0E1FF22C0E2FFDFCF44
:100EF800E7FF124A132A214A222A2050221802E127
:100F08001F502118D8A4EBD7030E1424126E000E1C
:100F18001520136E1200E8CFA9F1000EAC6E000E7A
:100F2800AB6E01010101A9B1AC8801010101A9A3BE
:100F380002D0AC8CAB8C01010101A9B5AC8E0101CA
:100F48000101A9A702D0AB8801D0AB8A0101010138
:100F5800A9B9AC849E9801010101A9BBAB86010126
:100F68000101A9AD02D09D8A01D09D9A9E9A0101E6
:100F78000101A9AF02D09D8801D09D98A4C1AFFFFF
:100F88000101A5C1A6F1A6C1A7F10101A86B010144
:100F9800A751B06EAC8AAB8E949C948EACA812000C
:100FA800ACBE1200948C1200E9CF48F0EACF49F0A9
:100FB800E1CF4AF0E2CF4BF0D9CF4CF0DACF4DF089
:100FC800F3CF4EF0F4CF4FF0F6CF50F0F7CF51F00B
:100FD800F8CF52F0F5CF53F09EA603D09E9653EC6F
:100FE80000F0F2A403D0F29460EC0CF04AEC0AF0A2
:100FF80053C0F5FF52C0F8FF51C0F7FF50C0F6FFCD
:101008004FC0F4FF4EC0F3FF4DC0DAFF4CC0D9FF0C
:101018004BC0E2FF4AC0E1FF49C0EAFF48C0E9FF10
:1010280047C0FBFF46C0FAFF1100B7EC0AF0010108
:101038000101A9510101A811D8B412000101AA6F38
:10104800010E586E0101AA510101010E01010101B1
:10105800A56F0101380E01010101A46F93EC0BF09B
:101068000009D8B407D00101AA6F000E586E01011B
:10107800AA5112000101010E01010101A56F010130
:101088006E0E01010101A46F93EC0BF00009D8B4B6
:1010980007D00101AA6F000E586E0101AA51120073
:1010A8000A0E43EC0CF0D0D7010120EE34F0010118
:1010B800A451D9260101A551DA22000EDF6E0101E3
:1010C80020EE35F00101A451D9260101A551DA22FB
:1010D800000EDF6E0101A66F000E01010101A76F6E
:1010E8000101A651030E01010101A76501D01200FB
:1010F80001010101A7510D0DF35001010101A425C2
:10110800D96EF45001010101A521DA6E000EDF6EDF
:1011180001010101A72B030E01010101A765E8D711
:101128001200000E01010101A86F000E0101A76F56
:1011380012D00001E70E01010101A725D96E0001B7
:10114800000E01010101A821DA6E000EDF6E010117
:101158000101A74BA82B00010001E6510101A46F72
:10116800A56B01010101A851800A0101A66FA451D4
:1011780001010101A75D0101A551800A0101A659DC
:10118800D8A0D7D70101A46F000E00010001E66FB7
:101198000101A45112000101A86F000E586E01014F
:1011A800A8510101010E01010101A56F01016E0E97
:1011B80001010101A46F58EC08F00101010E0101C1
:1011C8000101A56F0101380E01010101A46F58EC5E
:1011D80008F00101010E01010101A56F0101020ED4
:1011E80001010101A46F58EC08F00201020E01018F
:1011F8000101A56F0201000E01010101A46F58EC65
:1012080008F012002C6E000E376E2C5015D05BC003
:101218002DF02C6E010E0AD05CC02DF05DC02EF0B2
:101228002C6E020E03D05EC02DF0F3D7376E2C5013
:1012380010D05FC02DF0EDD75A50000AD8B4E7D7C8
:10124800010AD8B4E9D7030AD8B4EDD7010AD8B44B
:10125800F0D75A2A5A50030B5A6E2C6E320E286E4B
:101268002C50000E2A6E2D0E296E37501EEC0CF0F5
:10127800120001010101A5C101F101010101A4C18F
:1012880000F1010120EE0AF001010051D926010107
:101298000151DA22000EDF6E010120EE0BF0010190
:1012A8000051D92601010151DA22000EDF6E010139
:1012B80020EE0CF001010051D92601010151DA227A
:1012C800050EDF6E010120EE0EF001010051D92656
:1012D80001010151DA22000EDF6E12000101010145
:1012E800A7C1ADF101010101A6C1ACF101010101E4
:1012F800A5C1ABF101010101A4C1AAF112D0ACC191
:10130800D9FFADC1DAFFAAC1E1FFABC1E2FFDFCF70
:10131800E7FF01010101AC4BAD2B01010101AA4B13
:10132800AB2B01010101A807D8A0A9070101A82931
:10133800D8B4A929D8B41200E2D702EE00F0360ECC
:10134800EE6AE806FDE101EE00F0A40EEE6AE8069A
:10135800FDE100EEE6F00B0EEE6AE806FDE100EEB8
:1013680054F0070EEE6AE806FDE1F80EF66E180E68
:10137800F76E000EF86E00EE5BF010EE05F0090057
:10138800F5CFEEFFE550E150FAE1000EF86E0001EE
:10139800F3EF02F00001000E246E0001E70E236E49
:1013A8000001E6C025F0266A0001000E286E000143
:1013B800800E276E000E2A6E640E296EAEEC0BF0BE
:1013C80023C0E4F024C0E5F000010001E551E41178
:1013D800D8B412000001000E136E0001800E126EC8
:1013E80000010001E451B0EC05F0120013A006D092
:1013F800000E3BEC0BF0000E59EC0BF013A206D0DC
:10140800010E3BEC0BF0010E59EC0BF013A406D0C7
:10141800020E3BEC0BF0020E59EC0BF013A606D0B3
:10142800030E3BEC0BF0030E59EC0BF013A8120063
:10143800040E3BEC0BF0040E59EC0BF01200000EFE
:10144800166E000E156E0CD00001E70E1524D96E2D
:101458000001000E1620DA6E000EDF6E154A162AFD
:1014680000010001E651126E136A1650800A146ECC
:101478001250155C1350800A1458D8A0E5D7126E84
:10148800000E00010001E66F12501200586601D0EC
:101498001200C9EC0BF015501410D8A4120067EC18
:1014A8000CF013501210D8B412000101010E136E83
:1014B8000101380E126E31EC0CF00009D8A41200AC
:1014C8000101010E136E01016E0E126E31EC0CF06B
:1014D8000009D8B479EC0CF01200F2AC08D0000E78
:1014E80001010101A76F000E0101A66F12004EEC69
:1014F8000CF001010101A5510101A411D8B408D0D3
:10150800000E01010101A76F000E0101A66F120074
:10151800000E01010101A76F010E0101A66F120063
:1015280039C013F038C012F06DEC0CF012C03AF06C
:1015380013C03BF03AC0D9FF3BC0DAFFDF50D8A454
:1015480003D006EC09F012003AC0D9FF3BC0DAFF1D
:10155800DF50546E20EE01F03A50D9263B50DA2283
:10156800DF50556E120071EC0AF001010101A7511C
:101578000101A611D8A411D04EEC0CF00101010113
:10158800A5510101A411D8A408D0000E0101010140
:10159800A96F010E0101A86F1200000E01010101DF
:1015A800A96F000E0101A86F1200E8CFC0F1010178
:1015B800010E01010101AF6F01016E0E0101010170
:1015C800AE6FC0C1B0F101010101BDC1B2F10101AD
:1015D8000101BCC1B1F101010101BFC1B4F10101B7
:1015E8000101BEC1B3F18EEC04F01200E8CFC0F1E6
:1015F8000101010E01010101AF6F0101380E010166
:101608000101AE6FC0C1B0F101010101BDC1B2F16C
:1016180001010101BCC1B1F101010101BFC1B4F176
:1016280001010101BEC1B3F18EEC04F0120015C036
:101638001BF014C01AF013C019F012C018F00ED025
:101648001AC0D9FF1BC0DAFF18C0E1FF19C0E2FFBA
:10165800DFCFE7FF1A4A1B2A184A192A1606D8A00C
:1016680017061628D8B41728D8B41200E9D7E8CF37
:1016780012F00AD08A8012008A8212008A8412002C
:101688008A8612008A8812001250000AD8B4F2D74B
:10169800010AD8B4F1D7030AD8B4F0D7010AD8B4EC
:1016A800EFD7070AD8A41200EDD7E8CF12F00AD076
:1016B8008A9012008A9212008A9412008A96120066
:1016C8008A9812001250000AD8B4F2D7010AD8B486
:1016D800F1D7030AD8B4F0D7010AD8B4EFD7070A6C
:1016E800D8A41200EDD7000E146E010E136EFAEC9A
:1016F80009F05404D8A41200000E146E020E136EE2
:10170800FAEC09F055661200000E146E040E136E02
:10171800FAEC09F0CEEC09F023EC0AF01200010112
:1017280020EE35F00101A451D9260101A551DA2294
:10173800DF500101A66F0101A6510D0DF350010103
:101748000101A425D96EF45001010101A521DA6E29
:10175800DF50120024C013F023C012F025C014F08B
:1017680026C015F028C017F027C016F029C018F0B9
:101778002AC019F0000E1B6E000E1A6E3BEC07F023
:1017880012C023F013C024F01200F2AC05D0000EF2
:10179800156E000E146E120067EC0CF01350121048
:1017A800D8B405D0000E156E000E146E1200000E8F
:1017B800156E010E146E120001010101AD51AC113C
:1017C800D8A4120001010101AFC1A5F10101010175
:1017D800AEC1A4F1B0C1A6F1B1C1A7F18EEC06F07B
:1017E8001200E8CFA4F101010101A4517F0BD56ECD
:1017F800000ED76E000ED66EF29401010101A4AF5F
:1018080002D0F28A01D0F29AD58E1200E8CFA4F164
:1018180094869488A4C1C8FF000EC76E000EC66ED9
:10182800000EC56E0E0EC612C78E94869488C580AB
:10183800C68A1200E8CF2BF00101010E1D6E0101CE
:10184800380E1C6E2BC01EF028C01FF02AC021F0D5
:1018580029C020F0E6EC06F0120020EE35F0125018
:10186800D9261350DA22DF50146E14500D0DF350A0
:101878001224D96EF4501320DA6EDF501200E8CF2C
:10188800A4F1FA0E00F0E82EFDD701010101A42F02
:10189800F8D71200000EF2AE010E01010101A46F8B
:1018A8000101A56B120012C014F013C015F015C089
:1018B800D7FF14C0D6FF1200FD0E136E000E126E75
:1018C80057EC0CF01200000EF2AE010E126E136A05
:1018D800120013C013F012C012F01200D08EF28E54
:1018E800F28C120095EC08F01200D38E030012005F
:0618F800010510D8FE00FE
:067FF80080F4C5FFFFF15B
:00000001FF
