:040000005BEF00F0C2
:0C000800FACF75F1FBCF76F15FEF0AF044
:10001800D8CF1EF0E8CF1FF0E0CF20F0FACF21F0C4
:10002800FBCF22F0E9CF23F0EACF24F0E1CF25F08F
:10003800E2CF26F0D9CF27F0DACF28F0F3CF29F096
:10004800F4CF2AF0F6CF2BF0F7CF2CF0F8CF2DF025
:10005800F5CF2EF09EA003D09E9044EC0EF09EAA01
:1000680003D09E9A40EC09F02EC0F5FF2DC0F8FF92
:100078002CC0F7FF2BC0F6FF2AC0F4FF29C0F3FFFE
:1000880028C0DAFF27C0D9FF26C0E2FF25C0E1FF5C
:1000980024C0EAFF23C0E9FF22C0FBFF21C0FAFF0A
:1000A80020C0E0FF1FC0E8FF1EC0D8FF10008AEF85
:1000B8000CF00001F56F000E01010101746F0001E1
:1000C800F5510001F56F000E010101016F6F00018C
:1000D800F5510001F56F000E01010101736F000178
:1000E800F5510001F56F000E01010101726F000169
:1000F800F5510001F56F000E01010101706F00015B
:10010800F551C6AC29D0C69C010120EE0CF00101C6
:10011800A851D9260101A951DA22050EDF6E000186
:10012800F56F010E01010101706F0001F551010128
:1001380020EE0EF00101A851D9260101A951DA22B9
:10014800DF2A010120EE0DF00101A851D926010195
:10015800A951DA22040EDF6EC7A00AD0C9CF71F107
:100168000001F56F010E01010101746F0001F551E5
:10017800010101017067CED1B7D1C7A6CBD101016A
:1001880001017451DEEC07F0010120EE0CF00101D1
:10019800A851D9260101A951DA22080EDF62BAD185
:1001A8000001F56F000E01010101746F0001F551A6
:1001B8000001F56F010E01010101726F87D1C7A817
:1001C80030D0010120EE0BF00101A851D926010120
:1001D800A951DA22DF2A010101017451D8B479D179
:1001E800C7BA09D00001F56F010E01010101736F53
:1001F8000001F5516ED1010120EE0EF00101A85168
:10020800D9260101A951DA22DF2A010120EE0DF0D9
:100218000101A851D9260101A951DA22060EDF6E83
:1002280058D1010101017451D8B474D1010120EEF3
:100238000BF00101A851D9260101A951DA22DF2AC0
:10024800C7BA19D0C7B40BD0010120EE0CF00101D8
:10025800A851D9260101A951DA22070E76D0010149
:1002680020EE0CF00101A851D9260101A951DA228A
:10027800080EDF6E1DD1010120EE0EF00101A8511C
:10028800D9260101A951DA22DF2A010120EE0CF05A
:100298000101A851D9260101A951DA22050EDF6E04
:1002A800010120EE0DF00101A851D9260101A95143
:1002B800DA22060E4AD0010120EE1AF00101A851F7
:1002C800D9260101A951DA22DF500001F56F010199
:1002D80020EE19F00101A851D9260101A951DA220D
:1002E800DF500001F55DD8B0F4D0010120EE1AF01E
:1002F8000101A851D9260101A951DA22DF500001D4
:10030800F56F0001F551010D0F0EF326000EF422D2
:10031800F35001010101A825D96EF4500101010132
:10032800A921DA6EDF50C96E010120EE1AF0010131
:10033800A851D9260101A951DA22DF2A0001F56F57
:10034800010E010101016F6FC1D0DF6EE3D0C7A8B4
:1003580062D0010120EE0BF00101A851D92601015C
:10036800A951DA22DF2A010101017451D8B44AD017
:10037800C7AA27D0010120EE0AF00101A851D92609
:100388000101A951DA22DF500001F56F0001F55192
:10039800010DF35001010101A825D96EF4500101A6
:1003A8000101A921DA6E010171C1DFFF010120EE0F
:1003B8000AF00101A851D9260101A951DA22DF2A40
:1003C80021D0010120EE0EF00101A851D92601012A
:1003D800A951DA22DF2A010120EE0DF00101A8510E
:1003E800D9260101A951DA22060EDF6E010120EE9D
:1003F8000CF00101A851D9260101A951DA22050EF4
:10040800DF6E67D00001F56F010E01010101736F06
:100418000001F5515ED0010101017451D8B47AD0C0
:10042800010120EE0BF00101A851D9260101A951C3
:10043800DA22DF2AC7AA27D0010120EE0AF001013B
:10044800A851D9260101A951DA22DF500001F56F20
:100458000001F551010DF35001010101A825D96EE4
:10046800F45001010101A921DA6E010171C1DFFF18
:10047800010120EE0AF00101A851D9260101A95174
:10048800DA22DF2A47D0C7A4B6D6010120EE0CF045
:100498000101A851D9260101A951DA22080EDF6EFF
:1004A8000001F56F010E01010101736F0001F551A3
:1004B8000001F56F010E01010101726F0001F55194
:1004C8000001F56F000E01010101746F0001F55183
:1004D80021D0010120EE0CF00101A851D92601011B
:1004E800A951DA22050E31D7010120EE0CF00101E5
:1004F800A851D9260101A951DA22DF50050AD8B43A
:100508003CD6030AD8B45BD6010AD8B420D70F0A60
:10051800D8B4D1D601010101746705D001010101E8
:100528006F51D8B402D0C6A8C688010120EE0AF0DF
:100538000101A851D9260101A951DA22080EDF6468
:1005480024D001010101736720D0010120EE0CF0D5
:100558000101A851D9260101A951DA22050EDF6E41
:10056800010120EE0EF00101A851D9260101A9517F
:10057800DA22DF2A010120EE0DF00101A851D92667
:100588000101A951DA22070EDF6E01010101735141
:10059800D8B432D0010120EE0BF00101A851D926C0
:1005A8000101A951DA22010110EE0AF00101A85156
:1005B800E1260101A951E222E7500001F56F00018F
:1005C800F551010DF35001010101A825E16EF45028
:1005D80001010101A921E26EDFCFE7FF0101A9C1F5
:1005E80032F00101A8C131F0FDEC0EF0FDEC0BF08A
:1005F800010120EE0AF045D0010120EE0EF00101C4
:10060800A851D9260101A951DA22DF50D8B441D026
:10061800010120EE0EF00101A851D9260101A951CE
:10062800DA22DF50010101016C6F010120EE0DF0AB
:100638000101A851D9260101A951DA22DF5001018F
:1006480001016D6F010120EE0BF00101A851D926BF
:100658000101A951DA22DF50010101016E6F000189
:10066800F56F290E456E0001F5510101010E476E27
:1006780001016C0E466E030EAFEC0EF0010120EE88
:100688000EF00101A851D9260101A951DA22000E64
:10069800DF6E010101017251D8B41200FDEC0BF0BC
:1006A8000001F56F000E01010101726F0001F551A3
:1006B8001200000E02010201936F000E0201926FF8
:1006C800820ED36E9B9C0201020E01010101846F10
:1006D80002018D0E01010101836FD4EC0EF00201BD
:1006E800020E01010101846F0201960E0101010150
:1006F800836FC8EC0BF00201020E01010101846F47
:1007080002018B0E01010101836F11EC0FF091ECD6
:100718000BF0000E936E000E8A6E900E73EC0EF0C6
:10072800F50EBEEC0DF09F909F9A9F869E0E88EC6A
:100738000EF09D86000E01010101846F190E010162
:10074800836F6C0E8EEC09F049EC0FF0A0EC0AF008
:100758000201020E010101019C6F0201940E0101C8
:1007680001019B6F0201020E010101019E6F02014E
:100778007B0E010101019D6F0A0E3EEC0DF0020196
:100788000201956F0201020195BFFBD0EBD0020177
:10079800020E01010101846F0201790E01010101BC
:1007A800836F0201010194C285F101010101866B89
:1007B80002010201955101010101876F0101886B56
:1007C800010187BF88070201020E010101018A6F3A
:1007D80002017B0E01010101896F08EC0FF0D1D0F5
:1007E8007BC286F2CED00201020193519211D8A4A5
:1007F8000CD0020102017B690101A76F010E020101
:100808000201956F0101A7519DD0000E020102015E
:10081800886F000E0201876F1ED002016C0E020164
:1008280002018725D96E0201020E02010201882108
:10083800DA6E02017B0E020102018725E16E0201D8
:10084800020E020102018821E26EDFCFE7FF0201FA
:100858000201874B882B020102018851800A01019D
:10086800A76F0201925102010201875D0201020194
:100878009351800A0101A759D8A0CFD750D00101C0
:10088800A76F040E020102016C6F0101A75101015B
:10089800A76F0D0E020102016D6F0101A751000E35
:1008A80002010201936F020E0201926F000E020113
:1008B80002018A6F000E0201896F1ED002016C0EC0
:1008C800020102018925D96E0201020E020102010C
:1008D8008A21DA6E02017B0E020102018925E16E8E
:1008E8000201020E020102018A21E26EDFCFE7FF58
:1008F80002010201894B8A2B020102018A51800AF6
:100908000101A76F0201925102010201895D0201F2
:1009180002019351800A0101A759D8A0CFD792C2EA
:1009280095F2000E02010201936F000E0201926F10
:1009380009D0020102018651AA0AD8B454D7010A83
:10094800D8B49DD70201020E01010101846F020192
:100958007B0E01010101836F020102019551F2EC46
:1009680005F00FD00201020194510A0AD8B40FD73A
:10097800220AD8B435D7010AD8B432D7030AD8B472
:10098800D8D70201020E010101019C6F0201940EE9
:10099800010101019B6F0201020E010101019E6F1D
:1009A80002017B0E010101019D6F0A0E1DEC0DF085
:1009B80002010201956F0201020195BFC7D663D0FB
:1009C800020102019351800AF36E800EF35C0C0E53
:1009D800D8B4925DD8B0BAD602010201924B932BDB
:1009E800B5D60201020E010101019E6F02018B0EB4
:1009F800010101019D6F0201010194C29FF10101F2
:100A08000101A06B02010201955101010101A16FD1
:100A18000101A26B0101A1BFA2070201020E01019F
:100A28000101A46F02017B0E01010101A36F58ECC3
:100A38000BF08CD60201020E01010101846F020144
:100A4800770E01010101836F0201010194C285F152
:100A580001010101866B02010201955101010101A9
:100A6800876F0101886B010187BF88070201020EA9
:100A7800010101018A6F02017B0E01010101896FE9
:100A88009FEC0DF063D60201020194510B0AD8B411
:100A9800A8D7150AD8B4CED7010AD8B4CBD72D0A0F
:100AA800D8B48ED753D6010120EE35F001018D510F
:100AB800D92601018E51DA22DF5001010101966F1A
:100AC8000101010196510D0DF350010101018D2520
:100AD80001010101996FF450010101018E21010109
:100AE8009A6F010E99C1D9FF9AC1DAFFDF6274D0FB
:100AF800010120EE01F001019951D92601019A5115
:100B0800DA22DF50010101018F5DD8B002D0FD0E5D
:100B18001200010120EE01F001019951D9260101CD
:100B28009A51DA22DF500101946F010194510101B9
:100B38000101976F0101986B0101010193C184F1D3
:100B48000101010192C183F1030E010101019925FF
:100B58000101946F000E010101019A210101956FB5
:100B680094C185F195C186F197C187F198C188F143
:100B78002FEC0CF0010120EE35F001018D51D92642
:100B880001018E51DA22010110EE35F001018D517B
:100B9800E12601018E51E222E7500101946F010123
:100BA8009429030BDF6E010120EE02F00101995137
:100BB800D92601019A51DA2290C1E1FF91C1E2FFE1
:100BC800DFCFE7FF99C1D9FF9AC1DAFF000EDF6EC8
:100BD8000101010197511200FC0E1200E8CF87F1C4
:100BE800010120EE19F00101A851D9260101A951EE
:100BF800DA22000EDF6E42D0010120EE19F0010169
:100C0800A851D9260101A951DA22DF500101856FC7
:100C180001018551010DF350010101018325D96EB0
:100C2800F450010101018421DA6E010110EE19F07E
:100C38000101A851E1260101A951E222E750010171
:100C4800866F01018651010D0F0EF326000EF42266
:100C5800F35001010101A825E16EF45001010101E1
:100C6800A921E26EDFCFE7FF010120EE19F00101B3
:100C7800A851D9260101A951DA22DF2A010120EE63
:100C880019F00101A851D9260101A951DA22DF5032
:100C98000101856F0101010187510101855DD8A01E
:100CA800ABD7010120EE19F00101A851D9260101A5
:100CB800A951DA22010187C1DFFF010120EE1AF0F4
:100CC8000101A851D9260101A951DA22010EDF6ECE
:100CD800010120EE0FF00101A851D9260101A95107
:100CE800DA22DF50C96EC6881200010101018FC1E6
:100CF80094F101010101956B010120EE34F001012D
:100D08008D51D92601018E51DA22DF5001010101EE
:100D1800966F0101010196510D0DF350010101017A
:100D28008D2501010101976FF450010101018E2108
:100D38000101986F97C1D9FF98C1DAFFDF50D8B485
:100D480002D0FF0E1200010120EE01F001019751BF
:100D5800D92601019851DA2201018FC1DFFF010173
:100D680020EE02F001019751D92601019851DA22AB
:100D7800010190C1DFFF030E010101019725010167
:100D88000101836F000E0101010198210101846FA7
:100D98000101010192C186F10101010191C185F1B1
:100DA80094C187F195C188F12FEC0CF0010120EE78
:100DB80034F001018D51D92601018E51DA22010149
:100DC80010EE34F001018D51E12601018E51E2222D
:100DD800E7500101936F01019329030BDF6E97C15F
:100DE800D9FF98C1DAFF010EDF6E010E1200E8CFBD
:100DF80033F0010120EE19F00101A851D9260101B3
:100E0800A951DA22000EDF6E3AD0010120EE19F066
:100E18000101A851D9260101A951DA22DF50316E0A
:100E28003150010DF3502F24D96EF4503020DA6E72
:100E3800010110EE19F00101A851E1260101A951A3
:100E4800E222E750326E3250010D0F0EF326000EEB
:100E5800F422F35001010101A825E16EF4500101CB
:100E68000101A921E26EDFCFE7FF010120EE19F0B1
:100E78000101A851D9260101A951DA22DF2A01016D
:100E880020EE19F00101A851D9260101A951DA2251
:100E9800DF50316E3350315CD8A0B7D7010120EE56
:100EA80019F00101A851D9260101A951DA2233C04C
:100EB800DFFF010120EE1AF00101A851D926010136
:100EC800A951DA22010EDF6E010120EE0FF00101B7
:100ED800A851D9260101A951DA22DF50C96EC68866
:100EE800120020EE35F03950D9263A50DA22DF5078
:100EF800426E42500D0DF3503924456EF4503A209D
:100F0800466E010E45C0D9FF46C0DAFFDF6250D0F9
:100F180020EE01F04550D9264650DA22DF503B5CDE
:100F2800D8B002D0FD0E120020EE01F04550D926AF
:100F38004650DA22DF50406E4050436E446A3FC04C
:100F480030F03EC02FF0030E4524406E000E4620C0
:100F5800416E40C031F041C032F043C033F044C06C
:100F680034F07FEC0DF020EE35F03950D9263A50A8
:100F7800DA2210EE35F03950E1263A50E222E750F5
:100F8800406E4028030BDF6E20EE02F04550D92654
:100F98004650DA223CC0E1FF3DC0E2FFDFCFE7FF69
:100FA80045C0D9FF46C0DAFF000EDF6E435012007D
:100FB800FC0E1200E8CF2FF0010120EE0BF001012A
:100FC800A851D9260101A951DA22010EDF6E0101CB
:100FD80020EE0AF00101A851D9260101A951DA220F
:100FE800000EDF6E2F50D8B43DD0C7AA21D0010122
:100FF80020EE0CF00101A851D9260101A951DA22ED
:10100800050EDF6E010120EE0EF00101A851D92670
:101018000101A951DA22DF2A010120EE0DF00101B8
:10102800A851D9260101A951DA22050EDF6E120056
:10103800C7A40CD0010120EE0CF00101A851D9265B
:101048000101A951DA22080EDF6E1200010120EE1B
:101058000CF00101A851D9260101A951DA22070E85
:10106800DF6E1200010120EE0CF00101A851D92613
:101078000101A951DA22060EDF6E12000DC012F02E
:10108800136A20EE34F00B50D9260C50DA22DF50C8
:10109800146E14500D0DF3500B24156EF4500C20E3
:1010A800166E15C0D9FF16C0DAFFDF50D8B402D0CB
:1010B800FF0E120020EE01F01550D9261650DA2244
:1010C8000DC0DFFF20EE02F01550D9261650DA22A7
:1010D8000EC0DFFF030E1524016E000E1620026EEF
:1010E80010C004F00FC003F012C005F013C006F0E2
:1010F8005FEC0DF020EE34F00B50D9260C50DA22BC
:1011080010EE34F00B50E1260C50E222E750116E3D
:101118001128030BDF6E15C0D9FF16C0DAFF010EC8
:10112800DF6E010E12003BC040F0416A20EE34F041
:101138003950D9263A50DA22DF50426E42500D0D0E
:10114800F3503924436EF4503A20446E43C0D9FF1B
:1011580044C0DAFFDF50D8B402D0FF0E120020EEF0
:1011680001F04350D9264450DA223BC0DFFF20EE7D
:1011780002F04350D9264450DA223CC0DFFF030E68
:1011880043242F6E000E4420306E3EC032F03DC026
:1011980031F040C033F041C034F07FEC0DF020EE68
:1011A80034F03950D9263A50DA2210EE34F039505A
:1011B800E1263A50E222E7503F6E3F28030BDF6EEC
:1011C80043C0D9FF44C0DAFF010EDF6E010E1200E2
:1011D800030E3124396E000E32203A6E3A50800ADE
:1011E8003B6E3550395C3650800A3B58D8A005D044
:1011F800000E306E000E2F6E120033C0D9FF34C0BF
:10120800DAFF010EDF6E20EE01F03350D92634509C
:10121800DA2237C0DFFF20EE02F03350D9263450EF
:10122800DA2231C0DFFF030E33243E6E000E342075
:101238003F6E31503E243C6E32503F203D6E0ED002
:101248002FC0D9FF30C0DAFF3EC0E1FF3FC0E2FF48
:10125800DFCFE7FF2F4A302A3E4A3F2A3D503F184A
:1012680002E13C503E18D8A4EBD7030E31242F6E70
:10127800000E3220306E12009EAA3CD020EE04F000
:101288005050D9265150DA22DF501B6E1B50010DE9
:10129800F3505024D96EF4505120DA6EE3EC0EF07E
:1012A800DF6E20EE04F05050D9265150DA22DF2AA2
:1012B80020EE04F05050D9265150DA22040EDF6295
:1012C80019D01B6E1F0E176E1B5051C019F050C05D
:1012D80018F020EE04F05050D9265150DA22DF5091
:1012E8009CEC0EF020EE04F05050D9265150DA2232
:1012F800000EDF6E4EA61200AB98AB881B6E1E0E5A
:10130800176E1B50000E196E000E186E000E9CEC26
:101318000EF01200E8CF88F1000EAC6E000EAB6E36
:101328000101010188B1AC880101010188A302D043
:10133800AC8CAB8C0101010188B5AC8E01010101B7
:1013480088A702D0AB8801D0AB8A0101010188B916
:10135800AC849E980101010188BBAB8601010101A3
:1013680088AD02D09D8A01D09D9A9E9A0101010103
:1013780088AF02D09D8801D09D9883C1AFFF01013D
:1013880084C185F185C186F10101876B0101865110
:10139800B06EAC8AAB8E949C948EACA81200ACBE96
:1013A8001200948C12000101010186518511D8B4F4
:1013B8003AD00101876F010E01010101886F010117
:1013C800875109D0010101010101D890853786377D
:1013D80001010101882B0101010186AFF3D7010149
:1013E8000101855101010101835D0101010186515E
:1013F800010101018459D8A00CD0010101018551D6
:1014080001010101835F010101018651010101010F
:10141800845B010101010101D89086338533010104
:101428000101882FDCD783C183F184C184F11200C4
:10143800316E000E326E31502BD02FC0D9FF30C024
:10144800DAFF48C0DFFF316E010E18D02FC0D9FF78
:1014580030C0DAFF49C0DFFF20EE01F02F50D92657
:101468003050DA224AC0DFFF316E020E07D02FC09B
:10147800D9FF30C0DAFF4BC0DFFFE5D7326E3150FD
:1014880014D02FC0D9FF30C0DAFF4CC0DFFFDBD744
:101498004F50000AD8B4D1D7010AD8B4D7D7030A15
:1014A800D8B4E5D7010AD8B4ECD74F2A4F50030B6C
:1014B8004F6E32501200E9CF77F1EACF78F1E1CFE1
:1014C80079F1E2CF7AF1D9CF7BF1DACF7CF1F3CFA2
:1014D8007DF1F4CF7EF1F6CF7FF1F7CF80F1F8CF31
:1014E80081F1F5CF82F19EA603D09E965DEC00F0C7
:1014F800F2A403D0F2941CEC0BF0B1EC0CF082C116
:10150800F5FF81C1F8FF80C1F7FF7FC1F6FF7EC1FB
:10151800F4FF7DC1F3FF7CC1DAFF7BC1D9FF7AC13B
:10152800E2FF79C1E1FF78C1EAFF77C1E9FF76C13F
:10153800FBFF75C1FAFF1100FBEC0CF00101010182
:10154800885101018711D8B412000101896F010E79
:101558004D6E010189510101010E01010101846FE4
:101568000101000E01010101836FF5EC0DF0000986
:10157800D8B407D00101896F000E4D6E0101895161
:1015880012000101010E01010101846F0101360EF3
:1015980001010101836FF5EC0DF00009D8B407D003
:1015A8000101896F000E4D6E0101895112000A0E6A
:1015B800F2EC0EF0D0D7010120EE34F00101835196
:1015C800D92601018451DA22000EDF6E010120EED6
:1015D80035F001018351D92601018451DA22000E28
:1015E800DF6E0101856F000E01010101866F0101A7
:1015F8008551030E01010101866501D01200010128
:10160800010186510D0DF350010101018325D96EA9
:10161800F450010101018421DA6E000EDF6E010130
:101628000101862B030E010101018665E8D712002E
:10163800F80E306E000E2F6E35EC0FF00001000E24
:1016480000010001816F0001870E00010001806F19
:101658000001000E00010001836F0001890E0001E6
:101668000001826F020E2BEC0EF000010001856F65
:101678000001866B000185BF8607000100018551C6
:10168800020A8611D8A412000001846F0A0E456E62
:10169800000184510001000E476E0001890E466E5C
:1016A800020EAFEC0EF012009DC1D9FF9EC1DAFF09
:1016B800DE2A000EDD229DC1D9FF9EC1DAFF01019D
:1016C800DECF83F10101DDCF84F1000E01010101BC
:1016D800866F0A0E0101856FD7EC09F0010101013F
:1016E8008351090A01018411D8A412000101A56FD0
:1016F800140E01010101996F0101A55101010101B8
:101708009EC19BF1010101019DC19AF1020EDAEC23
:101718000DF001010101A66F12000101876F000E93
:101728004D6E010187510101010E01010101846F14
:101738000101360E01010101836FDFEC0AF001019E
:10174800010E01010101846F0101000E0101010177
:10175800836FDFEC0AF00201020E01010101846FC0
:101768000201360E01010101836FDFEC0AF002016C
:10177800020E01010101846F0201000E0101010145
:10178800836FDFEC0AF012000101010184C1A9F1A5
:101798000101010183C1A8F1010120EE0AF0010154
:1017A800A851D9260101A951DA22000EDF6E0101E4
:1017B80020EE0BF00101A851D9260101A951DA2226
:1017C800000EDF6E010120EE0CF00101A851D926B0
:1017D8000101A951DA22050EDF6E010120EE0EF09B
:1017E8000101A851D9260101A951DA22000EDF6EA4
:1017F8001200010EF6C0D9FFF7C0DAFFDF6212004F
:10180800000120EE01F00001F651D9260001F75140
:10181800DA22DF50D8A412000001000E306E000159
:10182800EA0E2F6E1CEC0AF000010001F46F0001B3
:10183800000E00010001816F0001EA0E00010001A5
:10184800806F00010001F4C082F000010001836B89
:101858005EEC0CF012000101010186C18CF101015E
:10186800010185C18BF10101010184C18AF10101E6
:10187800010183C189F112D08BC1D9FF8CC1DAFF74
:1018880089C1E1FF8AC1E2FFDFCFE7FF0101010162
:101898008B4B8C2B01010101894B8A2B0101010122
:1018A8008707D8A0880701018729D8B48829D8B420
:1018B8001200E2D7000181C041F0000180C040F071
:1018C80082C042F083C043F00001000E456E000163
:1018D800840E446E000E476E640E466E10EC0EF0D9
:1018E80040C0E8F041C0E9F000010001E951E81109
:1018F800D8B412000001000E306E0001840E2F6E65
:1019080000010001E851FBEC06F0120002EE00F0C5
:101918006C0EEE6AE806FDE101EE00F06C0EEE6A70
:10192800E806FDE10001F76BF66B4F6A4E6A4D6AF7
:10193800A00EF66E1E0EF76E000EF86E00EE48F062
:1019480010EE05F00900F5CFEEFFE550E150FAE1A1
:10195800000EF86E00015DEF03F04D6601D0120035
:101968005CEC0EF032503110D8A412003EEC0FF0AF
:1019780030502F10D8B412000101010E306E010151
:10198800000E2F6EC2EC0EF00009D8A4120001015F
:10199800010E306E0101360E2F6EC2EC0EF00009FA
:1019A800D8B44DEC0FF01200F2AC08D0000E0101D3
:1019B8000101866F000E0101856F12001AEC0FF00D
:1019C80001010101845101018311D8B408D0000E2E
:1019D80001010101866F000E0101856F1200000EE2
:1019E80001010101866F010E0101856F1200D8EC1B
:1019F8000CF001010101865101018511D8A411D013
:101A08001AEC0FF001010101845101018311D8A4DE
:101A180008D0000E01010101886F010E0101876FD6
:101A28001200000E01010101886F000E0101876F8D
:101A38001200E8CF9FF10101010E010101018E6F33
:101A48000101360E010101018D6F9FC18FF1010166
:101A580001019CC191F1010101019BC190F10101BA
:101A680001019EC193F1010101019DC192F157EC61
:101A780005F01200E8CF9FF10101010E01010101FB
:101A88008E6F0101000E010101018D6F9FC18FF161
:101A9800010101019CC191F1010101019BC190F17A
:101AA800010101019EC193F1010101019DC192F162
:101AB80057EC05F0120004C00AF003C009F002C098
:101AC80008F001C007F00ED009C0D9FF0AC0DAFF3C
:101AD80007C0E1FF08C0E2FFDFCFE7FF094A0A2A93
:101AE800074A082A0506D8A006060528D8B40628F5
:101AF800D8B41200E9D732C038F031C037F030C05E
:101B080036F02FC035F00ED037C0D9FF38C0DAFF15
:101B180035C0E1FF36C0E2FFDFCFE7FF374A382A9A
:101B2800354A362A3306D8A034063328D8B43428A0
:101B3800D8B41200E9D70101010185511E0A8611A6
:101B4800D8B412000101010185511F0A8611D8A4D9
:101B58001200010101018751010101018925D96E96
:101B6800010101018851010101018A21DA6E000E8B
:101B7800DF6E1200E8CF83F10101010183517E0B72
:101B8800CD6E0101010183AD02D0CD8E01D0CD9E75
:101B9800000ECF6E000ECE6E9E900101010183AF44
:101BA80002D09D8001D09D90CD801200E8CF9CF19D
:101BB8000201020E010101018E6F0201000E0101F6
:101BC80001018D6F9CC18FF199C190F10101010153
:101BD8009BC192F1010101019AC191F179EC06F0E2
:101BE8001200010120EE35F001018351D9260101CF
:101BF8008451DA22DF500101856F010185510D0DF5
:101C0800F350010101018325D96EF450010101014E
:101C18008421DA6EDF50120041C030F040C02FF04E
:101C280042C031F043C032F045C034F044C033F014
:101C380046C035F047C036F0000E386E000E376EDD
:101C4800ECEC08F02FC040F030C041F01200E8CFB3
:101C580047F00201020E3A6E0201000E396E47C0CB
:101C68003BF0000181C03DF0000180C03CF0000164
:101C780083C03FF0000182C03EF075EC07F012000F
:101C88002CEC0FF001C01CF002C01DF01B6E0B0EF7
:101C9800176E1B50000E196E000E186E000E9CEC8D
:101CA8000EF0000E026E000E016E23EC0FF0120013
:101CB800F2AC05D0000E326E000E316E12003EEC12
:101CC8000FF030502F10D8B405D0000E326E000E31
:101CD800316E1200000E326E010E316E1200E8CF26
:101CE80083F10101010183517F0BD56E000ED76E80
:101CF800000ED66EF2940101010183AF02D0F28A80
:101D080001D0F29AD58E1200E8CF83F19486948898
:101D180083C1C8FF000EC76E000EC66E000EC56EEA
:101D28000E0EC612C78E94869488C580C68A120085
:101D3800E8CF1AF00101010E0C6E0101360E0B6E90
:101D48001AC00DF017C00EF019C010F018C00FF02F
:101D580042EC08F01200E8CF80F00101010E3A6E63
:101D68000101000E396E80C03BF045C03CF047C011
:101D78003EF046C03DF097EC08F0120020EE35F03A
:101D88002F50D9263050DA22DF50316E31500D0DE8
:101D9800F3502F24D96EF4503020DA6EDF50120041
:101DA800010184C151F0010183C150F020EE04F01B
:101DB8005050D9265150DA22000EDF6E1200F20E72
:101DC8004E16ABAC03D04E90ABB04E80ABB44E8445
:101DD800ABB24E86AECF01F001501200E8CF83F1CE
:101DE800FA0E00F0E82EFDD701010101832FF8D784
:101DF800120032C030F031C02FF044EC0FF02FC089
:101E0800F6F030C0F7F01200010101018AC18CF12F
:101E18000101010189C18BF1120083C1D9FF84C17D
:101E2800DAFF000EDE6E000EDD6E1200000EF2AE5E
:101E3800010E01010101836F0101846B120001C0D1
:101E480003F002C004F004C0CFFF03C0CEFF1200AD
:101E5800CECF03F0CFCF04F003C001F004C002F0EE
:101E680012002FC031F030C032F032C0D7FF31C07D
:101E7800D6FF1200000EF2AE010E2F6E306A12006D
:101E880030C030F02FC02FF01200D08EF28EF28CBE
:0E1E98001200D38E03001200010510D8FE00C8
:067FF80080F4C5FFFFF15B
:00000001FF
