:0400000056EF00F0C7
:0C000800FACF38F1FBCF39F19CEF08F083
:10001800D8CF1EF0E8CF1FF0E0CF20F0FACF21F0C4
:10002800FBCF22F0E9CF23F0EACF24F0E1CF25F08F
:10003800E2CF26F0D9CF27F0DACF28F0F3CF29F096
:10004800F4CF2AF0F6CF2BF0F7CF2CF0F8CF2DF025
:10005800F5CF2EF09EAC03D09E9CE7EC0AF02EC0A4
:10006800F5FF2DC0F8FF2CC0F7FF2BC0F6FF2AC004
:10007800F4FF29C0F3FF28C0DAFF27C0D9FF26C044
:10008800E2FF25C0E1FF24C0EAFF23C0E9FF22C048
:10009800FBFF21C0FAFF20C0E0FF1FC0E8FF1EC021
:1000A800D8FF100068EF0AF00001F16F000E0001A0
:1000B8000001FA6F0001F1510001F16F000E00011B
:1000C8000001F56F0001F1510001F16F000E000110
:1000D8000001F96F0001F1510001F16F000E0001FC
:1000E8000001F86F0001F1510001F16F000E0001ED
:1000F8000001F66F0001F151C6AC29D0C69C010180
:1001080020EE0CF001010051D92601010151DA223B
:10011800050EDF6E0001F16F010E00010001F66FA0
:100128000001F151010120EE0EF001010051D92624
:1001380001010151DA22DF2A010120EE0DF001014F
:100148000051D92601010151DA22040EDF6EC7A041
:100158000AD0C9CFF7F00001F16F010E00010001CC
:10016800FA6F0001F15100010001F667CED1B7D155
:10017800C7A6CBD100010001FA51F5EC06F0010148
:1001880020EE0CF001010051D92601010151DA22BB
:10019800080EDF62BAD10001F16F000E0001000104
:1001A800FA6F0001F1510001F16F010E0001000129
:1001B800F86F87D1C7A830D0010120EE0BF00101FC
:1001C8000051D92601010151DA22DF2A000100017C
:1001D800FA51D8B479D1C7BA09D00001F16F010E2C
:1001E80000010001F96F0001F1516ED1010120EE0B
:1001F8000EF001010051D92601010151DA22DF2A4E
:10020800010120EE0DF001010051D9260101015133
:10021800DA22060EDF6E58D100010001FA51D8B477
:1002280074D1010120EE0BF001010051D926010122
:100238000151DA22DF2AC7BA19D0C7B40BD001019D
:1002480020EE0CF001010051D92601010151DA22FA
:10025800070E76D0010120EE0CF001010051D926DD
:1002680001010151DA22080EDF6E1DD1010120EED5
:100278000EF001010051D92601010151DA22DF2ACD
:10028800010120EE0CF001010051D92601010151B4
:10029800DA22050EDF6E010120EE0DF0010100519A
:1002A800D92601010151DA22060E4AD0010120EEB9
:1002B80077F001010051D92601010151DA22DF50FE
:1002C8000001F16F010120EE76F001010051D926FD
:1002D80001010151DA22DF500001F15DD8B0F4D0FC
:1002E800010120EE77F001010051D92601010151E9
:1002F800DA22DF500001F16F0001F151010D0F0EFC
:10030800F326000EF422F350010101010025D96EF5
:10031800F450010101010121DA6EDF50C96E0101BB
:1003280020EE77F001010051D92601010151DA22AE
:10033800DF2A0001F16F010E00010001F56FC1D045
:10034800DF6EE3D0C7A862D0010120EE0BF00101F7
:100358000051D92601010151DA22DF2A00010001EA
:10036800FA51D8B44AD0C7AA27D0010120EE0AF022
:1003780001010051D92601010151DA22DF500001A3
:10038800F16F0001F151010DF35001010101002548
:10039800D96EF450010101010121DA6E0001F7C0A4
:1003A800DFFF010120EE0AF001010051D926010109
:1003B8000151DA22DF2A21D0010120EE0EF00101DD
:1003C8000051D92601010151DA22DF2A010120EE6C
:1003D8000DF001010051D92601010151DA22060E62
:1003E800DF6E010120EE0CF001010051D926010158
:1003F8000151DA22050EDF6E67D00001F16F010EA0
:1004080000010001F96F0001F1515ED00001000107
:10041800FA51D8B47AD0010120EE0BF00101005155
:10042800D92601010151DA22DF2AC7AA27D0010102
:1004380020EE0AF001010051D92601010151DA220A
:10044800DF500001F16F0001F151010DF35001017E
:1004580001010025D96EF450010101010121DA6E74
:100468000001F7C0DFFF010120EE0AF00101005191
:10047800D92601010151DA22DF2A47D0C7A4B6D60E
:10048800010120EE0CF001010051D92601010151B2
:10049800DA22080EDF6E0001F16F010E0001000183
:1004A800F96F0001F1510001F16F010E0001000127
:1004B800F86F0001F1510001F16F000E0001000119
:1004C800FA6F0001F15121D0010120EE0CF0010179
:1004D8000051D92601010151DA22050E31D7010157
:1004E80020EE0CF001010051D92601010151DA2258
:1004F800DF50050AD8B43CD6030AD8B45BD6010A43
:10050800D8B420D70F0AD8B4D1D600010001FA67B1
:1005180005D000010001F551D8B402D0C6A8C6889C
:10052800010120EE0AF001010051D9260101015113
:10053800DA22080EDF6424D000010001F96720D018
:10054800010120EE0CF001010051D92601010151F1
:10055800DA22050EDF6E010120EE0EF001010051D6
:10056800D92601010151DA22DF2A010120EE0DF01E
:1005780001010051D92601010151DA22070EDF6E6F
:1005880000010001F951D8B430D0010120EE0BF080
:1005980001010051D92601010151DA22010110EEB1
:1005A8000AF001010051E12601010151E222E75060
:1005B8000001F16F0001F151010DF350010101013A
:1005C8000025E16EF450010101010121E26EDFCF47
:1005D800E7FF010101C132F0010100C131F0EFEC88
:1005E8000CF0010120EE0AF04BD0010120EE0EF0D4
:1005F80001010051D92601010151DA22DF50D8B496
:1006080047D0010120EE0EF001010051D926010169
:100618000151DA22DF5000010001F26F010120EEE2
:100628000DF001010051D92601010151DA22DF50F4
:1006380000010001F36F010120EE0BF001010051F0
:10064800D92601010151DA22DF5000010001F46FBF
:100658000001F16F290E00010001856F0001F151C1
:100668000001000E00010001876F0001F20E000179
:100678000001866F030E49EC0DF0010120EE0EF02B
:1006880001010051D92601010151DA22000EDF6E65
:1006980000010001F851D8B41200C2EC0DF00001BD
:1006A800F16F000E00010001F86F0001F151120016
:1006B800000E030103011D6F000E03011C6F820E63
:1006C800D36E9B9CF2EC0DF0D6EC0CF00301030EFC
:1006D80001010101476F03011F0E01010101466F6E
:1006E80004EC0AF0CDEC09F0000E936E000E8A6E51
:1006F800910E34EC0DF09F869F9C9E0E5EEC0DF0E3
:100708009D86EEEC0DF0DDEC08F00301030E01010F
:1007180001015F6F03011B0E010101015E6F0301FF
:10072800030E01010101616F03010B0E01010101BB
:10073800606F0A0EC3EC0BF0030103011E6F030187
:1007480003011EBF04D1F1D00BC316F300D103017E
:1007580003011D511C11D8A40CD0030103010B691E
:100768000101636F010E030103011E6F0101635153
:100778009DD0000E03010301186F000E0301176FCF
:100788001ED00301000E030103011725D96E0301D2
:10079800030E030103011821DA6E03010B0E030196
:1007A80003011725E16E0301030E0301030118215C
:1007B800E26EDFCFE7FF03010301174B182B03019C
:1007C80003011851800A0101636F03011C510301E1
:1007D8000301175D030103011D51800A01016359DB
:1007E800D8A0CFD750D00101636F040E03010301D5
:1007F800006F010163510101636F0D0E03010301D5
:10080800016F01016351000E030103011D6F020E08
:1008180003011C6F000E030103011A6F000E030190
:10082800196F1ED00301000E030103011925D96EAB
:100838000301030E030103011A21DA6E03010B0EF3
:10084800030103011925E16E0301030E03010301EE
:100858001A21E26EDFCFE7FF03010301194B1A2BC0
:10086800030103011A51800A0101636F03011C513E
:1008780003010301195D030103011D51800A0101F0
:100888006359D8A0CFD71CC31EF3000E0301030180
:100898001D6F000E03011C6F09D0030103011651DF
:1008A800AA0AD8B454D7010AD8B49DD70101636FF6
:1008B800AA0E030103010B6F010163510101636F6C
:1008C800010E030103011E6F010163510301030EB1
:1008D80001010101476F03010B0E01010101466F80
:1008E800030103011E518BEC05F031D0000E01010C
:1008F80001014F6F000E01014E6F0301030E01014C
:100908000101516F03010B0E01010101506F030139
:1009180003011E5101010101526F0101536B0101D5
:1009280052BF53071FEC0DF012D0030103011B51F6
:100938000A0AD8B40CD0220AD8B406D7010AD8B407
:1009480003D7030AD8B4A9D7180AD8B4CFD7030154
:10095800030E010101015F6F03011B0E010101017B
:100968005E6F0301030E01010101616F03010B0EAC
:1009780001010101606F0A0EA2EC0BF003010301F3
:100988001E6F030103011EBFBED61FD0000E01015A
:1009980001014F6F000E01014E6F0301030E0101AB
:1009A8000101516F03010B0E01010101506F030199
:1009B80003011E5101010101526F0101536B010135
:1009C80052BF53071FEC0DF09ED6030103011B51C4
:1009D800320AD8B4DBD797D6010120EE35F00101F1
:1009E8005051D92601015151DA22DF50010101018C
:1009F800596F0101010159510D0DF3500101010118
:100A08005025010101015C6FF450010101015121E0
:100A180001015D6F010E5CC1D9FF5DC1DAFFDF62C4
:100A280074D0010120EE01F001015C51D9260101C9
:100A38005D51DA22DF5001010101525DD8B002D0C8
:100A4800FD0E1200010120EE01F001015C51D926D2
:100A580001015D51DA22DF500101576F0101575141
:100A6800010101015A6F01015B6B0101010156C1CE
:100A780047F10101010155C146F1030E01010101D0
:100A88005C250101576F000E010101015D21010183
:100A9800586F57C148F158C149F15AC14AF15BC171
:100AA8004BF139EC0AF0010120EE35F0010150510B
:100AB800D92601015151DA22010110EE35F0010168
:100AC8005051E12601015151E222E7500101576FCF
:100AD80001015729030BDF6E010120EE02F001012D
:100AE8005C51D92601015D51DA2253C1E1FF54C19D
:100AF800E2FFDFCFE7FF5CC1D9FF5DC1DAFF000E7F
:100B0800DF6E010101015A511200FC0E1200E8CFFC
:100B18004AF1010120EE76F001010051D9260101C8
:100B28000151DA22000EDF6E42D0010120EE76F08C
:100B380001010051D92601010151DA22DF500101DA
:100B4800486F01014851010DF3500101010146258B
:100B5800D96EF450010101014721DA6E010110EE4E
:100B680076F001010051E12601010151E222E7502E
:100B78000101496F01014951010D0F0EF326000EC5
:100B8800F422F350010101010025E16EF450010146
:100B980001010121E26EDFCFE7FF010120EE76F0CF
:100BA80001010051D92601010151DA22DF2A010190
:100BB80020EE76F001010051D92601010151DA2217
:100BC800DF500101486F010101014A510101485DEF
:100BD800D8A0ABD7010120EE76F001010051D9264B
:100BE80001010151DA2201014AC1DFFF010120EEB2
:100BF80077F001010051D92601010151DA22010ED5
:100C0800DF6E010120EE0FF001010051D92601012C
:100C18000151DA22DF50C96EC6881200E8CF33F0DE
:100C2800010120EE76F001010051D92601010151A0
:100C3800DA22000EDF6E3AD0010120EE76F00101D3
:100C48000051D92601010151DA22DF50316E3150AD
:100C5800010DF3502F24D96EF4503020DA6E0101C3
:100C680010EE76F001010051E12601010151E22266
:100C7800E750326E3250010D0F0EF326000EF422AB
:100C8800F350010101010025E16EF4500101010159
:100C98000121E26EDFCFE7FF010120EE76F00101CE
:100CA8000051D92601010151DA22DF2A010120EE83
:100CB80076F001010051D92601010151DA22DF50F5
:100CC800316E3350315CD8A0B7D7010120EE76F0F1
:100CD80001010051D92601010151DA2233C0DFFF99
:100CE800010120EE77F001010051D92601010151DF
:100CF800DA22010EDF6E010120EE0FF00101005132
:100D0800D92601010151DA22DF50C96EC6881200C6
:100D180000013BC080F000010001816B20EE34F03F
:100D28003950D9263A50DA22DF5000010001826F8B
:100D38000001000182510D0DF3503924000100011A
:100D4800836FF4503A200001846F83C0D9FF84C0B8
:100D5800DAFFDF50D8B402D0FF0E1200000120EEF7
:100D680001F000018351D92600018451DA223BC0E9
:100D7800DFFF000120EE02F000018351D9260001B7
:100D88008451DA223CC0DFFF030E000100018325F5
:100D98002F6E000E000100018421306E3EC032F03B
:100DA8003DC031F080C033F081C034F004EC0CF069
:100DB80020EE34F03950D9263A50DA2210EE34F0C9
:100DC8003950E1263A50E222E7503F6E3F28030BA4
:100DD800DF6E83C0D9FF84C0DAFF010EDF6E010E1B
:100DE8001200E8CF2FF0010120EE0BF001010051B5
:100DF800D92601010151DA22010EDF6E010120EE30
:100E08000AF001010051D92601010151DA22000E30
:100E1800DF6E2F50D8B43DD0C7AA21D0010120EEF3
:100E28000CF001010051D92601010151DA22050E09
:100E3800DF6E010120EE0EF001010051D9260101FB
:100E48000151DA22DF2A010120EE0DF001010051E3
:100E5800D92601010151DA22050EDF6E1200C7A45E
:100E68000CD0010120EE0CF001010051D92601013E
:100E78000151DA22080EDF6E1200010120EE0CF09B
:100E880001010051D92601010151DA22070EDF6E56
:100E98001200010120EE0CF001010051D9260101D8
:100EA8000151DA22060EDF6E120002010201005122
:100EB80001010101482501014A6F000E01010101EC
:100EC800492101014B6F01014B51800AF36E800EDD
:100ED800F35C640ED8B44A5DD8B01200000E01016C
:100EE80001014D6F000E01014C6F23D0010101017A
:100EF8004C51010101014625D96E010101014D51F5
:100F0800010101014721DA6E020102010051010DC0
:100F18000201010EF324E16E0201020EF420E26EDA
:100F2800DFCFE7FF02010201002B010101014C4B59
:100F38004D2B010101014D51800A01014A6F010148
:100F48004851010101014C5D010101014951800A2B
:100F580001014A59D8B01200C9D70DC012F0136A5E
:100F680020EE34F00B50D9260C50DA22DF50146EE4
:100F780014500D0DF3500B24156EF4500C20166E02
:100F880015C0D9FF16C0DAFFDF50D8B402D0FF0E63
:100F9800120020EE01F01550D9261650DA220DC0A5
:100FA800DFFF20EE02F01550D9261650DA220EC0C7
:100FB800DFFF030E1524016E000E1620026E10C00E
:100FC80004F00FC003F012C005F013C006F0E4EC03
:100FD8000BF020EE34F00B50D9260C50DA2210EE2C
:100FE80034F00B50E1260C50E222E750116E112824
:100FF800030BDF6E15C0D9FF16C0DAFF010EDF6ED6
:10100800010E1200030E3124396E000E32203A6EA2
:101018003A50800A3B6E3550395C3650800A3B584E
:10102800D8A005D0000E306E000E2F6E120033C00F
:10103800D9FF34C0DAFF010EDF6E20EE01F0335025
:10104800D9263450DA2237C0DFFF20EE02F03350C1
:10105800D9263450DA2231C0DFFF030E33243E6E26
:10106800000E34203F6E31503E243C6E32503F20FB
:101078003D6E0ED02FC0D9FF30C0DAFF3EC0E1FF71
:101088003FC0E2FFDFCFE7FF2F4A302A3E4A3F2A20
:101098003D503F1802E13C503E18D8A4EBD7030E50
:1010A80031242F6E000E3220306E1200E8CF4AF144
:1010B800000EC26E000EC06E01010101D8904631CB
:1010C8003C0BC26E46C148F10101483BF00E48177F
:1010D800300E010148170101010147510F0B0101B1
:1010E8004811C16E4AC148F10101D8904837010141
:1010F800D8904837380E010148174AC149F1010113
:10110800493B0F0E4917070E01014917010101015B
:101118004A51800B0101491101014811C06E0101BA
:10112800010146AF03D09E9C9D8CF28CC2801200B8
:10113800E9CF3AF1EACF3BF1E1CF3CF1E2CF3DF123
:10114800D9CF3EF1DACF3FF1F3CF40F1F4CF41F1FF
:10115800F6CF42F1F7CF43F1F8CF44F1F5CF45F19F
:101168009EA603D09E9658EC00F0F2A403D0F29409
:10117800A9EC0DF036EC0BF045C1F5FF44C1F8FFC2
:1011880043C1F7FF42C1F6FF41C1F4FF40C1F3FF7D
:101198003FC1DAFF3EC1D9FF3DC1E2FF3CC1E1FFDB
:1011A8003BC1EAFF3AC1E9FF39C1FBFF38C1FAFF89
:1011B800110080EC0BF0010101014B5101014A11B2
:1011C800D8B4120001014C6F010E446E01014C515C
:1011D8000101010E01010101476F0101020E010128
:1011E8000101466FBBEC0CF00009D8B407D001012F
:1011F8004C6F000E446E01014C5112000201020EA8
:1012080001010101476F02019B0E01010101466FB7
:10121800BBEC0CF00009D8B407D001014C6F000EEC
:10122800446E01014C5112000A0EB7EC0DF0D0D7F4
:10123800010120EE34F001014651D9260101475140
:10124800DA22000EDF6E010120EE35F00101465171
:10125800D92601014751DA22000EDF6E0101486FDD
:10126800000E01010101496F01014851030E0101FE
:101278000101496501D012000101010149510D0D1B
:10128800F350010101014625D96EF4500101010115
:101298004721DA6E000EDF6E01010101492B030EB2
:1012A800010101014965E8D71200000E01010101A1
:1012B8004A6F000E0101496F12D00201010E0101AF
:1012C80001014925D96E0201020E010101014A21DD
:1012D800DA6E000EDF6E01010101494B4A2B020153
:1012E800020100510101466F476B010101014A519A
:1012F800800A0101486F465101010101495D010160
:101308004751800A01014859D8A0D7D70101466F33
:10131800000E02010201006F010146511200020194
:10132800020E00010001816F0201010E000100019F
:10133800806F0201000100C282F000010001836B8E
:101348000001000E00010001856F0001880E0001F8
:101358000001846F000E00010001876F670E000115
:10136800866F24EC0CF0000180C0EFF0000181C012
:10137800F0F000010001F051EF11D8B412000001A3
:10138800000E306E0001880E2F6E670E12EC06F00C
:10139800120001014A6F000E446E01014A51020118
:1013A800020E01010101476F02019B0E01010101BB
:1013B800466F1CEC09F00101010E01010101476FA4
:1013C8000101020E01010101466F1CEC09F0020146
:1013D800020E01010101476F0201650E01010101C1
:1013E800466F1CEC09F00301030E01010101476F70
:1013F8000301980E01010101466F1CEC09F012006F
:101408000101010147C101F10101010146C100F1DA
:10141800010120EE0AF001010051D9260101015114
:10142800DA22000EDF6E010120EE0BF001010051FF
:10143800D92601010151DA22000EDF6E010120EEEA
:101448000CF001010051D92601010151DA22050EE3
:10145800DF6E010120EE0EF001010051D9260101D5
:101468000151DA22000EDF6E12000101010149C1AB
:101478004FF10101010148C14EF10101010147C1CC
:101488004DF10101010146C14CF112D04EC1D9FF05
:101498004FC1DAFF4CC1E1FF4DC1E2FFDFCFE7FFEB
:1014A800010101014E4B4F2B010101014C4B4D2B0A
:1014B800010101014A07D8A04B0701014A29D8B404
:1014C8004B29D8B41200E2D703EE98F0360EEE6A34
:1014D800E806FDE102EE00F0D10EEE6AE806FDE155
:1014E80001EE00F0380EEE6AE806FDE100EE40F08D
:1014F8000D0EEE6AE806FDE1F00EF66E1B0EF76EB5
:10150800000EF86E00EE4DF010EE05F00900F5CF74
:10151800EEFFE550E150FAE1000EF86E00015CEFD5
:1015280003F002A006D0000E43EC0CF0000E61ECB4
:101538000CF002A206D0010E43EC0CF0010E61EC97
:101548000CF002A406D0020E43EC0CF0020E61EC83
:101558000CF002A606D0030E43EC0CF0030E61EC6F
:101568000CF002A81200040E43EC0CF0040E61EC1F
:101578000CF0120030A006D0000E7FEC0CF0000E2C
:101588009DEC0CF030A206D0010E7FEC0CF0010EA1
:101598009DEC0CF030A406D0020E7FEC0CF0020E8D
:1015A8009DEC0CF030A606D0030E7FEC0CF0030E79
:1015B8009DEC0CF030A81200040E7FEC0CF0040E29
:1015C8009DEC0CF01200E4EC0DF001C01CF002C020
:1015D8001DF0D8901D321C32D8901D321C32000EDE
:1015E800036E020E026E95EC0AF01C5085EC0DF0AD
:1015F800060E466412001B6E320E176E1B50000E4C
:10160800196E480E186E070E72EC0DF01B6E000E68
:10161800466E1B501200000E336E000E326E0CD058
:101628000201010E3224D96E0201020E3320DA6E55
:10163800000EDF6E324A332A0201020100512F6E7A
:10164800306A3350800A316E2F50325C3050800A35
:101658003158D8A0E5D72F6E000E02010201006FA5
:101668002F501200446601D0120008EC0DF03250E1
:101678003110D8A41200DEEC0DF030502F10D8B481
:1016880012000101010E306E0101020E2F6E97EC5F
:101698000DF00009D8A412000201020E306E0201FA
:1016A8009B0E2F6E97EC0DF00009D8B4F5EC0DF0F9
:1016B8001200F2AC08D0000E01010101496F000EC2
:1016C8000101486F1200CCEC0DF0010101014751F6
:1016D80001014611D8B408D0000E01010101496F7B
:1016E800000E0101486F1200000E01010101496F4F
:1016F800010E0101486F12005DEC0BF001010101C0
:10170800495101014811D8A411D0CCEC0DF00101C8
:101718000101475101014611D8A408D0000E01016A
:1017280001014B6F010E01014A6F1200000E010109
:1017380001014B6F000E01014A6F1200E8CF62F100
:101748000201020E01010101516F02019B0E01010C
:101758000101506F62C152F1010101015FC154F1F1
:10176800010101015EC153F10101010161C156F19D
:101778000101010160C155F1F0EC04F01200E8CF5D
:1017880062F10101010E01010101516F0101020E17
:1017980001010101506F62C152F1010101015FC1F4
:1017A80054F1010101015EC153F10101010161C15F
:1017B80056F10101010160C155F1F0EC04F012008D
:1017C80004C00AF003C009F002C008F001C007F025
:1017D8000ED009C0D9FF0AC0DAFF07C0E1FF08C070
:1017E800E2FFDFCFE7FF094A0A2A074A082A050667
:1017F800D8A006060528D8B40628D8B41200E9D718
:1018080032C038F031C037F030C036F02FC035F074
:101818000ED037C0D9FF38C0DAFF35C0E1FF36C077
:10182800E2FFDFCFE7FF374A382A354A362A330640
:10183800D8A034063328D8B43428D8B41200E9D74D
:10184800000181C030F0000180C02FF082C031F06B
:1018580083C032F0000185C034F0000184C033F049
:1018680086C035F087C036F0000E386E000E376E31
:1018780006EC08F02FC080F030C081F01200E8CFED
:1018880001F00AD08A8012008A8212008A8412002B
:101898008A8612008A8812000150000AD8B4F2D74A
:1018A800010AD8B4F1D7030AD8B4F0D7010AD8B4DA
:1018B800EFD7070AD8A41200EDD7E8CF01F00AD075
:1018C8008A9012008A9212008A9412008A96120054
:1018D8008A9812000150000AD8B4F2D7010AD8B485
:1018E800F1D7030AD8B4F0D7010AD8B4EFD7070A5A
:1018F800D8A41200EDD7E8CF2FF00AD08A801200C2
:101908008A8212008A8412008A8612008A8812004B
:101918002F50000AD8B4F2D7010AD8B4F1D7030A75
:10192800D8B4F0D7010AD8B4EFD7070AD8A4120060
:10193800EDD7E8CF2FF00AD08A9012008A921200D1
:101948008A9412008A9612008A9812002F50000A70
:10195800D8B4F2D7010AD8B4F1D7030AD8B4F0D76B
:10196800010AD8B4EFD7070AD8A41200EDD70101AD
:1019780020EE35F001014651D92601014751DA22FE
:10198800DF500101486F010148510D0DF35001016D
:1019980001014625D96EF450010101014721DA6E93
:1019A800DF50120001014B6F8F0E01010101466FDC
:1019B80001014B5101014C6F0C0E01010101476FF0
:1019C80001014C51810E5AEC08F0928292849E9C3F
:1019D800F28C9D8C120032C030F031C02FF0E9EC4F
:1019E8000DF02FC033F030C034F033C0D9FF34C00D
:1019F800DAFFDF50406E20EE01F03350D926345024
:101A0800DA22DF50416E1200F2AC05D0000E326EC1
:101A1800000E316E1200DEEC0DF030502F10D8B4ED
:101A280005D0000E326E000E316E1200000E326EBE
:101A3800010E316E1200010101014F514E11D8A45F
:101A480012000101010151C147F10101010150C119
:101A580046F152C148F153C149F159EC07F012005F
:101A6800E8CF46F10101010146517F0BD56E000E0A
:101A7800D76E000ED66EF2940101010146AF02D076
:101A8800F28A01D0F29AD58E1200E8CF88F00101CF
:101A9800010E3A6E0101020E396E88C03BF085C016
:101AA8003CF0000187C03EF0000186C03DF08CECA0
:101AB80006F01200E8CF46F19486948846C1C8FF24
:101AC800000EC76E000EC66E000EC56E0E0EC61254
:101AD800C78E94869488C580C68A1200E8CF1AF00B
:101AE8000101010E0C6E0101020E0B6E1AC00DF001
:101AF80017C00EF019C010F018C00FF0B1EC07F0C5
:101B08001200E8CF01F0070E465CD8B0120046502C
:101B1800010D480EF324D96E000EF420DA6E01C0D0
:101B2800DFFF462A120020EE35F02F50D92630501C
:101B3800DA22DF50316E31500D0DF3502F24D96E5B
:101B4800F4503020DA6EDF501200000E316E010EB4
:101B5800306EBEEC0AF0C282FE0E306E880E2F6E1A
:101B6800D5EC0DF01200E8CF46F1FA0E00F0E82EA1
:101B7800FDD701010101462FF8D712004004D8A46F
:101B880012004166120093EC09F00FEC0BF0120002
:101B9800000EF2AE010E01010101466F0101476B13
:101BA80012002FC031F030C032F032C0D7FF31C040
:101BB800D6FF1200000EF2AE010E2F6E306A120030
:101BC800C450026EC350016E120030C030F02FC0F6
:101BD8002FF01200D08EF28EF28C120059EC09F020
:0E1BE8001200D38E03001200010510D8FE007B
:067FF80080F4C5FFFFF15B
:00000001FF
