:0400000056EF00F0C7
:0C000800FACF3AF0FBCF3BF0E8EF04F039
:10001800D8CF05F0E8CF06F0E0CF07F0FACF08F028
:10002800FBCF09F0E9CF0AF0EACF0BF0E1CF0CF0F3
:10003800E2CF0DF0D9CF0EF0DACF0FF0F3CF10F0FA
:10004800F4CF11F0F6CF12F0F7CF13F0F8CF14F089
:10005800F5CF15F09EA003D09E9028EC08F015C0AF
:10006800F5FF14C0F8FF13C0F7FF12C0F6FF11C068
:10007800F4FF10C0F3FF0FC0DAFF0EC0D9FF0DC0A8
:10008800E2FF0CC0E1FF0BC0EAFF0AC0E9FF09C0AC
:10009800FBFF08C0FAFF07C0E0FF06C0E8FF05C085
:1000A800D8FF100040EF06F0306E000E396E305069
:1000B800306E000E346E3050306E000E386E305098
:1000C800306E000E376E3050306E000E356E305088
:1000D800C6AC25D0C69C000120EE0CF00001D3511F
:1000E800D9260001D451DA22050EDF6E306E010EDA
:1000F800356E3050000120EE0EF00001D351D926A4
:100108000001D451DA22DF2A000120EE0DF00001AF
:10011800D351D9260001D451DA22040EDF6EC7A0CC
:1001280006D0C9CF36F0306E010E396E30503566C4
:100138009CD185D1C7A699D13950E6EC03F00001CE
:1001480020EE0CF00001D351D9260001D451DA2257
:10015800080EDF628AD1306E000E396E3050306E74
:10016800010E376E5FD1C7A82AD0000120EE0BF030
:100178000001D351D9260001D451DA22DF2A39509F
:10018800D8B452D1C7BA05D0306E010E386E30508F
:100198004BD1000120EE0EF00001D351D926000109
:1001A800D451DA22DF2A000120EE0DF00001D351EC
:1001B800D9260001D451DA22060EDF6E35D1395026
:1001C800D8B453D1000120EE0BF00001D351D92649
:1001D8000001D451DA22DF2AC7BA19D0C7B40BD02C
:1001E800000120EE0CF00001D351D9260001D451B2
:1001F800DA22070E6FD0000120EE0CF00001D35177
:10020800D9260001D451DA22080EDF6E04D100018C
:1002180020EE0EF00001D351D9260001D451DA2284
:10022800DF2A000120EE0CF00001D351D92600018D
:10023800D451DA22050EDF6E000120EE0DF0000128
:10024800D351D9260001D451DA22060E43D0000139
:1002580020EE77F00001D351D9260001D451DA22DB
:10026800DF50306E000120EE76F00001D351D92620
:100278000001D451DA22DF50305CD8B0D5D000016B
:1002880020EE77F00001D351D9260001D451DA22AB
:10029800DF50306E3050010D0F0EF326000EF422A1
:1002A800F35000010001D325D96EF450000100017C
:1002B800D421DA6EDF50C96E000120EE77F000011C
:1002C800D351D9260001D451DA22DF2A306E010E2B
:1002D800346EA8D0DF6EC9D0C7A859D0000120EE6F
:1002E8000BF00001D351D9260001D451DA22DF2ABC
:1002F8003950D8B447D0C7AA24D0000120EE0AF05C
:100308000001D351D9260001D451DA22DF50306ED2
:100318003050010DF35000010001D325D96EF4507F
:1003280000010001D421DA6E36C0DFFF000120EEA3
:100338000AF00001D351D9260001D451DA22DF2A6C
:1003480021D0000120EE0EF00001D351D926000182
:10035800D451DA22DF2A000120EE0DF00001D3513A
:10036800D9260001D451DA22060EDF6E000120EEF4
:100378000CF00001D351D9260001D451DA22050E20
:10038800DF6E52D0306E010E386E30504DD039507D
:10039800D8B46BD0000120EE0BF00001D351D92660
:1003A8000001D451DA22DF2AC7AA24D0000120EEA6
:1003B8000AF00001D351D9260001D451DA22DF50C6
:1003C800306E3050010DF35000010001D325D96E75
:1003D800F45000010001D421DA6E36C0DFFF0001BD
:1003E80020EE0AF00001D351D9260001D451DA22B7
:1003F800DF2A3BD0C7A4CDD6000120EE0CF00001C7
:10040800D351D9260001D451DA22080EDF6E306E9E
:10041800010E386E3050306E010E376E3050306E2F
:10042800000E396E305021D0000120EE0CF0000192
:10043800D351D9260001D451DA22050E4BD7000139
:1004480020EE0CF00001D351D9260001D451DA2254
:10045800DF50050AD8B46ED6030AD8B484D6010A88
:10046800D8B43AD70F0AD8B4F2D6396603D0345084
:10047800D8B402D0C6A8C688000120EE0AF0000150
:10048800D351D9260001D451DA22080EDF6422D0D4
:10049800386620D0000120EE0CF00001D351D92697
:1004A8000001D451DA22050EDF6E000120EE0EF0B5
:1004B8000001D351D9260001D451DA22DF2A0001E4
:1004C80020EE0DF00001D351D9260001D451DA22D3
:1004D800070EDF6E3850D8B404D0000120EE0AF0C1
:1004E8003BD0000120EE0EF00001D351D9260001C7
:1004F800D451DA22DF50D8B437D0000120EE0EF004
:100508000001D351D9260001D451DA22DF50316ECF
:10051800000120EE0DF00001D351D9260001D4517D
:10052800DA22DF50326E000120EE0BF00001D351C9
:10053800D9260001D451DA22DF50336E306E290EED
:100548002C6E3050000E2E6E310E2D6E030E03EC05
:1005580008F0000120EE0EF00001D351D926000169
:10056800D451DA22000EDF6E3750D8B41200306E44
:10057800000E376E30501200000120EE35F00001F9
:10058800C051D9260001C151DA22DF500001000113
:10059800C96F00010001C9510D0DF35000010001A0
:1005A800C02500010001CC6FF45000010001C121F9
:1005B8000001CD6F010ECCC0D9FFCDC0DAFFDF62DC
:1005C80074D0000120EE01F00001CC51D9260001C1
:1005D800CD51DA22DF5000010001C25DD8B002D04F
:1005E800FD0E1200000120EE01F00001CC51D926C9
:1005F8000001CD51DA22DF500001C76F0001C75159
:1006080000010001CA6F0001CB6B00010001C6C0E8
:10061800B7F000010001C5C0B6F0030E00010001EB
:10062800CC250001C76F000E00010001CD2100019B
:10063800C86FC7C0B8F0C8C0B9F0CAC0BAF0CBC05C
:10064800BBF011EC06F0000120EE35F00001C051BE
:10065800D9260001C151DA22000110EE35F000015F
:10066800C051E1260001C151E222E7500001C76FE5
:100678000001C729030BDF6E000120EE02F0000124
:10068800CC51D9260001CD51DA22C3C0E1FFC4C044
:10069800E2FFDFCFE7FFCCC0D9FFCDC0DAFF000E05
:1006A800DF6E00010001CA511200FC0E1200000E9C
:1006B800010101010C6F000E01010B6F820ED36E58
:1006C8009B9C0101010E00010001B76F0101100E92
:1006D80000010001B66FDCEC05F0A5EC05F0000E9A
:1006E800936E000E8A6E910EEEEC07F0F50EA0ECFC
:1006F80007F09F909F869D86000E00010001B76F4E
:100708009B0E0001B66F7C0E9FEC04F0B886AC8A95
:10071800AB8EAB886BEC08F029EC05F00101010EFB
:1007280000010001CF6F01010F0E00010001CE6F23
:100738000101010E00010001D16F0101000E00014D
:100748000001D06F0A0E23EC07F0010101010E6FC2
:10075800010101010EBF13D003D000C10DF10FD06C
:10076800010101010F510A0AD8B409D0220AD8B4EC
:10077800F4D7010AD8B4F1D7030AD8A4180A01019A
:10078800010E00010001CF6F01010F0E00010001F1
:10079800CE6F0101010E00010001D16F0101000EB1
:1007A80000010001D06F0A0E02EC07F001010101FF
:1007B8000E6F010101010EBFAFD7010101010F51F9
:1007C800320AAAD7E8CF16F0000120EE0BF000019C
:1007D800D351D9260001D451DA22010EDF6E00016F
:1007E80020EE0AF00001D351D9260001D451DA22B3
:1007F800000EDF6E1650D8B43DD0C7AA21D0000134
:1008080020EE0CF00001D351D9260001D451DA2290
:10081800050EDF6E000120EE0EF00001D351D9263F
:100828000001D451DA22DF2A000120EE0DF0000188
:10083800D351D9260001D451DA22050EDF6E1200F9
:10084800C7A40CD0000120EE0CF00001D351D9262A
:100858000001D451DA22080EDF6E1200000120EEEA
:100868000CF00001D351D9260001D451DA22070E29
:10087800DF6E1200000120EE0CF00001D351D926E2
:100888000001D451DA22060EDF6E120022C027F0D2
:10089800286A20EE34F02050D9262150DA22DF5081
:1008A800296E29500D0DF35020242A6EF450212072
:1008B8002B6E2AC0D9FF2BC0DAFFDF50D8B402D084
:1008C800FF0E120020EE01F02A50D9262B50DA2212
:1008D80022C0DFFF20EE02F02A50D9262B50DA2260
:1008E80023C0DFFF030E2A24166E000E2B20176E7E
:1008F80025C019F024C018F027C01AF028C01BF032
:1009080044EC07F020EE34F02050D9262150DA22AA
:1009180010EE34F02050E1262150E222E750266EF6
:100928002628030BDF6E2AC0D9FF2BC0DAFF010E81
:10093800DF6E010E1200E8CFBBF0000EAC6E000EA9
:10094800AB6E00010001BBB1AC8800010001BBA384
:1009580002D0AC8CAB8C00010001BBB5AC8E0001A1
:100968000001BBA702D0AB8801D0AB8A000100010F
:10097800BBB9AC849E9800010001BBBBAB860001EB
:100988000001BBAD02D09D8A01D09D9A9E9A0001BC
:100998000001BBAF02D09D8801D09D98B6C0AFFFC3
:1009A8000001B7C0B8F0B8C0B9F00001BA6B0001D7
:1009B800B951B06EAC8AAB8E949C948EACA81200E0
:1009C800ACBE1200948C1200E9CF3CF0EACF3DF0A7
:1009D800E1CF3EF0E2CF3FF0D9CF40F0DACF41F09F
:1009E800F3CF42F0F4CF43F0F6CF44F0F7CF45F021
:1009F800F8CF46F0F5CF47F09EA603D09E9658EC68
:100A080000F0F2A403D0F29475EC08F096EC06F02E
:100A180047C0F5FF46C0F8FF45C0F7FF44C0F6FFE2
:100A280043C0F4FF42C0F3FF41C0DAFF40C0D9FF22
:100A38003FC0E2FF3EC0E1FF3DC0EAFF3CC0E9FF26
:100A48003BC0FBFF3AC0FAFF1100E0EC06F00001E2
:100A58000001BB510001BA11D8B412000001BC6FEB
:100A6800010E4A6E0001BC510101010E0001000196
:100A7800B76F0101BF0E00010001B66FBCEC07F0B3
:100A88000009D8B407D00001BC6F000E4A6E0001FF
:100A9800BC5112000001000E00010001B76F0001F7
:100AA800800E00010001B66FBCEC07F00009D8B455
:100AB80007D00001BC6F000E4A6E0001BC51120045
:100AC8000A0E38EC08F0D0D7000120EE34F000010F
:100AD800B651D9260001B751DA22000EDF6E0001A7
:100AE80020EE35F00001B651D9260001B751DA22BF
:100AF800000EDF6E0001B86F000E00010001B96F33
:100B08000001B851030E00010001B96501D01200BF
:100B180000010001B9510D0DF35000010001B62587
:100B2800D96EF45000010001B721DA6E000EDF6EB5
:100B380000010001B92B030E00010001B965E8D7D7
:100B480012000001BA6F000E4A6E0001BA5100018E
:100B5800000E00010001B76F0001800E00010001C6
:100B6800B66F68EC05F00101010E00010001B76FD6
:100B78000101BF0E00010001B66F68EC05F001012C
:100B8800010E00010001B76F0101890E000100018B
:100B9800B66F68EC05F00201020E00010001B76FA4
:100BA8000201000E00010001B66F68EC05F01200AA
:100BB80000010001B7C0D4F000010001B6C0D3F0B5
:100BC800000120EE0AF00001D351D9260001D451CA
:100BD800DA22000EDF6E000120EE0BF00001D35187
:100BE800D9260001D451DA22000EDF6E000120EE72
:100BF8000CF00001D351D9260001D451DA22050E98
:100C0800DF6E000120EE0EF00001D351D92600015D
:100C1800D451DA22000EDF6E120000010001B9C0C3
:100C2800BFF000010001B8C0BEF000010001B7C06C
:100C3800BDF000010001B6C0BCF012D0BEC0D9FFA3
:100C4800BFC0DAFFBCC0E1FFBDC0E2FFDFCFE7FFF6
:100C580000010001BE4BBF2B00010001BC4BBD2BA6
:100C680000010001BA07D8A0BB070001BA29D8B40F
:100C7800BB29D8B41200E2D702EE00F0360EEE6AB5
:100C8800E806FDE101EE89F06C0EEE6AE806FDE18A
:100C980000EE80F0360EEE6AE806FDE100EE48F060
:100CA8000B0EEE6AE806FDE1E40EF66E100EF76E26
:100CB800000EF86E00EE53F010EE05F00900F5CFC7
:100CC800EEFFE550E150FAE1000EF86E00015BEF2F
:100CD80003F002A006D0000E64EC07F0000E82ECD0
:100CE80007F002A206D0010E64EC07F0010E82ECB8
:100CF80007F002A406D0020E64EC07F0020E82ECA4
:100D080007F002A606D0030E64EC07F0030E82EC8F
:100D180007F002A81200040E64EC07F0040E82EC3F
:100D280007F012004A6601D01200D7EC07F01950FC
:100D38001810D8A4120065EC08F017501610D8B493
:100D480012000101010E176E0101BF0E166E16EC9E
:100D580008F00009D8A412000001000E176E000167
:100D6800800E166E16EC08F00009D8B46FEC08F087
:100D78001200F2AC08D0000E00010001B96F000E9D
:100D88000001B86F12004DEC08F000010001B751E6
:100D98000001B611D8B408D0000E00010001B96FE7
:100DA800000E0001B86F1200000E00010001B96FBB
:100DB800010E0001B86F1200BDEC06F00001000141
:100DC800B9510001B811D8A411D04DEC08F00001B8
:100DD8000001B7510001B611D8A408D0000E0001D7
:100DE8000001BB6F010E0001BA6F1200000E000176
:100DF8000001BB6F000E0001BA6F1200E8CFD2F0FD
:100E08000001000E00010001C16F0001800E000109
:100E18000001C06FD2C0C2F000010001CFC0C4F011
:100E280000010001CEC0C3F000010001D1C0C6F02E
:100E380000010001D0C0C5F0C0EC02F01200E8CFFC
:100E4800D2F00101010E00010001C16F0101BF0EC6
:100E580000010001C06FD2C0C2F000010001CFC084
:100E6800C4F000010001CEC0C3F000010001D1C0F0
:100E7800C6F000010001D0C0C5F0C0EC02F01200BD
:100E880019C01FF018C01EF017C01DF016C01CF0C6
:100E98000ED01EC0D9FF1FC0DAFF1CC0E1FF1DC065
:100EA800E2FFDFCFE7FF1E4A1F2A1C4A1D2A1A0647
:100EB800D8A01B061A28D8B41B28D8B41200E9D722
:100EC800E8CF01F00AD08A8012008A8212008A8450
:100ED80012008A8612008A8812000150000AD8B4CB
:100EE800F2D7010AD8B4F1D7030AD8B4F0D7010A67
:100EF800D8B4EFD7070AD8A41200EDD7E8CF01F08D
:100F08000AD08A9012008A9212008A9412008A9655
:100F180012008A9812000150000AD8B4F2D7010AC8
:100F2800D8B4F1D7030AD8B4F0D7010AD8B4EFD7A8
:100F3800070AD8A41200EDD7E8CFB6F000010001E7
:100F4800B6517E0BCD6E00010001B6AD02D0CD8E3C
:100F580001D0CD9E000ECF6E000ECE6E9E90000189
:100F68000001B6AF02D09D8001D09D90CD801200C7
:100F7800000120EE35F00001B651D9260001B75125
:100F8800DA22DF500001B86F0001B8510D0DF3509F
:100F980000010001B625D96EF45000010001B72107
:100FA800DA6EDF501200F2AC05D0000E196E000E9A
:100FB800186E120065EC08F017501610D8B405D05A
:100FC800000E196E000E186E1200000E196E010E3A
:100FD800186E1200E8CFB6F000010001B6517F0B81
:100FE800D56E000ED76E000ED66EF2940001000189
:100FF800B6AF02D0F28A01D0F29AD58E1200E8CFAD
:101008002FF00101010E216E0101BF0E206E2FC0CD
:1010180022F02CC023F02EC025F02DC024F04AEC7D
:1010280004F0120020EE35F01650D9261750DA22B7
:10103800DF50186E18500D0DF3501624D96EF45069
:101048001720DA6EDF501200000E036E040E026ED7
:101058006DEC06F0550E5FEC08F0F10E026E590EBD
:10106800016E56EC08F01200E8CFB6F0FA0E00F068
:10107800E82EFDD700010001B62FF8D71200E8CFFF
:1010880001F0ACAC03D0AC904BB2AC8001C0ADFF6A
:101098001200000EF2AE010E00010001B66F000151
:1010A800B76B120001C003F002C004F004C0CFFF08
:1010B80003C0CEFF1200E8CF02F0025043EC08F064
:1010C8001200000EF2AE010E166E176A1200D08ED4
:1010D800F28EF28C1200D38E03001200010510D894
:0410E800FE001200F4
:067FF80080F4C5FFFFF15B
:00000001FF
