:040000005BEF00F0C2
:0C000800FACFBFF0FBCFC0F05BEF09F0B7
:10001800D8CF1EF0E8CF1FF0E0CF20F0FACF21F0C4
:10002800FBCF22F0E9CF23F0EACF24F0E1CF25F08F
:10003800E2CF26F0D9CF27F0DACF28F0F3CF29F096
:10004800F4CF2AF0F6CF2BF0F7CF2CF0F8CF2DF025
:10005800F5CF2EF09EA003D09E90BDEC0CF09EAA8A
:1000680003D09E9A7FEC08F02EC0F5FF2DC0F8FF54
:100078002CC0F7FF2BC0F6FF2AC0F4FF29C0F3FFFE
:1000880028C0DAFF27C0D9FF26C0E2FF25C0E1FF5C
:1000980024C0EAFF23C0E9FF22C0FBFF21C0FAFF0A
:1000A80020C0E0FF1FC0E8FF1EC0D8FF10002AEFE5
:1000B8000DF0496E000E00010001BE6F4950496EF7
:1000C800000E00010001B96F4950496E000E000191
:1000D8000001BD6F4950496E000E00010001BC6F60
:1000E8004950496E000E00010001BA6F4950C6AC74
:1000F80027D0C69C000120EE0CF00001E751D9265C
:100108000001E851DA22050EDF6E496E010E00018A
:100118000001BA6F4950000120EE0EF00001E751CE
:10012800D9260001E851DA22DF2A000120EE0DF07D
:100138000001E751D9260001E851DA22040EDF6EEA
:10014800C7A008D0C9CFBBF0496E010E000100015D
:10015800BE6F495000010001BA67B8D1A1D1C7A646
:10016800B5D100010001BE5171EC07F0000120EE8D
:100178000CF00001E751D9260001E851DA22080EF7
:10018800DF62A4D1496E000E00010001BE6F495024
:10019800496E010E00010001BC6F75D1C7A82ED0B1
:1001A800000120EE0BF00001E751D9260001E851CB
:1001B800DA22DF2A00010001BE51D8B466D1C7BADD
:1001C80007D0496E010E00010001BD6F49505DD195
:1001D800000120EE0EF00001E751D9260001E85198
:1001E800DA22DF2A000120EE0DF00001E751D926BE
:1001F8000001E851DA22060EDF6E47D10001000146
:10020800BE51D8B463D1000120EE0BF00001E751D4
:10021800D9260001E851DA22DF2AC7BA19D0C7B4B3
:100228000BD0000120EE0CF00001E751D9260001A7
:10023800E851DA22070E71D0000120EE0CF000011F
:10024800E751D9260001E851DA22080EDF6E10D1F5
:10025800000120EE0EF00001E751D9260001E85117
:10026800DA22DF2A000120EE0CF00001E751D9263E
:100278000001E851DA22050EDF6E000120EE0DF0D4
:100288000001E751D9260001E851DA22060E45D0CF
:10029800000120EE1AF00001E751D9260001E851CB
:1002A800DA22DF50496E000120EE19F00001E75113
:1002B800D9260001E851DA22DF50495CD8B0E5D0F0
:1002C800000120EE1AF00001E751D9260001E8519B
:1002D800DA22DF50496E4950010D0F0EF326000E49
:1002E800F422F35000010001E725D96EF450000113
:1002F8000001E821DA6EDF50C96E000120EE1AF025
:100308000001E751D9260001E851DA22DF2A496EB7
:10031800010E00010001B96FB6D0DF6ED7D0C7A8B3
:100328005ED0000120EE0BF00001E751D926000154
:10033800E851DA22DF2A00010001BE51D8B448D0C2
:10034800C7AA25D0000120EE0AF00001E751D926FE
:100358000001E851DA22DF50496E4950010DF3508F
:1003680000010001E725D96EF45000010001E821E1
:10037800DA6E0001BBC0DFFF000120EE0AF00001C9
:10038800E751D9260001E851DA22DF2A21D00001FD
:1003980020EE0EF00001E751D9260001E851DA22DB
:1003A800DF2A000120EE0DF00001E751D9260001F7
:1003B800E851DA22060EDF6E000120EE0CF0000193
:1003C800E751D9260001E851DA22050EDF6E5DD02B
:1003D800496E010E00010001BD6F495056D0000161
:1003E8000001BE51D8B472D0000120EE0BF000011C
:1003F800E751D9260001E851DA22DF2AC7AA25D019
:10040800000120EE0AF00001E751D9260001E85169
:10041800DA22DF50496E4950010DF3500001000106
:10042800E725D96EF45000010001E821DA6E0001D9
:10043800BBC0DFFF000120EE0AF00001E751D9261A
:100448000001E851DA22DF2A41D0C7A4C1D6000151
:1004580020EE0CF00001E751D9260001E851DA221C
:10046800080EDF6E496E010E00010001BD6F495094
:10047800496E010E00010001BC6F4950496E000E23
:1004880000010001BE6F495021D0000120EE0CF0A0
:100498000001E751D9260001E851DA22050E3DD7BF
:1004A800000120EE0CF00001E751D9260001E851C7
:1004B800DA22DF50050AD8B452D6030AD8B46ED669
:1004C800010AD8B42CD70F0AD8B4E2D6000100012B
:1004D800BE6705D000010001B951D8B402D0C6A842
:1004E800C688000120EE0AF00001E751D926000174
:1004F800E851DA22080EDF6424D000010001BD674C
:1005080020D0000120EE0CF00001E751D9260001AF
:10051800E851DA22050EDF6E000120EE0EF0000130
:10052800E751D9260001E851DA22DF2A000120EE3E
:100538000DF00001E751D9260001E851DA22070E33
:10054800DF6E00010001BD51D8B43ED0000120EE9D
:100558000BF00001E751D9260001E851DA22000129
:1005680010EE0AF00001E751E1260001E851E2220D
:10057800E750496E4950010DF35000010001E7258D
:10058800E16EF45000010001E821E26EDFCFE7FFE1
:10059800496E280E456E49500001E8C047F0000139
:1005A800E7C046F0000120EE0AF00001E751D92625
:1005B8000001E851DA22DF504A6E4A2850EC0DF06B
:1005C800000120EE0AF043D0000120EE0EF00001F9
:1005D800E751D9260001E851DA22DF50D8B43FD0DC
:1005E800000120EE0EF00001E751D9260001E85184
:1005F800DA22DF5000010001B66F000120EE0DF095
:100608000001E751D9260001E851DA22DF50000144
:100618000001B76F000120EE0BF00001E751D92669
:100628000001E851DA22DF5000010001B86F496E7D
:10063800290E456E49500001000E476E0001B60EA6
:10064800466E030E50EC0DF0000120EE0EF0000196
:10065800E751D9260001E851DA22000EDF6E0001C9
:100668000001BC51D8B41200496E2A0E456E49509B
:100678000001E8C047F00001E7C046F0000E50EC6A
:100688000DF0496E000E00010001BC6F49501200C8
:10069800000E01010101D46F000E0101D36F820E1B
:1006A800D36E9B9C0101010E00010001CE6F010178
:1006B800CC0E00010001CD6F75EC0DF00101010EAB
:1006C80000010001CE6F0101D70E00010001CD6FBE
:1006D80088EC0AF00101010E00010001CE6F010152
:1006E800D10E00010001CD6FA7EC0DF051EC0AF01E
:1006F800000E936E000E8A6E960EECEC0CF0F50E62
:100708006BEC0CF09F909F9A9F869E0E16EC0DF056
:100718009D86000E00010001CE6F190E0001CD6FFD
:100728006C0ECDEC08F0DAEC0DF09CEC09F0010150
:10073800010E01010101A36F0101D50E01010101A3
:10074800A26F0101010E01010101A56F0101B80E9F
:1007580001010101A46F0A0EABEC0BF001010101CC
:10076800D66F01010101D6BF19D109D10101010ECE
:1007780000010001CE6F0101C50E00010001CD6F1F
:1007880001010001D5C1CFF000010001D06B0101CA
:100798000101D65100010001D16F0001D26B0001A7
:1007A800D1BFD2070101010E00010001D46F010180
:1007B800B80E00010001D36F9EEC0DF0EFD0B8C168
:1007C800C7F1ECD0020ECCEC0BF0030ECCEC0BF026
:1007D80001010101D451D311D8A40CD001010101A8
:1007E800B8690101AC6F010E01010101D66F010169
:1007F800AC5142D0000E01010101C96F000E010188
:10080800C86F1ED00101AD0E01010101C825D96EC6
:100818000101010E01010101C921DA6E0101B80EC1
:1008280001010101C825E16E0101010E010101016B
:10083800C921E26EDFCFE7FF01010101C84BC92BD7
:1008480001010101C951800A0101AC6F0101D351B5
:1008580001010101C85D01010101D451800A0101B2
:10086800AC59D8A0CFD7D3C1D6F1000E01010101F0
:10087800D46F000E0101D36F030EECEC0BF06CD0BB
:10088800020ECCEC0BF0040ECCEC0BF00101AC6FBB
:10089800040E01010101AD6F0101AC510101AC6F02
:1008A8000D0E01010101AE6F0101AC51000E0101F5
:1008B8000101D46F020E0101D36F000E0101010185
:1008C800CB6F000E0101CA6F1ED00101AD0E0101F0
:1008D8000101CA25D96E0101010E01010101CB21D7
:1008E800DA6E0101B80E01010101CA25E16E0101AC
:1008F800010E01010101CB21E26EDFCFE7FF01010B
:100908000101CA4BCB2B01010101CB51800A010126
:10091800AC6F0101D35101010101CA5D010101015F
:10092800D451800A0101AC59D8A0CFD7D3C1D6F190
:10093800000E01010101D46F000E0101D36F040EF6
:10094800ECEC0BF009D001010101C751AA0AD8B497
:1009580039D7010AD8B494D70101010E000100016A
:10096800CE6F0101B80E00010001CD6F0101010138
:10097800D651FFEC05F0020EECEC0BF00FD00101A4
:100988000101D5510A0AD8B4F1D6220AD8B417D72A
:10099800010AD8B414D7030AD8B4D5D70101010E77
:1009A80001010101A36F0101D50E01010101A26F2F
:1009B8000101010E01010101A56F0101B80E01013C
:1009C8000101A46F0A0E8AEC0BF001010101D66F38
:1009D80001010101D6BFA9D663D001010101D4519B
:1009E800800AF36E800EF35C0C0ED8B4D35DD8B0D9
:1009F8009CD601010101D34BD42B97D60101010EDE
:100A080001010101A36F0101D10E01010101A26FD2
:100A180001010101D5C1A4F101010101A56B010189
:100A28000101D65101010101A66F0101A76B010166
:100A3800A6BFA7070101010E01010101A96F01016C
:100A4800B80E01010101A86F18EC0AF06ED6010179
:100A5800010E00010001CE6F0101C30E000100016B
:100A6800CD6F01010001D5C1CFF000010001D06BAD
:100A780001010101D65100010001D16F0001D26BC3
:100A88000001D1BFD2070101010E00010001D46F9E
:100A98000101B80E00010001D36F4CEC0CF045D6F3
:100AA80001010101D5510B0AD8B4A8D7150AD8B449
:100AB800CED7010AD8B4CBD72D0AD8B48ED735D61D
:100AC800000120EE35F00001D751D9260001D85198
:100AD800DA22DF5000010001E06F00010001E0515F
:100AE8000D0DF35000010001D72500010001E36F4F
:100AF800F45000010001D8210001E46F010EE3C0A9
:100B0800D9FFE4C0DAFFDF6274D0000120EE01F003
:100B18000001E351D9260001E451DA22DF50000137
:100B28000001D95DD8B002D0FD0E1200000120EE00
:100B380001F00001E351D9260001E451DA22DF5027
:100B48000001DE6F0001DE5100010001E16F0001CC
:100B5800E26B00010001DDC0CEF000010001DCC045
:100B6800CDF0030E00010001E3250001DE6F000E49
:100B780000010001E4210001DF6FDEC0CFF0DFC01B
:100B8800D0F0E1C0D1F0E2C0D2F0EFEC0AF0000101
:100B980020EE35F00001D751D9260001D851DA22CC
:100BA800000110EE35F00001D751E1260001D851BF
:100BB800E222E7500001DE6F0001DE29030BDF6E41
:100BC800000120EE02F00001E351D9260001E451B2
:100BD800DA22DAC0E1FFDBC0E2FFDFCFE7FFE3C0E4
:100BE800D9FFE4C0DAFF000EDF6E00010001E15119
:100BF8001200FC0E1200E8CFD1F0000120EE19F02F
:100C08000001E751D9260001E851DA22000EDF6E13
:100C180042D0000120EE19F00001E751D926000169
:100C2800E851DA22DF500001CF6F0001CF51010DEA
:100C3800F35000010001CD25D96EF45000010001E8
:100C4800CE21DA6E000110EE19F00001E751E1261D
:100C58000001E851E222E7500001D06F0001D051B5
:100C6800010D0F0EF326000EF422F35000010001CF
:100C7800E725E16EF45000010001E821E26EDFCFC4
:100C8800E7FF000120EE19F00001E751D926000125
:100C9800E851DA22DF2A000120EE19F00001E751BD
:100CA800D9260001E851DA22DF500001CF6F000198
:100CB8000001D1510001CF5DD8A0ABD7000120EED3
:100CC80019F00001E751D9260001E851DA220001A4
:100CD800D1C0DFFF000120EE1AF00001E751D9264C
:100CE8000001E851DA22010EDF6E000120EE0FF05C
:100CF8000001E751D9260001E851DA22DF50C96E18
:100D0800C688120000010001D9C0DEF00001000110
:100D1800DF6B000120EE34F00001D751D926000125
:100D2800D851DA22DF5000010001E06F0001000114
:100D3800E0510D0DF35000010001D725000100011D
:100D4800E16FF45000010001D8210001E26FE1C019
:100D5800D9FFE2C0DAFFDF50D8B402D0FF0E12008C
:100D6800000120EE01F00001E151D9260001E25115
:100D7800DA220001D9C0DFFF000120EE02F00001F5
:100D8800E151D9260001E251DA220001DAC0DFFF81
:100D9800030E00010001E12500010001CD6F000EE6
:100DA80000010001E2210001CE6F00010001DCC05A
:100DB800D0F000010001DBC0CFF0DEC0D1F0DFC011
:100DC800D2F0EFEC0AF0000120EE34F00001D75128
:100DD800D9260001D851DA22000110EE34F00001C2
:100DE800D751E1260001D851E222E7500001DD6F1A
:100DF8000001DD29030BDF6EE1C0D9FFE2C0DAFF95
:100E0800010EDF6E010E120020EE35F03950D926A2
:100E18003A50DA22DF50426E42500D0DF350392419
:100E2800456EF4503A20466E010E45C0D9FF46C0C3
:100E3800DAFFDF6250D020EE01F04550D926465047
:100E4800DA22DF503B5CD8B002D0FD0E120020EE53
:100E580001F04550D9264650DA22DF50406E405006
:100E6800436E446A3FC030F03EC02FF0030E452465
:100E7800406E000E4620416E40C031F041C032F055
:100E880043C033F044C034F02CEC0CF020EE35F0C5
:100E98003950D9263A50DA2210EE35F03950E12689
:100EA8003A50E222E750406E4028030BDF6E20EEF6
:100EB80002F04550D9264650DA223CC0E1FF3DC039
:100EC800E2FFDFCFE7FF45C0D9FF46C0DAFF000EDB
:100ED800DF6E43501200FC0E1200E8CF2FF0000125
:100EE80020EE0BF00001E751D9260001E851DA2283
:100EF800010EDF6E000120EE0AF00001E751D9264D
:100F08000001E851DA22000EDF6E2F50D8B43DD030
:100F1800C7AA21D0000120EE0CF00001E751D92624
:100F28000001E851DA22050EDF6E000120EE0EF016
:100F38000001E751D9260001E851DA22DF2A000131
:100F480020EE0DF00001E751D9260001E851DA2220
:100F5800050EDF6E1200C7A40CD0000120EE0CF0C5
:100F68000001E751D9260001E851DA22080EDF6EA8
:100F78001200000120EE0CF00001E751D926000113
:100F8800E851DA22070EDF6E1200000120EE0CF0A5
:100F98000001E751D9260001E851DA22060EDF6E7A
:100FA80012000DC012F0136A20EE34F00B50D9264F
:100FB8000C50DA22DF50146E14500D0DF3500B2430
:100FC800156EF4500C20166E15C0D9FF16C0DAFF46
:100FD800DF50D8B402D0FF0E120020EE01F01550F9
:100FE800D9261650DA220DC0DFFF20EE02F0155088
:100FF800D9261650DA220EC0DFFF030E1524016E23
:10100800000E1620026E10C004F00FC003F012C0CC
:1010180005F013C006F00CEC0CF020EE34F00B5089
:10102800D9260C50DA2210EE34F00B50E1260C5081
:10103800E222E750116E1128030BDF6E15C0D9FFAD
:1010480016C0DAFF010EDF6E010E12003BC040F041
:10105800416A20EE34F03950D9263A50DA22DF506E
:10106800426E42500D0DF3503924436EF4503A202D
:10107800446E43C0D9FF44C0DAFFDF50D8B402D071
:10108800FF0E120020EE01F04350D9264450DA2218
:101098003BC0DFFF20EE02F04350D9264450DA224D
:1010A8003CC0DFFF030E43242F6E000E4420306E39
:1010B8003EC032F03DC031F040C033F041C034F0A2
:1010C8002CEC0CF020EE34F03950D9263A50DA22C4
:1010D80010EE34F03950E1263A50E222E7503F6EE4
:1010E8003F28030BDF6E43C0D9FF44C0DAFF010E6F
:1010F800DF6E010E12009EAA3CD020EE04F04D5087
:10110800D9264E50DA22DF501B6E1B50010DF350CA
:101118004D24D96EF4504E20DA6E84EC0DF0DF6E5B
:1011280020EE04F04D50D9264E50DA22DF2A20EE68
:1011380004F04D50D9264E50DA22040EDF6219D041
:101148001B6E1F0E176E1B504EC019F04DC018F0C5
:1011580020EE04F04D50D9264E50DA22DF503DECF7
:101168000DF020EE04F04D50D9264E50DA22000E34
:10117800DF6E50A61200AB98AB881B6E1E0E176E62
:101188001B50000E196E000E186E000E3DEC0DF08F
:101198001200E8CFD2F0000EAC6E000EAB6E00016C
:1011A8000001D2B1AC8800010001D2A302D0AC8CFE
:1011B800AB8C00010001D2B5AC8E00010001D2A7B2
:1011C80002D0AB8801D0AB8A00010001D2B9AC844F
:1011D8009E9800010001D2BBAB8600010001D2AD90
:1011E80002D09D8A01D09D9A9E9A00010001D2AF3B
:1011F80002D09D8801D09D98CDC0AFFF0001CEC020
:10120800CFF0CFC0D0F00001D16B0001D051B06E4B
:10121800AC8AAB8E949C948EACA81200ACBE120023
:10122800948C120000010001D051CF11D8B43AD0EB
:101238000001D16F010E00010001D26F0001D151F0
:1012480009D0000100010001D890CF37D037000144
:101258000001D22B00010001D0AFF3D7000100013B
:10126800CF5100010001CD5D00010001D051000106
:101278000001CE59D8A00CD000010001CF510001C7
:101288000001CD5F00010001D05100010001CE5BDB
:10129800000100010001D890D033CF3300010001D4
:1012A800D22FDCD7CDC0CDF0CEC0CEF01200E9CF22
:1012B800C1F0EACFC2F0E1CFC3F0E2CFC4F0D9CF9A
:1012C800C5F0DACFC6F0F3CFC7F0F4CFC8F0F6CF49
:1012D800C9F0F7CFCAF0F8CFCBF0F5CFCCF09EA687
:1012E80003D09E965DEC00F0F2A403D0F294BDEC1E
:1012F8000AF01EEC0BF0CCC0F5FFCBC0F8FFCAC05B
:10130800F7FFC9C0F6FFC8C0F4FFC7C0F3FFC6C0E7
:10131800DAFFC5C0D9FFC4C0E2FFC3C0E1FFC2C045
:10132800EAFFC1C0E9FFC0C0FBFFBFC0FAFF110060
:1013380068EC0BF000010001D2510001D111D8B4C2
:1013480012000001D36F010E4F6E0001D35101014D
:10135800010E00010001CE6F01016C0E00010001B9
:10136800CD6FA2EC0CF00009D8B407D00001D36F00
:10137800000E4F6E0001D35112000001000E000153
:101388000001CE6F0001800E00010001CD6FA2ECBC
:101398000CF00009D8B407D00001D36F000E4F6ECF
:1013A8000001D35112000A0E93EC0DF0D0D70001C2
:1013B80020EE34F00001CD51D9260001CE51DA22B9
:1013C800000EDF6E000120EE35F00001CD51D92668
:1013D8000001CE51DA22000EDF6E0001CF6F000E41
:1013E80000010001D06F0001CF51030E0001000180
:1013F800D06501D0120000010001D0510D0DF3504D
:1014080000010001CD25D96EF45000010001CE2164
:10141800DA6E000EDF6E00010001D02B030E000112
:101428000001D065E8D71200A2C1D9FFA3C1DAFF35
:10143800DE2A000EDD22A2C1D9FFA3C1DAFF000116
:10144800DECFCDF00001DDCFCEF0000E00010001AF
:10145800D06F0A0E0001CF6F16EC09F000010001F1
:10146800CD51090A0001CE11D8A412000101AA6FBA
:10147800140E00010001E36F0101AA5101010001EE
:10148800A3C1E5F001010001A2C1E4F0020E87EC5E
:101498000CF001010101AB6F12000001D16F000EC9
:1014A8004F6E0001D1510001000E00010001CE6F06
:1014B8000001800E00010001CD6FDBEC09F0010195
:1014C800010E00010001CE6F01016C0E0001000148
:1014D800CD6FDBEC09F00101010E00010001CE6FB8
:1014E8000101360E00010001CD6FDBEC09F00101AE
:1014F800010E00010001CE6F0101000E0001000184
:10150800CD6FDBEC09F0120000010001CEC0E8F05D
:1015180000010001CDC0E7F0000120EE0AF0000153
:10152800E751D9260001E851DA22000EDF6E0001EA
:1015380020EE0BF00001E751D9260001E851DA222C
:10154800000EDF6E000120EE0CF00001E751D926F5
:101558000001E851DA22050EDF6E000120EE0EF0E0
:101568000001E751D9260001E851DA22000EDF6EAA
:101578001200000E306E000E2F6ECBEC0DF0000145
:10158800000E486E0001B80E476E0001000E4A6E4C
:101598000001BA0E496E020E01EC0DF000010001C7
:1015A800B66F0001B76B0001B6BFB70700010001B5
:1015B800B651020AB711D8A412004C6E0A0E456E35
:1015C8004C500001000E476E0001BA0E466E020E26
:1015D80050EC0DF0120000010001D0C0D6F000015F
:1015E8000001CFC0D5F000010001CEC0D4F0000149
:1015F8000001CDC0D3F012D0D5C0D9FFD6C0DAFFD4
:10160800D3C0E1FFD4C0E2FFDFCFE7FF0001000154
:10161800D54BD62B00010001D34BD42B0001000180
:10162800D107D8A0D2070001D129D8B4D229D8B47B
:101638001200E2D74F6601D01200D5EC0CF0325000
:101648003110D8A41200D4EC0DF030502F10D8B4BB
:1016580012000101010E306E01016C0E2F6E63EC59
:101668000DF00009D8A412000001000E306E000130
:10167800800E2F6E63EC0DF00009D8B4DEEC0DF08F
:101688001200F2AC08D0000E00010001D06F000E6D
:101698000001CF6F1200B0EC0DF000010001CE5137
:1016A8000001CD11D8B408D0000E00010001D06FA0
:1016B800000E0001CF6F1200000E00010001D06F74
:1016C800010E0001CF6F120045EC0BF00001000184
:1016D800D0510001CF11D8A411D0B0EC0DF0000109
:1016E8000001CE510001CD11D8A408D0000E000190
:1016F8000001D26F010E0001D16F1200000E00012F
:101708000001D26F000E0001D16F1200E8CFE5F0A2
:101718000001000E00010001D86F0001800E0001D9
:101728000001D76FE5C0D9F001010001A3C1DBF0CA
:1017380001010001A2C1DAF001010001A5C1DDF03B
:1017480001010001A4C1DCF064EC05F01200E8CF4F
:10175800E5F00101010E00010001D86F01016C0ED6
:1017680000010001D76FE5C0D9F001010001A3C154
:10177800DBF001010001A2C1DAF001010001A5C1FD
:10178800DDF001010001A4C1DCF064EC05F01200F9
:10179800E8CFCDF00AD08A8012008A8212008A84AB
:1017A80012008A8612008A88120000010001CD51B9
:1017B800000AD8B4F0D7010AD8B4EFD7030AD8B4CE
:1017C800EED7010AD8B4EDD7070AD8A41200EBD790
:1017D800E8CFCDF00AD08A9012008A9212008A943B
:1017E80012008A9612008A98120000010001CD5159
:1017F800000AD8B4F0D7010AD8B4EFD7030AD8B48E
:10180800EED7010AD8B4EDD7070AD8A41200EBD74F
:1018180004C00AF003C009F002C008F001C007F0D4
:101828000ED009C0D9FF0AC0DAFF07C0E1FF08C01F
:10183800E2FFDFCFE7FF094A0A2A074A082A050616
:10184800D8A006060528D8B40628D8B41200E9D7C7
:1018580032C038F031C037F030C036F02FC035F024
:101868000ED037C0D9FF38C0DAFF35C0E1FF36C027
:10187800E2FFDFCFE7FF374A382A354A362A3306F0
:10188800D8A034063328D8B43428D8B41200E9D7FD
:1018980000010001CF511E0AD011D8B41200000176
:1018A8000001CF511F0AD011D8A412000001000175
:1018B800D15100010001D325D96E00010001D25198
:1018C80000010001D421DA6E000EDF6E1200E8CFAD
:1018D800CDF000010001CD517E0BCD6E000100015D
:1018E800CDAD02D0CD8E01D0CD9E000ECF6E000EB4
:1018F800CE6E9E9000010001CDAF02D09D8001D038
:101908009D90CD801200E8CFE6F00101010E0001A4
:101918000001D86F0101000E00010001D76FE6C079
:10192800D9F0E3C0DAF000010001E5C0DCF0000105
:101938000001E4C0DBF086EC06F01200000120EEA6
:1019480035F00001CD51D9260001CE51DA22DF5001
:101958000001CF6F0001CF510D0DF35000010001C0
:10196800CD25D96EF45000010001CE21DA6EDF508A
:101978001200C2EC0DF001C01CF002C01DF01B6E7D
:101988000B0E176E1B50000E196E000E186E000E0F
:101998003DEC0DF0000E026E000E016EB9EC0DF07C
:1019A8001200F2AC05D0000E326E000E316E12003D
:1019B800D4EC0DF030502F10D8B405D0000E326E94
:1019C800000E316E1200000E326E010E316E1200E2
:1019D800E8CFCDF000010001CD517F0BD56E000E90
:1019E800D76E000ED66EF29400010001CDAF02D082
:1019F800F28A01D0F29AD58E1200E8CF4BF001019D
:101A0800010E3A6E0101000E396E4BC03BF048C022
:101A18003DF047C03CF04AC03FF049C03EF008ECFA
:101A280007F01200E8CFCDF094869488CDC0C8FFA7
:101A3800000EC76E000EC66E000EC56E0E0EC612E4
:101A4800C78E94869488C580C68A120001EE00F07D
:101A5800A20EEE6AE806FDE100EE80F0360EEE6AB0
:101A6800E806FDE1506A4F6A000EF86E00014CEF7F
:101A780003F0E8CF1AF00001000E0C6E0001800E92
:101A88000B6E1AC00DF017C00EF019C010F018C078
:101A98000FF0D5EC07F01200E8CF48F00101010E75
:101AA8003A6E01016C0E396E48C03BF045C03CF0FF
:101AB80047C03EF046C03DF02AEC08F0120020EE88
:101AC80035F02F50D9263050DA22DF50316E3150A0
:101AD8000D0DF3502F24D96EF4503020DA6EDF50FC
:101AE80012000001CEC04EF00001CDC04DF020EE36
:101AF80004F04D50D9264E50DA22000EDF6E120047
:101B0800F20E5016ABAC03D05090ABB05080ABB4D3
:101B18005084ABB25086AECF01F001501200E8CF2E
:101B2800CDF0FA0E00F0E82EFDD700010001CD2F10
:101B3800F8D7120000010001D4C0D6F0000100015E
:101B4800D3C0D5F01200CDC0D9FFCEC0DAFF000E49
:101B5800DE6E000EDD6E1200000EF2AE010E000108
:101B68000001CD6F0001CE6B120001C003F002C06E
:101B780004F004C0CFFF03C0CEFF1200CECF03F0A5
:101B8800CFCF04F003C001F004C002F012002FC050
:101B980031F030C032F032C0D7FF31C0D6FF12006A
:101BA800000EF2AE010E2F6E306A1200D08EF28E49
:0A1BB800F28C1200D38E030012001D
:067FF80080F4C5FFFFF15B
:00000001FF
