:0400000051EF00F0CC
:0C000800FACF18F0FBCF19F0A4EF03F0C2
:10001800D8CF01F0E8CF02F0E0CF03F0FACF04F038
:10002800FBCF05F0E9CF06F0EACF07F0E1CF08F003
:10003800E2CF09F0D9CF0AF0DACF0BF0F3CF0CF00A
:10004800F4CF0DF0F6CF0EF0F7CF0FF0F8CF10F099
:10005800F5CF11F011C0F5FF10C0F8FF0FC0F7FF82
:100068000EC0F6FF0DC0F4FF0CC0F3FF0BC0DAFFA3
:100078000AC0D9FF09C0E2FF08C0E1FF07C0EAFFD4
:1000880006C0E9FF05C0FBFF04C0FAFF03C0E0FF9C
:1000980002C0E8FF01C0D8FF1000EFEF05F0000E26
:1000A800010101010C6F000E01010B6F820ED36E6E
:1000B8009B9C0101010E276E0101100E266E3BEC80
:1000C80006F016EC06F0000E936E000E8A6E910E86
:1000D800ABEC06F09F869D8618EC07F03AEC07F02B
:1000E80076EF00F057EC03F00101010E3F6E0101BD
:1000F8000F0E3E6E0101010E416E0101000E406EB1
:100108000A0E94EC06F0010101010E6F01010101D4
:100118000EAF91EF00F093EF00F0A9EF00F0C4EFFD
:1001280000F0C4EF00F0C4EF00F0A9EF00F0C4EF56
:1001380000F000C10DF1C4EF00F0C4EF00F0C4EF0F
:1001480000F0C4EF00F0C4EF00F0010101010F510D
:100158000A0AD8B4C4EF00F0220AD8B49DEF00F020
:10016800010AD8B49DEF00F0030AD8B4C4EF00F038
:10017800180AD8B4C4EF00F0C4EF00F0C4EF00F0E0
:100188000101010E3F6E01010F0E3E6E0101010ECD
:10019800416E0101000E406E0A0E7DEC06F0010171
:1001A80001010E6F010101010EAFDDEF00F0DFEF7D
:1001B80000F0EDEF00F076EF00F076EF00F076EF6C
:1001C80000F0EDEF00F076EF00F076EF00F076EF5C
:1001D80000F0010101010F51320AD8B476EF00F0A6
:1001E80076EF00F076EF00F076EF00F076EF00F0B3
:1001F80051EF00F020EE35F03050D9263150DA2298
:10020800DF50396E39500D0DF35030243C6EF450E8
:1002180031203D6E010E3CC0D9FF3DC0DAFFDF62E0
:1002280018EF01F01AEF01F077EF01F020EE01F07E
:100238003C50D9263D50DA22DF50325CD8B027EF47
:1002480001F029EF01F02EEF01F0FD0E7CEF01F037
:100258007CEF01F020EE01F03C50D9263D50DA2227
:10026800DF50376E37503A6E3B6A36C027F035C0DC
:1002780026F0030E3C24376E000E3D20386E37C042
:1002880028F038C029F03AC02AF03BC02BF074ECB3
:1002980005F020EE35F03050D9263150DA2210EE34
:1002A80035F03050E1263150E222E750376E3728DA
:1002B800030BDF6E20EE02F03C50D9263D50DA22C7
:1002C80033C0E1FF34C0E2FFDFCFE7FF3CC0D9FF16
:1002D8003DC0DAFF000EDF6E3A507CEF01F07CEF94
:1002E80001F07CEF01F0FC0E7CEF01F07CEF01F0F7
:1002F8001200C7B082EF01F084EF01F091EF01F036
:10030800000E146E010E136EF1EC03F0C58AC58859
:10031800010EEEEF01F0EEEF01F0C9CF16F020EE7E
:100328000BF05350D9265450DA22DF50156E155071
:10033800010DF3505324D96EF4505420DA6E16C0D0
:10034800DFFF20EE0BF05350D9265450DA22DF2A73
:10035800030EDF62B2EF01F0B4EF01F0BDEF01F080
:1003680020EE0AF05350D9265450DA221650030FC3
:10037800DF6E20EE0BF05350D9265450DA22DF50AE
:10038800156E20EE0AF05350D9265450DA22DF5069
:10039800155CD8A0D2EF01F0D4EF01F0DBEF01F04B
:1003A800C58AC588010EEEEF01F0EEEF01F0C59A9F
:1003B800C588000E146E080E136EF1EC03F020EEE3
:1003C8000DF05350D9265450DA220A0EDF6E000E73
:1003D800EEEF01F012003DEF02F03DEC04F05AEFB1
:1003E80002F0C5ACFAEF01F0FCEF01F000EF02F00B
:1003F800C7EC05F05AEF02F020EE0DF05350D92665
:100408005450DA22070EDF6EC5865AEF02F05AEF13
:1004180002F07DEC01F0176E1704D8A416EF02F075
:1004280018EF02F05AEF02F0C7EC05F05AEF02F0AD
:100438005AEF02F020EE0DF05350D9265450DA222C
:10044800070EDF6EC586000E146E020E136EF1ECF9
:1004580003F05AEF02F020EE0DF05350D926545015
:10046800DA22050EDF6E5AEF02F05AEF02F05AEF69
:1004780002F020EE0DF05350D9265450DA22DF5006
:10048800060AD8B4F1EF01F0010AD8B40DEF02F072
:100498000F0AD8B4F5EF01F0010AD8B42FEF02F033
:1004A800030AD8B41EEF02F05AEF02F01200E8CFA8
:1004B80012F020EE0DF05350D9265450DA22DF50B6
:1004C800050AD8B46AEF02F06CEF02F070EF02F0A0
:1004D800AEEF02F0AEEF02F020EE7AF05350D926DC
:1004E8005450DA22000EDF6ED8801234136E20EEDC
:1004F80010F05350D9265450DA2213C0DFFF20EEF3
:1005080077F05350D9265450DA22010EDF6E20EED0
:1005180078F05350D9265450DA22000EDF6E20EEC0
:100528000AF05350D9265450DA22030EDF6E20EE1B
:100538000BF05350D9265450DA22000EDF6EC580D6
:1005480020EE0DF05350D9265450DA22060EDF6EF5
:10055800AEEF02F01200EDEF02F03DEC04F002EF16
:1005680003F0C5BCBAEF02F0BCEF02F0C8EF02F02E
:1005780060EC06F00009D8B4C4EF02F0C6EF02F050
:10058800CCEF02F0C8EF02F0C7EC05F002EF03F081
:100598003DEC04F0156E1504D8A4D5EF02F0D7EFA2
:1005A80002F002EF03F0C7EC05F002EF03F002EFF0
:1005B80003F002EF03F020EE0DF05350D92654500B
:1005C800DA22050EDF6E02EF03F002EF03F002EF0E
:1005D80003F020EE0DF05350D9265450DA22DF50A4
:1005E800060AD8B4B1EF02F00E0AD8B4B5EF02F09B
:1005F800010AD8B4DFEF02F002EF03F012004566FB
:1006080008EF03F00AEF03F00EEF03F056EF03F0E4
:1006180056EF03F0E5EC04F015501410D8B417EFBA
:1006280003F019EF03F01DEF03F056EF03F056EF58
:1006380003F032EC07F013501210D8A426EF03F0A1
:1006480028EF03F02CEF03F056EF03F056EF03F01A
:100658000001000E136E0001800E126EEDEC06F024
:100668000009D8B43AEF03F03CEF03F040EF03F091
:1006780056EF03F056EF03F00001000E136E000171
:10068800B60E126EEDEC06F00009D8B44EEF03F08A
:1006980050EF03F054EF03F056EF03F056EF03F07A
:1006A8003EEC07F012009EEC05F02B502A10D8A45F
:1006B80060EF03F062EF03F066EF03F0A3EF03F0DF
:1006C800A3EF03F02C6E010E456E2C506CEF03F077
:1006D8000001000E276E0001800E266ED9EC06F090
:1006E8000009D8B47AEF03F07CEF03F084EF03F04D
:1006F8002C6E000E456E2C50A3EF03F0A3EF03F011
:100708000001000E276E0001B60E266ED9EC06F029
:100718000009D8B492EF03F094EF03F09CEF03F0D4
:100728002C6E000E456E2C50A3EF03F0A3EF03F0E0
:100738000A0E01EC07F06CEF03F06CEF03F0120007
:10074800E9CF1AF0EACF1BF0E1CF1CF0E2CF1DF0A1
:10075800D9CF1EF0DACF1FF0F3CF20F0F4CF21F07D
:10076800F6CF22F0F7CF23F0F8CF24F0F5CF25F01D
:100778009EA6C1EF03F0C3EF03F0C8EF03F09E9607
:10078800C2EC06F0C8EF03F0F2A4CDEF03F0CFEF10
:1007980003F0D2EF03F0F2940EEC07F003EC03F051
:1007A80025C0F5FF24C0F8FF23C0F7FF22C0F6FFDD
:1007B80021C0F4FF20C0F3FF1FC0DAFF1EC0D9FF1D
:1007C8001DC0E2FF1CC0E1FF1BC0EAFF1AC0E9FF21
:1007D80019C0FBFF18C0FAFF110013A0F6EF03F0D1
:1007E800F8EF03F000EF04F0000E16EC05F0000E31
:1007F80045EC05F000EF04F013A205EF04F007EF55
:1008080004F00FEF04F0010E16EC05F0010E45ECB4
:1008180005F00FEF04F013A414EF04F016EF04F042
:100828001EEF04F0020E16EC05F0020E45EC05F082
:100838001EEF04F013A623EF04F025EF04F02DEFCC
:1008480004F0030E16EC05F0030E45EC05F02DEF51
:1008580004F013A832EF04F034EF04F03CEF04F096
:10086800040E16EC05F0040E45EC05F03CEF04F020
:10087800120020EE0DF05350D9265450DA22060EFD
:10088800DF6249EF04F04BEF04F055EF04F020EE7F
:100898000DF05350D9265450DA22080EDF6E55EF6A
:1008A80004F020EE78F05350D9265450DA22DF5065
:1008B800126E1250010D100EF326000EF422F350A2
:1008C8005324D96EF4505420DA6EDF50C96E20EEEE
:1008D80078F05350D9265450DA22DF2AC6BE77EF73
:1008E80004F07AEF04F0010E7BEF04F0000E7DEFC8
:1008F80004F0120020EE34F02650D9262750DA22D0
:10090800000EDF6E20EE35F02650D9262750DA2269
:10091800000EDF6E286E000E296E2850030E296423
:1009280098EF04F09AEF04F09EEF04F0B3EF04F0B0
:10093800B3EF04F029500D0DF3502624D96EF4506E
:100948002720DA6E000EDF6E292A030E2964AFEF26
:1009580004F0B1EF04F09EEF04F0B3EF04F01200DE
:10096800F2ACB9EF04F0BBEF04F0C5EF04F0000EF1
:10097800296E000E286EE4EF04F0E4EF04F0E4EFD3
:1009880004F02AEC07F027502610D8B4CEEF04F074
:10099800D0EF04F0DAEF04F0000E296E000E286E96
:1009A800E4EF04F0E4EF04F0E4EF04F0000E296E45
:1009B800010E286EE4EF04F0E4EF04F0E4EF04F035
:1009C8001200F2ACEAEF04F0ECEF04F0F6EF04F0FA
:1009D800000E156E000E146E15EF05F015EF05F0FC
:1009E80015EF05F032EC07F013501210D8B4FFEFF2
:1009F80004F001EF05F00BEF05F0000E156E000E88
:100A0800146E15EF05F015EF05F015EF05F0000E63
:100A1800156E010E146E15EF05F015EF05F015EFC4
:100A280005F01200E8CF12F02DEF05F08A8044EFB0
:100A380005F08A8244EF05F08A8444EF05F08A863F
:100A480044EF05F08A8844EF05F044EF05F044EFE1
:100A580005F01250000AD8B41AEF05F0010AD8B40C
:100A68001DEF05F0030AD8B420EF05F0010AD8B449
:100A780023EF05F0070AD8B426EF05F044EF05F098
:100A88001200E8CF12F05CEF05F08A9073EF05F0E2
:100A98008A9273EF05F08A9473EF05F08A9673EFE4
:100AA80005F08A9873EF05F073EF05F073EF05F022
:100AB8001250000AD8B449EF05F0010AD8B44CEF37
:100AC80005F0030AD8B44FEF05F0010AD8B452EF85
:100AD80005F0070AD8B455EF05F073EF05F01200DA
:100AE80029C02FF028C02EF027C02DF026C02CF0EA
:100AF8008EEF05F02EC0D9FF2FC0DAFF2CC0E1FF22
:100B08002DC0E2FFDFCFE7FF2E4A2F2A2C4A2D2ADD
:100B18008EEF05F02A06D8A02B062A28D8B42B2851
:100B2800D8A499EF05F09BEF05F07EEF05F09DEF57
:100B380005F01200B4EC04F029502810D8A4A7EF4F
:100B480005F0A9EF05F0BEEF05F02AEC07F02750F5
:100B58002610D8A4B2EF05F0B4EF05F0BEEF05F00B
:100B6800000E2B6E010E2A6EC6EF05F0C6EF05F0DB
:100B7800C6EF05F0000E2B6E000E2A6EC6EF05F0CC
:100B8800C6EF05F0120020EE0DF05350D926545050
:100B9800DA22090EDF6E000E146E080E136EF1ECE9
:100BA80003F0000E146E080E136EF1EC03F0000E45
:100BB800146E080E136EF1EC03F0000E146E080E9E
:100BC800136EF1EC03F0000E146E080E136EF1ECC8
:100BD80003F0C584120001EE8BF06C0EEE6AE80695
:100BE800FDE100EE80F06C0EEE6AE806FDE100EE35
:100BF80043F00B0EEE6AE806FDE1820EF66E0E0E6D
:100C0800F76E000EF86E00EE4EF010EE05F00900DB
:100C1800F5CFEEFFE550E150FAE1000EF86E000165
:100C280053EF00F02A6E000E456E2A500001000EA8
:100C3800276E0001B60E266E7EEC04F00001000E51
:100C4800276E0001800E266E7EEC04F00101010E75
:100C5800276E0101C10E266E7EEC04F00101010E23
:100C6800276E01018B0E266E7EEC04F0120027C061
:100C780054F026C053F020EE0AF05350D9265450B1
:100C8800DA22000EDF6E20EE0CF05350D9265450B5
:100C9800DA22000EDF6E20EE0DF05350D9265450A4
:100CA800DA22050EDF6E20EE0FF05350D92654508D
:100CB800DA22000EDF6E120020EE78F05350D926AB
:100CC8005450DA2210EE77F05350E1265450E222C5
:100CD800E750DF6272EF06F074EF06F079EF06F086
:100CE800010E7CEF06F07CEF06F0000E7CEF06F0BC
:100CF8001200E8CF42F00001000E316E0001B60E7E
:100D0800306E42C032F03FC034F03EC033F041C0D4
:100D180036F040C035F0FEEC00F093EF06F012001C
:100D2800E8CF42F00001000E316E0001800E306EF7
:100D380042C032F03FC034F03EC033F041C036F01C
:100D480040C035F0FEEC00F0AAEF06F01200E8CF44
:100D580026F026507F0BD56E000ED76E000ED66E8D
:100D6800F29426AEBAEF06F0BCEF06F0BFEF06F03D
:100D7800F28AC0EF06F0F29AD58E120020EE7AF0D1
:100D88005350D9265450DA22DF50D8B4CEEF06F0AB
:100D9800D0EF06F0D4EF06F0AFEC02F0D8EF06F093
:100DA800EFEC01F0D8EF06F0120020EE35F02650F7
:100DB800D9262750DA22DF50286E28500D0DF3501F
:100DC8002624D96EF4502720DA6EDF50ECEF06F0B7
:100DD800120020EE35F01250D9261350DA22DF50D7
:100DE800146E14500D0DF3501224D96EF4501320C4
:100DF800DA6EDF5000EF07F01200E8CF26F0FA0EA7
:100E080000F0E82E04EF07F0262E03EF07F00DEFB1
:100E180007F01200400E136E000E126E21EC07F060
:100E28004F0E5BEC02F01200C650F00B0809C66EBC
:100E3800C68AC78E1D0EC86E120012C014F013C0E9
:100E480015F015C0D7FF14C0D6FF1200000EF2AE81
:100E5800010E266E276A31EF07F01200000EF2AE7F
:100E6800010E126E136A39EF07F01200D08EF28E5F
:100E7800F28C1200D38E03001200010510D8FE0078
:067FF80080F4C5FFFFF15B
:00000001FF
